{"contracts/MintPunks.sol":{"MintPunks":{"abi":[{"inputs":[{"internalType":"string","name":"_name","type":"string"},{"internalType":"string","name":"_symbol","type":"string"},{"internalType":"string","name":"_initBaseURI","type":"string"},{"internalType":"uint256","name":"_limit","type":"uint256"},{"internalType":"uint256","name":"_pubLimit","type":"uint256"},{"internalType":"uint256","name":"_FCFSLimit","type":"uint256"},{"internalType":"uint256","name":"_wlStartTime","type":"uint256"}],"stateMutability":"nonpayable","type":"constructor"},{"inputs":[],"name":"ERC721EnumerableForbiddenBatchMint","type":"error"},{"inputs":[{"internalType":"address","name":"sender","type":"address"},{"internalType":"uint256","name":"tokenId","type":"uint256"},{"internalType":"address","name":"owner","type":"address"}],"name":"ERC721IncorrectOwner","type":"error"},{"inputs":[{"internalType":"address","name":"operator","type":"address"},{"internalType":"uint256","name":"tokenId","type":"uint256"}],"name":"ERC721InsufficientApproval","type":"error"},{"inputs":[{"internalType":"address","name":"approver","type":"address"}],"name":"ERC721InvalidApprover","type":"error"},{"inputs":[{"internalType":"address","name":"operator","type":"address"}],"name":"ERC721InvalidOperator","type":"error"},{"inputs":[{"internalType":"address","name":"owner","type":"address"}],"name":"ERC721InvalidOwner","type":"error"},{"inputs":[{"internalType":"address","name":"receiver","type":"address"}],"name":"ERC721InvalidReceiver","type":"error"},{"inputs":[{"internalType":"address","name":"sender","type":"address"}],"name":"ERC721InvalidSender","type":"error"},{"inputs":[{"internalType":"uint256","name":"tokenId","type":"uint256"}],"name":"ERC721NonexistentToken","type":"error"},{"inputs":[{"internalType":"address","name":"owner","type":"address"},{"internalType":"uint256","name":"index","type":"uint256"}],"name":"ERC721OutOfBoundsIndex","type":"error"},{"inputs":[{"internalType":"address","name":"owner","type":"address"}],"name":"OwnableInvalidOwner","type":"error"},{"inputs":[{"internalType":"address","name":"account","type":"address"}],"name":"OwnableUnauthorizedAccount","type":"error"},{"anonymous":false,"inputs":[{"indexed":true,"internalType":"address","name":"owner","type":"address"},{"indexed":true,"internalType":"address","name":"approved","type":"address"},{"indexed":true,"internalType":"uint256","name":"tokenId","type":"uint256"}],"name":"Approval","type":"event"},{"anonymous":false,"inputs":[{"indexed":true,"internalType":"address","name":"owner","type":"address"},{"indexed":true,"internalType":"address","name":"operator","type":"address"},{"indexed":false,"internalType":"bool","name":"approved","type":"bool"}],"name":"ApprovalForAll","type":"event"},{"anonymous":false,"inputs":[{"indexed":true,"internalType":"address","name":"previousOwner","type":"address"},{"indexed":true,"internalType":"address","name":"newOwner","type":"address"}],"name":"OwnershipTransferred","type":"event"},{"anonymous":false,"inputs":[{"indexed":true,"internalType":"address","name":"from","type":"address"},{"indexed":true,"internalType":"address","name":"to","type":"address"},{"indexed":true,"internalType":"uint256","name":"tokenId","type":"uint256"}],"name":"Transfer","type":"event"},{"inputs":[],"name":"FCFSLimit","outputs":[{"internalType":"uint256","name":"","type":"uint256"}],"stateMutability":"view","type":"function"},{"inputs":[{"internalType":"address","name":"","type":"address"}],"name":"FCFSMint","outputs":[{"internalType":"bool","name":"","type":"bool"}],"stateMutability":"view","type":"function"},{"inputs":[{"internalType":"address","name":"","type":"address"}],"name":"FSCSMinted","outputs":[{"internalType":"uint256","name":"","type":"uint256"}],"stateMutability":"view","type":"function"},{"inputs":[{"internalType":"address[]","name":"_addresses","type":"address[]"}],"name":"addToFCFS","outputs":[],"stateMutability":"nonpayable","type":"function"},{"inputs":[{"internalType":"address[]","name":"_addresses","type":"address[]"}],"name":"addToWhitelist","outputs":[],"stateMutability":"nonpayable","type":"function"},{"inputs":[{"internalType":"address","name":"to","type":"address"},{"internalType":"uint256","name":"tokenId","type":"uint256"}],"name":"approve","outputs":[],"stateMutability":"nonpayable","type":"function"},{"inputs":[{"internalType":"address","name":"owner","type":"address"}],"name":"balanceOf","outputs":[{"internalType":"uint256","name":"","type":"uint256"}],"stateMutability":"view","type":"function"},{"inputs":[{"internalType":"uint256","name":"_newTime","type":"uint256"}],"name":"changeStartTime","outputs":[],"stateMutability":"nonpayable","type":"function"},{"inputs":[],"name":"cost","outputs":[{"internalType":"uint256","name":"","type":"uint256"}],"stateMutability":"view","type":"function"},{"inputs":[],"name":"fcfsEndTime","outputs":[{"internalType":"uint256","name":"","type":"uint256"}],"stateMutability":"view","type":"function"},{"inputs":[{"internalType":"uint256","name":"tokenId","type":"uint256"}],"name":"getApproved","outputs":[{"internalType":"address","name":"","type":"address"}],"stateMutability":"view","type":"function"},{"inputs":[],"name":"getSalePhases","outputs":[{"internalType":"bool[3]","name":"","type":"bool[3]"}],"stateMutability":"view","type":"function"},{"inputs":[{"internalType":"address","name":"owner","type":"address"},{"internalType":"address","name":"operator","type":"address"}],"name":"isApprovedForAll","outputs":[{"internalType":"bool","name":"","type":"bool"}],"stateMutability":"view","type":"function"},{"inputs":[],"name":"maxSupply","outputs":[{"internalType":"uint256","name":"","type":"uint256"}],"stateMutability":"view","type":"function"},{"inputs":[{"internalType":"uint256","name":"_mintAmount","type":"uint256"}],"name":"mint","outputs":[],"stateMutability":"payable","type":"function"},{"inputs":[],"name":"name","outputs":[{"internalType":"string","name":"","type":"string"}],"stateMutability":"view","type":"function"},{"inputs":[],"name":"owner","outputs":[{"internalType":"address","name":"","type":"address"}],"stateMutability":"view","type":"function"},{"inputs":[{"internalType":"uint256","name":"tokenId","type":"uint256"}],"name":"ownerOf","outputs":[{"internalType":"address","name":"","type":"address"}],"stateMutability":"view","type":"function"},{"inputs":[{"internalType":"bool","name":"_state","type":"bool"}],"name":"pause","outputs":[],"stateMutability":"nonpayable","type":"function"},{"inputs":[],"name":"paused","outputs":[{"internalType":"bool","name":"","type":"bool"}],"stateMutability":"view","type":"function"},{"inputs":[],"name":"publicLimit","outputs":[{"internalType":"uint256","name":"","type":"uint256"}],"stateMutability":"view","type":"function"},{"inputs":[{"internalType":"address","name":"","type":"address"}],"name":"publicMinted","outputs":[{"internalType":"uint256","name":"","type":"uint256"}],"stateMutability":"view","type":"function"},{"inputs":[{"internalType":"address[]","name":"_addresses","type":"address[]"}],"name":"removeFromFCFS","outputs":[],"stateMutability":"nonpayable","type":"function"},{"inputs":[{"internalType":"address[]","name":"_addresses","type":"address[]"}],"name":"removeFromWhitelist","outputs":[],"stateMutability":"nonpayable","type":"function"},{"inputs":[],"name":"renounceOwnership","outputs":[],"stateMutability":"nonpayable","type":"function"},{"inputs":[{"internalType":"address","name":"from","type":"address"},{"internalType":"address","name":"to","type":"address"},{"internalType":"uint256","name":"tokenId","type":"uint256"}],"name":"safeTransferFrom","outputs":[],"stateMutability":"nonpayable","type":"function"},{"inputs":[{"internalType":"address","name":"from","type":"address"},{"internalType":"address","name":"to","type":"address"},{"internalType":"uint256","name":"tokenId","type":"uint256"},{"internalType":"bytes","name":"data","type":"bytes"}],"name":"safeTransferFrom","outputs":[],"stateMutability":"nonpayable","type":"function"},{"inputs":[{"internalType":"address","name":"operator","type":"address"},{"internalType":"bool","name":"approved","type":"bool"}],"name":"setApprovalForAll","outputs":[],"stateMutability":"nonpayable","type":"function"},{"inputs":[{"internalType":"string","name":"_newBaseURI","type":"string"}],"name":"setBaseURI","outputs":[],"stateMutability":"nonpayable","type":"function"},{"inputs":[{"internalType":"uint256","name":"_newCost","type":"uint256"}],"name":"setCost","outputs":[],"stateMutability":"nonpayable","type":"function"},{"inputs":[{"internalType":"bytes4","name":"interfaceId","type":"bytes4"}],"name":"supportsInterface","outputs":[{"internalType":"bool","name":"","type":"bool"}],"stateMutability":"view","type":"function"},{"inputs":[],"name":"symbol","outputs":[{"internalType":"string","name":"","type":"string"}],"stateMutability":"view","type":"function"},{"inputs":[{"internalType":"uint256","name":"index","type":"uint256"}],"name":"tokenByIndex","outputs":[{"internalType":"uint256","name":"","type":"uint256"}],"stateMutability":"view","type":"function"},{"inputs":[{"internalType":"address","name":"owner","type":"address"},{"internalType":"uint256","name":"index","type":"uint256"}],"name":"tokenOfOwnerByIndex","outputs":[{"internalType":"uint256","name":"","type":"uint256"}],"stateMutability":"view","type":"function"},{"inputs":[{"internalType":"uint256","name":"tokenId","type":"uint256"}],"name":"tokenURI","outputs":[{"internalType":"string","name":"","type":"string"}],"stateMutability":"view","type":"function"},{"inputs":[],"name":"totalSupply","outputs":[{"internalType":"uint256","name":"","type":"uint256"}],"stateMutability":"view","type":"function"},{"inputs":[{"internalType":"address","name":"from","type":"address"},{"internalType":"address","name":"to","type":"address"},{"internalType":"uint256","name":"tokenId","type":"uint256"}],"name":"transferFrom","outputs":[],"stateMutability":"nonpayable","type":"function"},{"inputs":[{"internalType":"address","name":"newOwner","type":"address"}],"name":"transferOwnership","outputs":[],"stateMutability":"nonpayable","type":"function"},{"inputs":[{"internalType":"address","name":"_owner","type":"address"}],"name":"walletOfOwner","outputs":[{"internalType":"uint256[]","name":"","type":"uint256[]"}],"stateMutability":"view","type":"function"},{"inputs":[{"internalType":"address","name":"","type":"address"}],"name":"whitelist","outputs":[{"internalType":"bool","name":"","type":"bool"}],"stateMutability":"view","type":"function"},{"inputs":[],"name":"whitelistLimit","outputs":[{"internalType":"uint256","name":"","type":"uint256"}],"stateMutability":"view","type":"function"},{"inputs":[{"internalType":"address","name":"","type":"address"}],"name":"whitelistMinted","outputs":[{"internalType":"uint256","name":"","type":"uint256"}],"stateMutability":"view","type":"function"},{"inputs":[],"name":"withdraw","outputs":[],"stateMutability":"payable","type":"function"},{"inputs":[],"name":"wlEndTime","outputs":[{"internalType":"uint256","name":"","type":"uint256"}],"stateMutability":"view","type":"function"},{"inputs":[],"name":"wlStartTime","outputs":[{"internalType":"uint256","name":"","type":"uint256"}],"stateMutability":"view","type":"function"},{"stateMutability":"payable","type":"receive"}],"evm":{"bytecode":{"linkReferences":{},"object":"60806040526000600d60006101000a81548160ff0219169083151502179055506602c567e6ecc0006011556127106012553480156200003d57600080fd5b506040516200527c3803806200527c833981810160405281019062000063919062000557565b3387878160009081620000779190620008a8565b508060019081620000899190620008a8565b505050600073ffffffffffffffffffffffffffffffffffffffff168173ffffffffffffffffffffffffffffffffffffffff1603620001015760006040517f1e4fbdf7000000000000000000000000000000000000000000000000000000008152600401620000f89190620009d4565b60405180910390fd5b6200011281620001ca60201b60201c565b506001600b8190555042811162000160576040517f08c379a0000000000000000000000000000000000000000000000000000000008152600401620001579062000a78565b60405180910390fd5b83601381905550826014819055508160158190555080600e81905550615460600e546200018e919062000ac9565b600f81905550615460600f54620001a6919062000ac9565b601081905550620001bd856200029060201b60201c565b5050505050505062000b04565b6000600a60009054906101000a900473ffffffffffffffffffffffffffffffffffffffff16905081600a60006101000a81548173ffffffffffffffffffffffffffffffffffffffff021916908373ffffffffffffffffffffffffffffffffffffffff1602179055508173ffffffffffffffffffffffffffffffffffffffff168173ffffffffffffffffffffffffffffffffffffffff167f8be0079c531659141344cd1fd0a4f28419497f9722a3daafe3b4186f6b6457e060405160405180910390a35050565b620002a0620002b560201b60201c565b80600c9081620002b19190620008a8565b5050565b620002c56200035760201b60201c565b73ffffffffffffffffffffffffffffffffffffffff16620002eb6200035f60201b60201c565b73ffffffffffffffffffffffffffffffffffffffff16146200035557620003176200035760201b60201c565b6040517f118cdaa70000000000000000000000000000000000000000000000000000000081526004016200034c9190620009d4565b60405180910390fd5b565b600033905090565b6000600a60009054906101000a900473ffffffffffffffffffffffffffffffffffffffff16905090565b6000604051905090565b600080fd5b600080fd5b600080fd5b600080fd5b6000601f19601f8301169050919050565b7f4e487b7100000000000000000000000000000000000000000000000000000000600052604160045260246000fd5b620003f282620003a7565b810181811067ffffffffffffffff82111715620004145762000413620003b8565b5b80604052505050565b60006200042962000389565b9050620004378282620003e7565b919050565b600067ffffffffffffffff8211156200045a5762000459620003b8565b5b6200046582620003a7565b9050602081019050919050565b60005b838110156200049257808201518184015260208101905062000475565b60008484015250505050565b6000620004b5620004af846200043c565b6200041d565b905082815260208101848484011115620004d457620004d3620003a2565b5b620004e184828562000472565b509392505050565b600082601f8301126200050157620005006200039d565b5b8151620005138482602086016200049e565b91505092915050565b6000819050919050565b62000531816200051c565b81146200053d57600080fd5b50565b600081519050620005518162000526565b92915050565b600080600080600080600060e0888a03121562000579576200057862000393565b5b600088015167ffffffffffffffff8111156200059a576200059962000398565b5b620005a88a828b01620004e9565b975050602088015167ffffffffffffffff811115620005cc57620005cb62000398565b5b620005da8a828b01620004e9565b965050604088015167ffffffffffffffff811115620005fe57620005fd62000398565b5b6200060c8a828b01620004e9565b95505060606200061f8a828b0162000540565b9450506080620006328a828b0162000540565b93505060a0620006458a828b0162000540565b92505060c0620006588a828b0162000540565b91505092959891949750929550565b600081519050919050565b7f4e487b7100000000000000000000000000000000000000000000000000000000600052602260045260246000fd5b60006002820490506001821680620006ba57607f821691505b602082108103620006d057620006cf62000672565b5b50919050565b60008190508160005260206000209050919050565b60006020601f8301049050919050565b600082821b905092915050565b6000600883026200073a7fffffffffffffffffffffffffffffffffffffffffffffffffffffffffffffffff82620006fb565b620007468683620006fb565b95508019841693508086168417925050509392505050565b6000819050919050565b600062000789620007836200077d846200051c565b6200075e565b6200051c565b9050919050565b6000819050919050565b620007a58362000768565b620007bd620007b48262000790565b84845462000708565b825550505050565b600090565b620007d4620007c5565b620007e18184846200079a565b505050565b5b818110156200080957620007fd600082620007ca565b600181019050620007e7565b5050565b601f82111562000858576200082281620006d6565b6200082d84620006eb565b810160208510156200083d578190505b620008556200084c85620006eb565b830182620007e6565b50505b505050565b600082821c905092915050565b60006200087d600019846008026200085d565b1980831691505092915050565b60006200089883836200086a565b9150826002028217905092915050565b620008b38262000667565b67ffffffffffffffff811115620008cf57620008ce620003b8565b5b620008db8254620006a1565b620008e88282856200080d565b600060209050601f8311600181146200092057600084156200090b578287015190505b6200091785826200088a565b86555062000987565b601f1984166200093086620006d6565b60005b828110156200095a5784890151825560018201915060208501945060208101905062000933565b868310156200097a578489015162000976601f8916826200086a565b8355505b6001600288020188555050505b505050505050565b600073ffffffffffffffffffffffffffffffffffffffff82169050919050565b6000620009bc826200098f565b9050919050565b620009ce81620009af565b82525050565b6000602082019050620009eb6000830184620009c3565b92915050565b600082825260208201905092915050565b7f57686974656c6973742073746172742074696d65206973206c6573732074686160008201527f742063757272656e742054696d657374616d7000000000000000000000000000602082015250565b600062000a60603383620009f1565b915062000a6d8262000a02565b604082019050919050565b6000602082019050818103600083015262000a938162000a51565b9050919050565b7f4e487b7100000000000000000000000000000000000000000000000000000000600052601160045260246000fd5b600062000ad6826200051c565b915062000ae3836200051c565b925082820190508082111562000afe5762000afd62000a9a565b5b92915050565b6147688062000b146000396000f3fe6080604052600436106102765760003560e01c80636352211e1161014f578063a4331d2d116100c1578063c87b56dd1161007a578063c87b56dd14610979578063c896d7d8146109b6578063cc0895cf146109f3578063d5abeb0114610a1c578063e985e9c514610a47578063f2fde38b14610a845761027d565b8063a4331d2d14610867578063ac2f396e14610892578063b60f7f58146108bd578063b88d4fde146108fa578063be9feb3014610923578063c39887f51461094e5761027d565b80638da5cb5b116101135780638da5cb5b1461075257806395d89b411461077d57806398a8cffe146107a85780639b19251a146107e5578063a0712d6814610822578063a22cb4651461083e5761027d565b80636352211e1461066f57806370a08231146106ac578063715018a6146106e95780637f649783146107005780638aa5b2c3146107295761027d565b8063302150e5116101e857806344a0d68a116101ac57806344a0d68a1461056157806347a541481461058a5780634f6ccce7146105b5578063548db174146105f257806355f804b31461061b5780635c975abb146106445761027d565b8063302150e51461049d5780633823bb55146104c85780633ccfd60b146104f157806342842e0e146104fb578063438b6300146105245761027d565b80630a93268b1161023a5780630a93268b146103795780631015805b146103a457806313faede6146103e157806318160ddd1461040c57806323b872dd146104375780632f745c59146104605761027d565b806301ffc9a71461028257806302329a29146102bf57806306fdde03146102e8578063081812fc14610313578063095ea7b3146103505761027d565b3661027d57005b600080fd5b34801561028e57600080fd5b506102a960048036038101906102a4919061330a565b610aad565b6040516102b69190613352565b60405180910390f35b3480156102cb57600080fd5b506102e660048036038101906102e19190613399565b610b27565b005b3480156102f457600080fd5b506102fd610b4c565b60405161030a9190613456565b60405180910390f35b34801561031f57600080fd5b5061033a600480360381019061033591906134ae565b610bde565b604051610347919061351c565b60405180910390f35b34801561035c57600080fd5b5061037760048036038101906103729190613563565b610bfa565b005b34801561038557600080fd5b5061038e610c10565b60405161039b919061364e565b60405180910390f35b3480156103b057600080fd5b506103cb60048036038101906103c69190613669565b610c7f565b6040516103d891906136a5565b60405180910390f35b3480156103ed57600080fd5b506103f6610c97565b60405161040391906136a5565b60405180910390f35b34801561041857600080fd5b50610421610c9d565b60405161042e91906136a5565b60405180910390f35b34801561044357600080fd5b5061045e600480360381019061045991906136c0565b610caa565b005b34801561046c57600080fd5b5061048760048036038101906104829190613563565b610dac565b60405161049491906136a5565b60405180910390f35b3480156104a957600080fd5b506104b2610e55565b6040516104bf91906136a5565b60405180910390f35b3480156104d457600080fd5b506104ef60048036038101906104ea9190613778565b610e5b565b005b6104f9610f00565b005b34801561050757600080fd5b50610522600480360381019061051d91906136c0565b611031565b005b34801561053057600080fd5b5061054b60048036038101906105469190613669565b611051565b6040516105589190613883565b60405180910390f35b34801561056d57600080fd5b50610588600480360381019061058391906134ae565b6110f9565b005b34801561059657600080fd5b5061059f61110b565b6040516105ac91906136a5565b60405180910390f35b3480156105c157600080fd5b506105dc60048036038101906105d791906134ae565b611111565b6040516105e991906136a5565b60405180910390f35b3480156105fe57600080fd5b5061061960048036038101906106149190613778565b611187565b005b34801561062757600080fd5b50610642600480360381019061063d91906139d5565b61122c565b005b34801561065057600080fd5b50610659611247565b6040516106669190613352565b60405180910390f35b34801561067b57600080fd5b50610696600480360381019061069191906134ae565b61125a565b6040516106a3919061351c565b60405180910390f35b3480156106b857600080fd5b506106d360048036038101906106ce9190613669565b61126c565b6040516106e091906136a5565b60405180910390f35b3480156106f557600080fd5b506106fe611326565b005b34801561070c57600080fd5b5061072760048036038101906107229190613778565b61133a565b005b34801561073557600080fd5b50610750600480360381019061074b91906134ae565b6113df565b005b34801561075e57600080fd5b5061076761141d565b604051610774919061351c565b60405180910390f35b34801561078957600080fd5b50610792611447565b60405161079f9190613456565b60405180910390f35b3480156107b457600080fd5b506107cf60048036038101906107ca9190613669565b6114d9565b6040516107dc91906136a5565b60405180910390f35b3480156107f157600080fd5b5061080c60048036038101906108079190613669565b6114f1565b6040516108199190613352565b60405180910390f35b61083c600480360381019061083791906134ae565b611511565b005b34801561084a57600080fd5b5061086560048036038101906108609190613a1e565b611b2a565b005b34801561087357600080fd5b5061087c611b40565b60405161088991906136a5565b60405180910390f35b34801561089e57600080fd5b506108a7611b46565b6040516108b491906136a5565b60405180910390f35b3480156108c957600080fd5b506108e460048036038101906108df9190613669565b611b4c565b6040516108f191906136a5565b60405180910390f35b34801561090657600080fd5b50610921600480360381019061091c9190613aff565b611b64565b005b34801561092f57600080fd5b50610938611b81565b60405161094591906136a5565b60405180910390f35b34801561095a57600080fd5b50610963611b87565b60405161097091906136a5565b60405180910390f35b34801561098557600080fd5b506109a0600480360381019061099b91906134ae565b611b8d565b6040516109ad9190613456565b60405180910390f35b3480156109c257600080fd5b506109dd60048036038101906109d89190613669565b611bf6565b6040516109ea9190613352565b60405180910390f35b3480156109ff57600080fd5b50610a1a6004803603810190610a159190613778565b611c16565b005b348015610a2857600080fd5b50610a31611cbb565b604051610a3e91906136a5565b60405180910390f35b348015610a5357600080fd5b50610a6e6004803603810190610a699190613b82565b611cc1565b604051610a7b9190613352565b60405180910390f35b348015610a9057600080fd5b50610aab6004803603810190610aa69190613669565b611d55565b005b60007f780e9d63000000000000000000000000000000000000000000000000000000007bffffffffffffffffffffffffffffffffffffffffffffffffffffffff1916827bffffffffffffffffffffffffffffffffffffffffffffffffffffffff19161480610b205750610b1f82611ddb565b5b9050919050565b610b2f611ebd565b80600d60006101000a81548160ff02191690831515021790555050565b606060008054610b5b90613bf1565b80601f0160208091040260200160405190810160405280929190818152602001828054610b8790613bf1565b8015610bd45780601f10610ba957610100808354040283529160200191610bd4565b820191906000526020600020905b815481529060010190602001808311610bb757829003601f168201915b5050505050905090565b6000610be982611f44565b50610bf382611fcc565b9050919050565b610c0c8282610c07612009565b612011565b5050565b610c1861327c565b6000600e544210158015610c2e5750600f544211155b90506000600f5442118015610c4557506010544211155b9050600060105442119050604051806060016040528084151515158152602001831515151581526020018215151515815250935050505090565b60186020528060005260406000206000915090505481565b60115481565b6000600880549050905090565b600073ffffffffffffffffffffffffffffffffffffffff168273ffffffffffffffffffffffffffffffffffffffff1603610d1c5760006040517f64a0ae92000000000000000000000000000000000000000000000000000000008152600401610d13919061351c565b60405180910390fd5b6000610d308383610d2b612009565b612023565b90508373ffffffffffffffffffffffffffffffffffffffff168173ffffffffffffffffffffffffffffffffffffffff1614610da6578382826040517f64283d7b000000000000000000000000000000000000000000000000000000008152600401610d9d93929190613c22565b60405180910390fd5b50505050565b6000610db78361126c565b8210610dfc5782826040517fa57d13dc000000000000000000000000000000000000000000000000000000008152600401610df3929190613c59565b60405180910390fd5b600660008473ffffffffffffffffffffffffffffffffffffffff1673ffffffffffffffffffffffffffffffffffffffff168152602001908152602001600020600083815260200190815260200160002054905092915050565b60135481565b610e63611ebd565b60005b82829050811015610efb57600060176000858585818110610e8a57610e89613c82565b5b9050602002016020810190610e9f9190613669565b73ffffffffffffffffffffffffffffffffffffffff1673ffffffffffffffffffffffffffffffffffffffff16815260200190815260200160002060006101000a81548160ff021916908315150217905550806001019050610e66565b505050565b610f08611ebd565b60004790506000739581a8b08621139288196c24f8a3580b3a21b24073ffffffffffffffffffffffffffffffffffffffff166064601e84610f499190613ce0565b610f539190613d51565b604051610f5f90613db3565b60006040518083038185875af1925050503d8060008114610f9c576040519150601f19603f3d011682016040523d82523d6000602084013e610fa1565b606091505b5050905080610faf57600080fd5b6000610fb961141d565b73ffffffffffffffffffffffffffffffffffffffff1647604051610fdc90613db3565b60006040518083038185875af1925050503d8060008114611019576040519150601f19603f3d011682016040523d82523d6000602084013e61101e565b606091505b505090508061102c57600080fd5b505050565b61104c83838360405180602001604052806000815250611b64565b505050565b6060600061105e8361126c565b905060008167ffffffffffffffff81111561107c5761107b6138aa565b5b6040519080825280602002602001820160405280156110aa5781602001602082028036833780820191505090505b50905060005b828110156110ee576110c28582610dac565b8282815181106110d5576110d4613c82565b5b60200260200101818152505080806001019150506110b0565b508092505050919050565b611101611ebd565b8060118190555050565b600f5481565b600061111b610c9d565b8210611161576000826040517fa57d13dc000000000000000000000000000000000000000000000000000000008152600401611158929190613c59565b60405180910390fd5b6008828154811061117557611174613c82565b5b90600052602060002001549050919050565b61118f611ebd565b60005b82829050811015611227576000601660008585858181106111b6576111b5613c82565b5b90506020020160208101906111cb9190613669565b73ffffffffffffffffffffffffffffffffffffffff1673ffffffffffffffffffffffffffffffffffffffff16815260200190815260200160002060006101000a81548160ff021916908315150217905550806001019050611192565b505050565b611234611ebd565b80600c90816112439190613f74565b5050565b600d60009054906101000a900460ff1681565b600061126582611f44565b9050919050565b60008073ffffffffffffffffffffffffffffffffffffffff168273ffffffffffffffffffffffffffffffffffffffff16036112df5760006040517f89c62b640000000000000000000000000000000000000000000000000000000081526004016112d6919061351c565b60405180910390fd5b600360008373ffffffffffffffffffffffffffffffffffffffff1673ffffffffffffffffffffffffffffffffffffffff168152602001908152602001600020549050919050565b61132e611ebd565b6113386000612140565b565b611342611ebd565b60005b828290508110156113da5760016016600085858581811061136957611368613c82565b5b905060200201602081019061137e9190613669565b73ffffffffffffffffffffffffffffffffffffffff1673ffffffffffffffffffffffffffffffffffffffff16815260200190815260200160002060006101000a81548160ff021916908315150217905550806001019050611345565b505050565b6113e7611ebd565b80600e81905550615460600e546113fe9190614046565b600f81905550615460600f546114149190614046565b60108190555050565b6000600a60009054906101000a900473ffffffffffffffffffffffffffffffffffffffff16905090565b60606001805461145690613bf1565b80601f016020809104026020016040519081016040528092919081815260200182805461148290613bf1565b80156114cf5780601f106114a4576101008083540402835291602001916114cf565b820191906000526020600020905b8154815290600101906020018083116114b257829003601f168201915b5050505050905090565b60196020528060005260406000206000915090505481565b60166020528060005260406000206000915054906101000a900460ff1681565b611519612206565b6000611523610c9d565b9050600d60009054906101000a900460ff1615611575576040517f08c379a000000000000000000000000000000000000000000000000000000000815260040161156c906140c6565b60405180910390fd5b600082116115b8576040517f08c379a00000000000000000000000000000000000000000000000000000000081526004016115af90614158565b60405180910390fd5b60125482826115c79190614046565b1115611608576040517f08c379a00000000000000000000000000000000000000000000000000000000081526004016115ff906141c4565b60405180910390fd5b61161061141d565b73ffffffffffffffffffffffffffffffffffffffff163373ffffffffffffffffffffffffffffffffffffffff1614611ae757816011546116509190613ce0565b341015611692576040517f08c379a000000000000000000000000000000000000000000000000000000000815260040161168990614230565b60405180910390fd5b600e544210156116d7576040517f08c379a00000000000000000000000000000000000000000000000000000000081526004016116ce9061429c565b60405180910390fd5b600e5442101580156116eb5750600f544211155b1561186657601660003373ffffffffffffffffffffffffffffffffffffffff1673ffffffffffffffffffffffffffffffffffffffff16815260200190815260200160002060009054906101000a900460ff1661177c576040517f08c379a000000000000000000000000000000000000000000000000000000000815260040161177390614308565b60405180910390fd5b60135482601960003373ffffffffffffffffffffffffffffffffffffffff1673ffffffffffffffffffffffffffffffffffffffff168152602001908152602001600020546117ca9190614046565b111561180b576040517f08c379a000000000000000000000000000000000000000000000000000000000815260040161180290614374565b60405180910390fd5b81601960003373ffffffffffffffffffffffffffffffffffffffff1673ffffffffffffffffffffffffffffffffffffffff168152602001908152602001600020600082825461185a9190614046565b92505081905550611ae6565b600f544211801561187957506010544211155b156119f457601760003373ffffffffffffffffffffffffffffffffffffffff1673ffffffffffffffffffffffffffffffffffffffff16815260200190815260200160002060009054906101000a900460ff1661190a576040517f08c379a0000000000000000000000000000000000000000000000000000000008152600401611901906143e0565b60405180910390fd5b60155482601a60003373ffffffffffffffffffffffffffffffffffffffff1673ffffffffffffffffffffffffffffffffffffffff168152602001908152602001600020546119589190614046565b1115611999576040517f08c379a00000000000000000000000000000000000000000000000000000000081526004016119909061444c565b60405180910390fd5b81601a60003373ffffffffffffffffffffffffffffffffffffffff1673ffffffffffffffffffffffffffffffffffffffff16815260200190815260200160002060008282546119e89190614046565b92505081905550611ae5565b601054421115611ae45760145482601860003373ffffffffffffffffffffffffffffffffffffffff1673ffffffffffffffffffffffffffffffffffffffff16815260200190815260200160002054611a4c9190614046565b1115611a8d576040517f08c379a0000000000000000000000000000000000000000000000000000000008152600401611a84906144b8565b60405180910390fd5b81601860003373ffffffffffffffffffffffffffffffffffffffff1673ffffffffffffffffffffffffffffffffffffffff1681526020019081526020016000206000828254611adc9190614046565b925050819055505b5b5b5b6000600190505b828111611b1d57611b0a338284611b059190614046565b612255565b8080611b15906144d8565b915050611aee565b5050611b27612273565b50565b611b3c611b35612009565b838361227d565b5050565b60145481565b60155481565b601a6020528060005260406000206000915090505481565b611b6f848484610caa565b611b7b848484846123ec565b50505050565b600e5481565b60105481565b6060611b9882611f44565b506000611ba36125a3565b90506000815111611bc35760405180602001604052806000815250611bee565b80611bcd84612635565b604051602001611bde92919061455c565b6040516020818303038152906040525b915050919050565b60176020528060005260406000206000915054906101000a900460ff1681565b611c1e611ebd565b60005b82829050811015611cb657600160176000858585818110611c4557611c44613c82565b5b9050602002016020810190611c5a9190613669565b73ffffffffffffffffffffffffffffffffffffffff1673ffffffffffffffffffffffffffffffffffffffff16815260200190815260200160002060006101000a81548160ff021916908315150217905550806001019050611c21565b505050565b60125481565b6000600560008473ffffffffffffffffffffffffffffffffffffffff1673ffffffffffffffffffffffffffffffffffffffff16815260200190815260200160002060008373ffffffffffffffffffffffffffffffffffffffff1673ffffffffffffffffffffffffffffffffffffffff16815260200190815260200160002060009054906101000a900460ff16905092915050565b611d5d611ebd565b600073ffffffffffffffffffffffffffffffffffffffff168173ffffffffffffffffffffffffffffffffffffffff1603611dcf5760006040517f1e4fbdf7000000000000000000000000000000000000000000000000000000008152600401611dc6919061351c565b60405180910390fd5b611dd881612140565b50565b60007f80ac58cd000000000000000000000000000000000000000000000000000000007bffffffffffffffffffffffffffffffffffffffffffffffffffffffff1916827bffffffffffffffffffffffffffffffffffffffffffffffffffffffff19161480611ea657507f5b5e139f000000000000000000000000000000000000000000000000000000007bffffffffffffffffffffffffffffffffffffffffffffffffffffffff1916827bffffffffffffffffffffffffffffffffffffffffffffffffffffffff1916145b80611eb65750611eb582612703565b5b9050919050565b611ec5612009565b73ffffffffffffffffffffffffffffffffffffffff16611ee361141d565b73ffffffffffffffffffffffffffffffffffffffff1614611f4257611f06612009565b6040517f118cdaa7000000000000000000000000000000000000000000000000000000008152600401611f39919061351c565b60405180910390fd5b565b600080611f508361276d565b9050600073ffffffffffffffffffffffffffffffffffffffff168173ffffffffffffffffffffffffffffffffffffffff1603611fc357826040517f7e273289000000000000000000000000000000000000000000000000000000008152600401611fba91906136a5565b60405180910390fd5b80915050919050565b60006004600083815260200190815260200160002060009054906101000a900473ffffffffffffffffffffffffffffffffffffffff169050919050565b600033905090565b61201e83838360016127aa565b505050565b60008061203185858561296f565b9050600073ffffffffffffffffffffffffffffffffffffffff168173ffffffffffffffffffffffffffffffffffffffff16036120755761207084612b89565b6120b4565b8473ffffffffffffffffffffffffffffffffffffffff168173ffffffffffffffffffffffffffffffffffffffff16146120b3576120b28185612bd2565b5b5b600073ffffffffffffffffffffffffffffffffffffffff168573ffffffffffffffffffffffffffffffffffffffff16036120f6576120f184612d33565b612135565b8473ffffffffffffffffffffffffffffffffffffffff168173ffffffffffffffffffffffffffffffffffffffff1614612134576121338585612e04565b5b5b809150509392505050565b6000600a60009054906101000a900473ffffffffffffffffffffffffffffffffffffffff16905081600a60006101000a81548173ffffffffffffffffffffffffffffffffffffffff021916908373ffffffffffffffffffffffffffffffffffffffff1602179055508173ffffffffffffffffffffffffffffffffffffffff168173ffffffffffffffffffffffffffffffffffffffff167f8be0079c531659141344cd1fd0a4f28419497f9722a3daafe3b4186f6b6457e060405160405180910390a35050565b6002600b540361224b576040517f08c379a0000000000000000000000000000000000000000000000000000000008152600401612242906145cc565b60405180910390fd5b6002600b81905550565b61226f828260405180602001604052806000815250612e8f565b5050565b6001600b81905550565b600073ffffffffffffffffffffffffffffffffffffffff168273ffffffffffffffffffffffffffffffffffffffff16036122ee57816040517f5b08ba180000000000000000000000000000000000000000000000000000000081526004016122e5919061351c565b60405180910390fd5b80600560008573ffffffffffffffffffffffffffffffffffffffff1673ffffffffffffffffffffffffffffffffffffffff16815260200190815260200160002060008473ffffffffffffffffffffffffffffffffffffffff1673ffffffffffffffffffffffffffffffffffffffff16815260200190815260200160002060006101000a81548160ff0219169083151502179055508173ffffffffffffffffffffffffffffffffffffffff168373ffffffffffffffffffffffffffffffffffffffff167f17307eab39ab6107e8899845ad3d59bd9653f200f220920489ca2b5937696c31836040516123df9190613352565b60405180910390a3505050565b60008373ffffffffffffffffffffffffffffffffffffffff163b111561259d578273ffffffffffffffffffffffffffffffffffffffff1663150b7a02612430612009565b8685856040518563ffffffff1660e01b81526004016124529493929190614641565b6020604051808303816000875af192505050801561248e57506040513d601f19601f8201168201806040525081019061248b91906146a2565b60015b612512573d80600081146124be576040519150601f19603f3d011682016040523d82523d6000602084013e6124c3565b606091505b50600081510361250a57836040517f64a0ae92000000000000000000000000000000000000000000000000000000008152600401612501919061351c565b60405180910390fd5b805181602001fd5b63150b7a0260e01b7bffffffffffffffffffffffffffffffffffffffffffffffffffffffff1916817bffffffffffffffffffffffffffffffffffffffffffffffffffffffff19161461259b57836040517f64a0ae92000000000000000000000000000000000000000000000000000000008152600401612592919061351c565b60405180910390fd5b505b50505050565b6060600c80546125b290613bf1565b80601f01602080910402602001604051908101604052809291908181526020018280546125de90613bf1565b801561262b5780601f106126005761010080835404028352916020019161262b565b820191906000526020600020905b81548152906001019060200180831161260e57829003601f168201915b5050505050905090565b60606000600161264484612eab565b01905060008167ffffffffffffffff811115612663576126626138aa565b5b6040519080825280601f01601f1916602001820160405280156126955781602001600182028036833780820191505090505b509050600082602001820190505b6001156126f8578080600190039150507f3031323334353637383961626364656600000000000000000000000000000000600a86061a8153600a85816126ec576126eb613d22565b5b049450600085036126a3575b819350505050919050565b60007f01ffc9a7000000000000000000000000000000000000000000000000000000007bffffffffffffffffffffffffffffffffffffffffffffffffffffffff1916827bffffffffffffffffffffffffffffffffffffffffffffffffffffffff1916149050919050565b60006002600083815260200190815260200160002060009054906101000a900473ffffffffffffffffffffffffffffffffffffffff169050919050565b80806127e35750600073ffffffffffffffffffffffffffffffffffffffff168273ffffffffffffffffffffffffffffffffffffffff1614155b156129175760006127f384611f44565b9050600073ffffffffffffffffffffffffffffffffffffffff168373ffffffffffffffffffffffffffffffffffffffff161415801561285e57508273ffffffffffffffffffffffffffffffffffffffff168173ffffffffffffffffffffffffffffffffffffffff1614155b8015612871575061286f8184611cc1565b155b156128b357826040517fa9fbf51f0000000000000000000000000000000000000000000000000000000081526004016128aa919061351c565b60405180910390fd5b811561291557838573ffffffffffffffffffffffffffffffffffffffff168273ffffffffffffffffffffffffffffffffffffffff167f8c5be1e5ebec7d5bd14f71427d1e84f3dd0314c0f7b2291e5b200ac8c7c3b92560405160405180910390a45b505b836004600085815260200190815260200160002060006101000a81548173ffffffffffffffffffffffffffffffffffffffff021916908373ffffffffffffffffffffffffffffffffffffffff16021790555050505050565b60008061297b8461276d565b9050600073ffffffffffffffffffffffffffffffffffffffff168373ffffffffffffffffffffffffffffffffffffffff16146129bd576129bc818486612ffe565b5b600073ffffffffffffffffffffffffffffffffffffffff168173ffffffffffffffffffffffffffffffffffffffff1614612a4e576129ff6000856000806127aa565b6001600360008373ffffffffffffffffffffffffffffffffffffffff1673ffffffffffffffffffffffffffffffffffffffff168152602001908152602001600020600082825403925050819055505b600073ffffffffffffffffffffffffffffffffffffffff168573ffffffffffffffffffffffffffffffffffffffff1614612ad1576001600360008773ffffffffffffffffffffffffffffffffffffffff1673ffffffffffffffffffffffffffffffffffffffff168152602001908152602001600020600082825401925050819055505b846002600086815260200190815260200160002060006101000a81548173ffffffffffffffffffffffffffffffffffffffff021916908373ffffffffffffffffffffffffffffffffffffffff160217905550838573ffffffffffffffffffffffffffffffffffffffff168273ffffffffffffffffffffffffffffffffffffffff167fddf252ad1be2c89b69c2b068fc378daa952ba7f163c4a11628f55a4df523b3ef60405160405180910390a4809150509392505050565b6008805490506009600083815260200190815260200160002081905550600881908060018154018082558091505060019003906000526020600020016000909190919091505550565b6000612bdd8361126c565b9050600060076000848152602001908152602001600020549050818114612cc2576000600660008673ffffffffffffffffffffffffffffffffffffffff1673ffffffffffffffffffffffffffffffffffffffff168152602001908152602001600020600084815260200190815260200160002054905080600660008773ffffffffffffffffffffffffffffffffffffffff1673ffffffffffffffffffffffffffffffffffffffff168152602001908152602001600020600084815260200190815260200160002081905550816007600083815260200190815260200160002081905550505b6007600084815260200190815260200160002060009055600660008573ffffffffffffffffffffffffffffffffffffffff1673ffffffffffffffffffffffffffffffffffffffff16815260200190815260200160002060008381526020019081526020016000206000905550505050565b60006001600880549050612d4791906146cf565b9050600060096000848152602001908152602001600020549050600060088381548110612d7757612d76613c82565b5b906000526020600020015490508060088381548110612d9957612d98613c82565b5b906000526020600020018190555081600960008381526020019081526020016000208190555060096000858152602001908152602001600020600090556008805480612de857612de7614703565b5b6001900381819060005260206000200160009055905550505050565b60006001612e118461126c565b612e1b91906146cf565b905081600660008573ffffffffffffffffffffffffffffffffffffffff1673ffffffffffffffffffffffffffffffffffffffff168152602001908152602001600020600083815260200190815260200160002081905550806007600084815260200190815260200160002081905550505050565b612e9983836130c2565b612ea660008484846123ec565b505050565b600080600090507a184f03e93ff9f4daa797ed6e38ed64bf6a1f0100000000000000008310612f09577a184f03e93ff9f4daa797ed6e38ed64bf6a1f0100000000000000008381612eff57612efe613d22565b5b0492506040810190505b6d04ee2d6d415b85acef81000000008310612f46576d04ee2d6d415b85acef81000000008381612f3c57612f3b613d22565b5b0492506020810190505b662386f26fc100008310612f7557662386f26fc100008381612f6b57612f6a613d22565b5b0492506010810190505b6305f5e1008310612f9e576305f5e1008381612f9457612f93613d22565b5b0492506008810190505b6127108310612fc3576127108381612fb957612fb8613d22565b5b0492506004810190505b60648310612fe65760648381612fdc57612fdb613d22565b5b0492506002810190505b600a8310612ff5576001810190505b80915050919050565b6130098383836131bb565b6130bd57600073ffffffffffffffffffffffffffffffffffffffff168373ffffffffffffffffffffffffffffffffffffffff160361307e57806040517f7e27328900000000000000000000000000000000000000000000000000000000815260040161307591906136a5565b60405180910390fd5b81816040517f177e802f0000000000000000000000000000000000000000000000000000000081526004016130b4929190613c59565b60405180910390fd5b505050565b600073ffffffffffffffffffffffffffffffffffffffff168273ffffffffffffffffffffffffffffffffffffffff16036131345760006040517f64a0ae9200000000000000000000000000000000000000000000000000000000815260040161312b919061351c565b60405180910390fd5b600061314283836000612023565b9050600073ffffffffffffffffffffffffffffffffffffffff168173ffffffffffffffffffffffffffffffffffffffff16146131b65760006040517f73c6ac6e0000000000000000000000000000000000000000000000000000000081526004016131ad919061351c565b60405180910390fd5b505050565b60008073ffffffffffffffffffffffffffffffffffffffff168373ffffffffffffffffffffffffffffffffffffffff161415801561327357508273ffffffffffffffffffffffffffffffffffffffff168473ffffffffffffffffffffffffffffffffffffffff16148061323457506132338484611cc1565b5b8061327257508273ffffffffffffffffffffffffffffffffffffffff1661325a83611fcc565b73ffffffffffffffffffffffffffffffffffffffff16145b5b90509392505050565b6040518060600160405280600390602082028036833780820191505090505090565b6000604051905090565b600080fd5b600080fd5b60007fffffffff0000000000000000000000000000000000000000000000000000000082169050919050565b6132e7816132b2565b81146132f257600080fd5b50565b600081359050613304816132de565b92915050565b6000602082840312156133205761331f6132a8565b5b600061332e848285016132f5565b91505092915050565b60008115159050919050565b61334c81613337565b82525050565b60006020820190506133676000830184613343565b92915050565b61337681613337565b811461338157600080fd5b50565b6000813590506133938161336d565b92915050565b6000602082840312156133af576133ae6132a8565b5b60006133bd84828501613384565b91505092915050565b600081519050919050565b600082825260208201905092915050565b60005b838110156134005780820151818401526020810190506133e5565b60008484015250505050565b6000601f19601f8301169050919050565b6000613428826133c6565b61343281856133d1565b93506134428185602086016133e2565b61344b8161340c565b840191505092915050565b60006020820190508181036000830152613470818461341d565b905092915050565b6000819050919050565b61348b81613478565b811461349657600080fd5b50565b6000813590506134a881613482565b92915050565b6000602082840312156134c4576134c36132a8565b5b60006134d284828501613499565b91505092915050565b600073ffffffffffffffffffffffffffffffffffffffff82169050919050565b6000613506826134db565b9050919050565b613516816134fb565b82525050565b6000602082019050613531600083018461350d565b92915050565b613540816134fb565b811461354b57600080fd5b50565b60008135905061355d81613537565b92915050565b6000806040838503121561357a576135796132a8565b5b60006135888582860161354e565b925050602061359985828601613499565b9150509250929050565b600060039050919050565b600081905092915050565b6000819050919050565b6135cc81613337565b82525050565b60006135de83836135c3565b60208301905092915050565b6000602082019050919050565b613600816135a3565b61360a81846135ae565b9250613615826135b9565b8060005b8381101561364657815161362d87826135d2565b9650613638836135ea565b925050600181019050613619565b505050505050565b600060608201905061366360008301846135f7565b92915050565b60006020828403121561367f5761367e6132a8565b5b600061368d8482850161354e565b91505092915050565b61369f81613478565b82525050565b60006020820190506136ba6000830184613696565b92915050565b6000806000606084860312156136d9576136d86132a8565b5b60006136e78682870161354e565b93505060206136f88682870161354e565b925050604061370986828701613499565b9150509250925092565b600080fd5b600080fd5b600080fd5b60008083601f84011261373857613737613713565b5b8235905067ffffffffffffffff81111561375557613754613718565b5b6020830191508360208202830111156137715761377061371d565b5b9250929050565b6000806020838503121561378f5761378e6132a8565b5b600083013567ffffffffffffffff8111156137ad576137ac6132ad565b5b6137b985828601613722565b92509250509250929050565b600081519050919050565b600082825260208201905092915050565b6000819050602082019050919050565b6137fa81613478565b82525050565b600061380c83836137f1565b60208301905092915050565b6000602082019050919050565b6000613830826137c5565b61383a81856137d0565b9350613845836137e1565b8060005b8381101561387657815161385d8882613800565b975061386883613818565b925050600181019050613849565b5085935050505092915050565b6000602082019050818103600083015261389d8184613825565b905092915050565b600080fd5b7f4e487b7100000000000000000000000000000000000000000000000000000000600052604160045260246000fd5b6138e28261340c565b810181811067ffffffffffffffff82111715613901576139006138aa565b5b80604052505050565b600061391461329e565b905061392082826138d9565b919050565b600067ffffffffffffffff8211156139405761393f6138aa565b5b6139498261340c565b9050602081019050919050565b82818337600083830152505050565b600061397861397384613925565b61390a565b905082815260208101848484011115613994576139936138a5565b5b61399f848285613956565b509392505050565b600082601f8301126139bc576139bb613713565b5b81356139cc848260208601613965565b91505092915050565b6000602082840312156139eb576139ea6132a8565b5b600082013567ffffffffffffffff811115613a0957613a086132ad565b5b613a15848285016139a7565b91505092915050565b60008060408385031215613a3557613a346132a8565b5b6000613a438582860161354e565b9250506020613a5485828601613384565b9150509250929050565b600067ffffffffffffffff821115613a7957613a786138aa565b5b613a828261340c565b9050602081019050919050565b6000613aa2613a9d84613a5e565b61390a565b905082815260208101848484011115613abe57613abd6138a5565b5b613ac9848285613956565b509392505050565b600082601f830112613ae657613ae5613713565b5b8135613af6848260208601613a8f565b91505092915050565b60008060008060808587031215613b1957613b186132a8565b5b6000613b278782880161354e565b9450506020613b388782880161354e565b9350506040613b4987828801613499565b925050606085013567ffffffffffffffff811115613b6a57613b696132ad565b5b613b7687828801613ad1565b91505092959194509250565b60008060408385031215613b9957613b986132a8565b5b6000613ba78582860161354e565b9250506020613bb88582860161354e565b9150509250929050565b7f4e487b7100000000000000000000000000000000000000000000000000000000600052602260045260246000fd5b60006002820490506001821680613c0957607f821691505b602082108103613c1c57613c1b613bc2565b5b50919050565b6000606082019050613c37600083018661350d565b613c446020830185613696565b613c51604083018461350d565b949350505050565b6000604082019050613c6e600083018561350d565b613c7b6020830184613696565b9392505050565b7f4e487b7100000000000000000000000000000000000000000000000000000000600052603260045260246000fd5b7f4e487b7100000000000000000000000000000000000000000000000000000000600052601160045260246000fd5b6000613ceb82613478565b9150613cf683613478565b9250828202613d0481613478565b91508282048414831517613d1b57613d1a613cb1565b5b5092915050565b7f4e487b7100000000000000000000000000000000000000000000000000000000600052601260045260246000fd5b6000613d5c82613478565b9150613d6783613478565b925082613d7757613d76613d22565b5b828204905092915050565b600081905092915050565b50565b6000613d9d600083613d82565b9150613da882613d8d565b600082019050919050565b6000613dbe82613d90565b9150819050919050565b60008190508160005260206000209050919050565b60006020601f8301049050919050565b600082821b905092915050565b600060088302613e2a7fffffffffffffffffffffffffffffffffffffffffffffffffffffffffffffffff82613ded565b613e348683613ded565b95508019841693508086168417925050509392505050565b6000819050919050565b6000613e71613e6c613e6784613478565b613e4c565b613478565b9050919050565b6000819050919050565b613e8b83613e56565b613e9f613e9782613e78565b848454613dfa565b825550505050565b600090565b613eb4613ea7565b613ebf818484613e82565b505050565b5b81811015613ee357613ed8600082613eac565b600181019050613ec5565b5050565b601f821115613f2857613ef981613dc8565b613f0284613ddd565b81016020851015613f11578190505b613f25613f1d85613ddd565b830182613ec4565b50505b505050565b600082821c905092915050565b6000613f4b60001984600802613f2d565b1980831691505092915050565b6000613f648383613f3a565b9150826002028217905092915050565b613f7d826133c6565b67ffffffffffffffff811115613f9657613f956138aa565b5b613fa08254613bf1565b613fab828285613ee7565b600060209050601f831160018114613fde5760008415613fcc578287015190505b613fd68582613f58565b86555061403e565b601f198416613fec86613dc8565b60005b8281101561401457848901518255600182019150602085019450602081019050613fef565b86831015614031578489015161402d601f891682613f3a565b8355505b6001600288020188555050505b505050505050565b600061405182613478565b915061405c83613478565b925082820190508082111561407457614073613cb1565b5b92915050565b7f4d696e74696e672069732063757272656e746c79207061757365640000000000600082015250565b60006140b0601b836133d1565b91506140bb8261407a565b602082019050919050565b600060208201905081810360008301526140df816140a3565b9050919050565b7f4d696e7420616d6f756e74206d757374206265206d6f7265207468616e207a6560008201527f726f000000000000000000000000000000000000000000000000000000000000602082015250565b60006141426022836133d1565b915061414d826140e6565b604082019050919050565b6000602082019050818103600083015261417181614135565b9050919050565b7f4d617820737570706c7920726561636865640000000000000000000000000000600082015250565b60006141ae6012836133d1565b91506141b982614178565b602082019050919050565b600060208201905081810360008301526141dd816141a1565b9050919050565b7f496e73756666696369656e742066756e64730000000000000000000000000000600082015250565b600061421a6012836133d1565b9150614225826141e4565b602082019050919050565b600060208201905081810360008301526142498161420d565b9050919050565b7f4d696e74696e67206e6f74207374617274656400000000000000000000000000600082015250565b60006142866013836133d1565b915061429182614250565b602082019050919050565b600060208201905081810360008301526142b581614279565b9050919050565b7f596f7520617265206e6f742077686974656c6973746564000000000000000000600082015250565b60006142f26017836133d1565b91506142fd826142bc565b602082019050919050565b60006020820190508181036000830152614321816142e5565b9050919050565b7f574c204d696e74696e67206c696d697420657863656564656400000000000000600082015250565b600061435e6019836133d1565b915061436982614328565b602082019050919050565b6000602082019050818103600083015261438d81614351565b9050919050565b7f596f7520617265206e6f7420696e2046434653206c6973740000000000000000600082015250565b60006143ca6018836133d1565b91506143d582614394565b602082019050919050565b600060208201905081810360008301526143f9816143bd565b9050919050565b7f46434653204d696e74696e67206c696d69742065786365656465640000000000600082015250565b6000614436601b836133d1565b915061444182614400565b602082019050919050565b6000602082019050818103600083015261446581614429565b9050919050565b7f507562204d696e74696e67206c696d6974206578636565646564000000000000600082015250565b60006144a2601a836133d1565b91506144ad8261446c565b602082019050919050565b600060208201905081810360008301526144d181614495565b9050919050565b60006144e382613478565b91507fffffffffffffffffffffffffffffffffffffffffffffffffffffffffffffffff820361451557614514613cb1565b5b600182019050919050565b600081905092915050565b6000614536826133c6565b6145408185614520565b93506145508185602086016133e2565b80840191505092915050565b6000614568828561452b565b9150614574828461452b565b91508190509392505050565b7f5265656e7472616e637947756172643a207265656e7472616e742063616c6c00600082015250565b60006145b6601f836133d1565b91506145c182614580565b602082019050919050565b600060208201905081810360008301526145e5816145a9565b9050919050565b600081519050919050565b600082825260208201905092915050565b6000614613826145ec565b61461d81856145f7565b935061462d8185602086016133e2565b6146368161340c565b840191505092915050565b6000608082019050614656600083018761350d565b614663602083018661350d565b6146706040830185613696565b81810360608301526146828184614608565b905095945050505050565b60008151905061469c816132de565b92915050565b6000602082840312156146b8576146b76132a8565b5b60006146c68482850161468d565b91505092915050565b60006146da82613478565b91506146e583613478565b92508282039050818111156146fd576146fc613cb1565b5b92915050565b7f4e487b7100000000000000000000000000000000000000000000000000000000600052603160045260246000fdfea26469706673582212200d224a17c80cb86f58da39151831d56f66d3dc034cc56d42a34fb5acf614440e64736f6c63430008180033","opcodes":"PUSH1 0x80 PUSH1 0x40 MSTORE PUSH1 0x0 PUSH1 0xD PUSH1 0x0 PUSH2 0x100 EXP DUP2 SLOAD DUP2 PUSH1 0xFF MUL NOT AND SWAP1 DUP4 ISZERO ISZERO MUL OR SWAP1 SSTORE POP PUSH7 0x2C567E6ECC000 PUSH1 0x11 SSTORE PUSH2 0x2710 PUSH1 0x12 SSTORE CALLVALUE DUP1 ISZERO PUSH3 0x3D JUMPI PUSH1 0x0 DUP1 REVERT JUMPDEST POP PUSH1 0x40 MLOAD PUSH3 0x527C CODESIZE SUB DUP1 PUSH3 0x527C DUP4 CODECOPY DUP2 DUP2 ADD PUSH1 0x40 MSTORE DUP2 ADD SWAP1 PUSH3 0x63 SWAP2 SWAP1 PUSH3 0x557 JUMP JUMPDEST CALLER DUP8 DUP8 DUP2 PUSH1 0x0 SWAP1 DUP2 PUSH3 0x77 SWAP2 SWAP1 PUSH3 0x8A8 JUMP JUMPDEST POP DUP1 PUSH1 0x1 SWAP1 DUP2 PUSH3 0x89 SWAP2 SWAP1 PUSH3 0x8A8 JUMP JUMPDEST POP POP POP PUSH1 0x0 PUSH20 0xFFFFFFFFFFFFFFFFFFFFFFFFFFFFFFFFFFFFFFFF AND DUP2 PUSH20 0xFFFFFFFFFFFFFFFFFFFFFFFFFFFFFFFFFFFFFFFF AND SUB PUSH3 0x101 JUMPI PUSH1 0x0 PUSH1 0x40 MLOAD PUSH32 0x1E4FBDF700000000000000000000000000000000000000000000000000000000 DUP2 MSTORE PUSH1 0x4 ADD PUSH3 0xF8 SWAP2 SWAP1 PUSH3 0x9D4 JUMP JUMPDEST PUSH1 0x40 MLOAD DUP1 SWAP2 SUB SWAP1 REVERT JUMPDEST PUSH3 0x112 DUP2 PUSH3 0x1CA PUSH1 0x20 SHL PUSH1 0x20 SHR JUMP JUMPDEST POP PUSH1 0x1 PUSH1 0xB DUP2 SWAP1 SSTORE POP TIMESTAMP DUP2 GT PUSH3 0x160 JUMPI PUSH1 0x40 MLOAD PUSH32 0x8C379A000000000000000000000000000000000000000000000000000000000 DUP2 MSTORE PUSH1 0x4 ADD PUSH3 0x157 SWAP1 PUSH3 0xA78 JUMP JUMPDEST PUSH1 0x40 MLOAD DUP1 SWAP2 SUB SWAP1 REVERT JUMPDEST DUP4 PUSH1 0x13 DUP2 SWAP1 SSTORE POP DUP3 PUSH1 0x14 DUP2 SWAP1 SSTORE POP DUP2 PUSH1 0x15 DUP2 SWAP1 SSTORE POP DUP1 PUSH1 0xE DUP2 SWAP1 SSTORE POP PUSH2 0x5460 PUSH1 0xE SLOAD PUSH3 0x18E SWAP2 SWAP1 PUSH3 0xAC9 JUMP JUMPDEST PUSH1 0xF DUP2 SWAP1 SSTORE POP PUSH2 0x5460 PUSH1 0xF SLOAD PUSH3 0x1A6 SWAP2 SWAP1 PUSH3 0xAC9 JUMP JUMPDEST PUSH1 0x10 DUP2 SWAP1 SSTORE POP PUSH3 0x1BD DUP6 PUSH3 0x290 PUSH1 0x20 SHL PUSH1 0x20 SHR JUMP JUMPDEST POP POP POP POP POP POP POP PUSH3 0xB04 JUMP JUMPDEST PUSH1 0x0 PUSH1 0xA PUSH1 0x0 SWAP1 SLOAD SWAP1 PUSH2 0x100 EXP SWAP1 DIV PUSH20 0xFFFFFFFFFFFFFFFFFFFFFFFFFFFFFFFFFFFFFFFF AND SWAP1 POP DUP2 PUSH1 0xA PUSH1 0x0 PUSH2 0x100 EXP DUP2 SLOAD DUP2 PUSH20 0xFFFFFFFFFFFFFFFFFFFFFFFFFFFFFFFFFFFFFFFF MUL NOT AND SWAP1 DUP4 PUSH20 0xFFFFFFFFFFFFFFFFFFFFFFFFFFFFFFFFFFFFFFFF AND MUL OR SWAP1 SSTORE POP DUP2 PUSH20 0xFFFFFFFFFFFFFFFFFFFFFFFFFFFFFFFFFFFFFFFF AND DUP2 PUSH20 0xFFFFFFFFFFFFFFFFFFFFFFFFFFFFFFFFFFFFFFFF AND PUSH32 0x8BE0079C531659141344CD1FD0A4F28419497F9722A3DAAFE3B4186F6B6457E0 PUSH1 0x40 MLOAD PUSH1 0x40 MLOAD DUP1 SWAP2 SUB SWAP1 LOG3 POP POP JUMP JUMPDEST PUSH3 0x2A0 PUSH3 0x2B5 PUSH1 0x20 SHL PUSH1 0x20 SHR JUMP JUMPDEST DUP1 PUSH1 0xC SWAP1 DUP2 PUSH3 0x2B1 SWAP2 SWAP1 PUSH3 0x8A8 JUMP JUMPDEST POP POP JUMP JUMPDEST PUSH3 0x2C5 PUSH3 0x357 PUSH1 0x20 SHL PUSH1 0x20 SHR JUMP JUMPDEST PUSH20 0xFFFFFFFFFFFFFFFFFFFFFFFFFFFFFFFFFFFFFFFF AND PUSH3 0x2EB PUSH3 0x35F PUSH1 0x20 SHL PUSH1 0x20 SHR JUMP JUMPDEST PUSH20 0xFFFFFFFFFFFFFFFFFFFFFFFFFFFFFFFFFFFFFFFF AND EQ PUSH3 0x355 JUMPI PUSH3 0x317 PUSH3 0x357 PUSH1 0x20 SHL PUSH1 0x20 SHR JUMP JUMPDEST PUSH1 0x40 MLOAD PUSH32 0x118CDAA700000000000000000000000000000000000000000000000000000000 DUP2 MSTORE PUSH1 0x4 ADD PUSH3 0x34C SWAP2 SWAP1 PUSH3 0x9D4 JUMP JUMPDEST PUSH1 0x40 MLOAD DUP1 SWAP2 SUB SWAP1 REVERT JUMPDEST JUMP JUMPDEST PUSH1 0x0 CALLER SWAP1 POP SWAP1 JUMP JUMPDEST PUSH1 0x0 PUSH1 0xA PUSH1 0x0 SWAP1 SLOAD SWAP1 PUSH2 0x100 EXP SWAP1 DIV PUSH20 0xFFFFFFFFFFFFFFFFFFFFFFFFFFFFFFFFFFFFFFFF AND SWAP1 POP SWAP1 JUMP JUMPDEST PUSH1 0x0 PUSH1 0x40 MLOAD SWAP1 POP SWAP1 JUMP JUMPDEST PUSH1 0x0 DUP1 REVERT JUMPDEST PUSH1 0x0 DUP1 REVERT JUMPDEST PUSH1 0x0 DUP1 REVERT JUMPDEST PUSH1 0x0 DUP1 REVERT JUMPDEST PUSH1 0x0 PUSH1 0x1F NOT PUSH1 0x1F DUP4 ADD AND SWAP1 POP SWAP2 SWAP1 POP JUMP JUMPDEST PUSH32 0x4E487B7100000000000000000000000000000000000000000000000000000000 PUSH1 0x0 MSTORE PUSH1 0x41 PUSH1 0x4 MSTORE PUSH1 0x24 PUSH1 0x0 REVERT JUMPDEST PUSH3 0x3F2 DUP3 PUSH3 0x3A7 JUMP JUMPDEST DUP2 ADD DUP2 DUP2 LT PUSH8 0xFFFFFFFFFFFFFFFF DUP3 GT OR ISZERO PUSH3 0x414 JUMPI PUSH3 0x413 PUSH3 0x3B8 JUMP JUMPDEST JUMPDEST DUP1 PUSH1 0x40 MSTORE POP POP POP JUMP JUMPDEST PUSH1 0x0 PUSH3 0x429 PUSH3 0x389 JUMP JUMPDEST SWAP1 POP PUSH3 0x437 DUP3 DUP3 PUSH3 0x3E7 JUMP JUMPDEST SWAP2 SWAP1 POP JUMP JUMPDEST PUSH1 0x0 PUSH8 0xFFFFFFFFFFFFFFFF DUP3 GT ISZERO PUSH3 0x45A JUMPI PUSH3 0x459 PUSH3 0x3B8 JUMP JUMPDEST JUMPDEST PUSH3 0x465 DUP3 PUSH3 0x3A7 JUMP JUMPDEST SWAP1 POP PUSH1 0x20 DUP2 ADD SWAP1 POP SWAP2 SWAP1 POP JUMP JUMPDEST PUSH1 0x0 JUMPDEST DUP4 DUP2 LT ISZERO PUSH3 0x492 JUMPI DUP1 DUP3 ADD MLOAD DUP2 DUP5 ADD MSTORE PUSH1 0x20 DUP2 ADD SWAP1 POP PUSH3 0x475 JUMP JUMPDEST PUSH1 0x0 DUP5 DUP5 ADD MSTORE POP POP POP POP JUMP JUMPDEST PUSH1 0x0 PUSH3 0x4B5 PUSH3 0x4AF DUP5 PUSH3 0x43C JUMP JUMPDEST PUSH3 0x41D JUMP JUMPDEST SWAP1 POP DUP3 DUP2 MSTORE PUSH1 0x20 DUP2 ADD DUP5 DUP5 DUP5 ADD GT ISZERO PUSH3 0x4D4 JUMPI PUSH3 0x4D3 PUSH3 0x3A2 JUMP JUMPDEST JUMPDEST PUSH3 0x4E1 DUP5 DUP3 DUP6 PUSH3 0x472 JUMP JUMPDEST POP SWAP4 SWAP3 POP POP POP JUMP JUMPDEST PUSH1 0x0 DUP3 PUSH1 0x1F DUP4 ADD SLT PUSH3 0x501 JUMPI PUSH3 0x500 PUSH3 0x39D JUMP JUMPDEST JUMPDEST DUP2 MLOAD PUSH3 0x513 DUP5 DUP3 PUSH1 0x20 DUP7 ADD PUSH3 0x49E JUMP JUMPDEST SWAP2 POP POP SWAP3 SWAP2 POP POP JUMP JUMPDEST PUSH1 0x0 DUP2 SWAP1 POP SWAP2 SWAP1 POP JUMP JUMPDEST PUSH3 0x531 DUP2 PUSH3 0x51C JUMP JUMPDEST DUP2 EQ PUSH3 0x53D JUMPI PUSH1 0x0 DUP1 REVERT JUMPDEST POP JUMP JUMPDEST PUSH1 0x0 DUP2 MLOAD SWAP1 POP PUSH3 0x551 DUP2 PUSH3 0x526 JUMP JUMPDEST SWAP3 SWAP2 POP POP JUMP JUMPDEST PUSH1 0x0 DUP1 PUSH1 0x0 DUP1 PUSH1 0x0 DUP1 PUSH1 0x0 PUSH1 0xE0 DUP9 DUP11 SUB SLT ISZERO PUSH3 0x579 JUMPI PUSH3 0x578 PUSH3 0x393 JUMP JUMPDEST JUMPDEST PUSH1 0x0 DUP9 ADD MLOAD PUSH8 0xFFFFFFFFFFFFFFFF DUP2 GT ISZERO PUSH3 0x59A JUMPI PUSH3 0x599 PUSH3 0x398 JUMP JUMPDEST JUMPDEST PUSH3 0x5A8 DUP11 DUP3 DUP12 ADD PUSH3 0x4E9 JUMP JUMPDEST SWAP8 POP POP PUSH1 0x20 DUP9 ADD MLOAD PUSH8 0xFFFFFFFFFFFFFFFF DUP2 GT ISZERO PUSH3 0x5CC JUMPI PUSH3 0x5CB PUSH3 0x398 JUMP JUMPDEST JUMPDEST PUSH3 0x5DA DUP11 DUP3 DUP12 ADD PUSH3 0x4E9 JUMP JUMPDEST SWAP7 POP POP PUSH1 0x40 DUP9 ADD MLOAD PUSH8 0xFFFFFFFFFFFFFFFF DUP2 GT ISZERO PUSH3 0x5FE JUMPI PUSH3 0x5FD PUSH3 0x398 JUMP JUMPDEST JUMPDEST PUSH3 0x60C DUP11 DUP3 DUP12 ADD PUSH3 0x4E9 JUMP JUMPDEST SWAP6 POP POP PUSH1 0x60 PUSH3 0x61F DUP11 DUP3 DUP12 ADD PUSH3 0x540 JUMP JUMPDEST SWAP5 POP POP PUSH1 0x80 PUSH3 0x632 DUP11 DUP3 DUP12 ADD PUSH3 0x540 JUMP JUMPDEST SWAP4 POP POP PUSH1 0xA0 PUSH3 0x645 DUP11 DUP3 DUP12 ADD PUSH3 0x540 JUMP JUMPDEST SWAP3 POP POP PUSH1 0xC0 PUSH3 0x658 DUP11 DUP3 DUP12 ADD PUSH3 0x540 JUMP JUMPDEST SWAP2 POP POP SWAP3 SWAP6 SWAP9 SWAP2 SWAP5 SWAP8 POP SWAP3 SWAP6 POP JUMP JUMPDEST PUSH1 0x0 DUP2 MLOAD SWAP1 POP SWAP2 SWAP1 POP JUMP JUMPDEST PUSH32 0x4E487B7100000000000000000000000000000000000000000000000000000000 PUSH1 0x0 MSTORE PUSH1 0x22 PUSH1 0x4 MSTORE PUSH1 0x24 PUSH1 0x0 REVERT JUMPDEST PUSH1 0x0 PUSH1 0x2 DUP3 DIV SWAP1 POP PUSH1 0x1 DUP3 AND DUP1 PUSH3 0x6BA JUMPI PUSH1 0x7F DUP3 AND SWAP2 POP JUMPDEST PUSH1 0x20 DUP3 LT DUP2 SUB PUSH3 0x6D0 JUMPI PUSH3 0x6CF PUSH3 0x672 JUMP JUMPDEST JUMPDEST POP SWAP2 SWAP1 POP JUMP JUMPDEST PUSH1 0x0 DUP2 SWAP1 POP DUP2 PUSH1 0x0 MSTORE PUSH1 0x20 PUSH1 0x0 KECCAK256 SWAP1 POP SWAP2 SWAP1 POP JUMP JUMPDEST PUSH1 0x0 PUSH1 0x20 PUSH1 0x1F DUP4 ADD DIV SWAP1 POP SWAP2 SWAP1 POP JUMP JUMPDEST PUSH1 0x0 DUP3 DUP3 SHL SWAP1 POP SWAP3 SWAP2 POP POP JUMP JUMPDEST PUSH1 0x0 PUSH1 0x8 DUP4 MUL PUSH3 0x73A PUSH32 0xFFFFFFFFFFFFFFFFFFFFFFFFFFFFFFFFFFFFFFFFFFFFFFFFFFFFFFFFFFFFFFFF DUP3 PUSH3 0x6FB JUMP JUMPDEST PUSH3 0x746 DUP7 DUP4 PUSH3 0x6FB JUMP JUMPDEST SWAP6 POP DUP1 NOT DUP5 AND SWAP4 POP DUP1 DUP7 AND DUP5 OR SWAP3 POP POP POP SWAP4 SWAP3 POP POP POP JUMP JUMPDEST PUSH1 0x0 DUP2 SWAP1 POP SWAP2 SWAP1 POP JUMP JUMPDEST PUSH1 0x0 PUSH3 0x789 PUSH3 0x783 PUSH3 0x77D DUP5 PUSH3 0x51C JUMP JUMPDEST PUSH3 0x75E JUMP JUMPDEST PUSH3 0x51C JUMP JUMPDEST SWAP1 POP SWAP2 SWAP1 POP JUMP JUMPDEST PUSH1 0x0 DUP2 SWAP1 POP SWAP2 SWAP1 POP JUMP JUMPDEST PUSH3 0x7A5 DUP4 PUSH3 0x768 JUMP JUMPDEST PUSH3 0x7BD PUSH3 0x7B4 DUP3 PUSH3 0x790 JUMP JUMPDEST DUP5 DUP5 SLOAD PUSH3 0x708 JUMP JUMPDEST DUP3 SSTORE POP POP POP POP JUMP JUMPDEST PUSH1 0x0 SWAP1 JUMP JUMPDEST PUSH3 0x7D4 PUSH3 0x7C5 JUMP JUMPDEST PUSH3 0x7E1 DUP2 DUP5 DUP5 PUSH3 0x79A JUMP JUMPDEST POP POP POP JUMP JUMPDEST JUMPDEST DUP2 DUP2 LT ISZERO PUSH3 0x809 JUMPI PUSH3 0x7FD PUSH1 0x0 DUP3 PUSH3 0x7CA JUMP JUMPDEST PUSH1 0x1 DUP2 ADD SWAP1 POP PUSH3 0x7E7 JUMP JUMPDEST POP POP JUMP JUMPDEST PUSH1 0x1F DUP3 GT ISZERO PUSH3 0x858 JUMPI PUSH3 0x822 DUP2 PUSH3 0x6D6 JUMP JUMPDEST PUSH3 0x82D DUP5 PUSH3 0x6EB JUMP JUMPDEST DUP2 ADD PUSH1 0x20 DUP6 LT ISZERO PUSH3 0x83D JUMPI DUP2 SWAP1 POP JUMPDEST PUSH3 0x855 PUSH3 0x84C DUP6 PUSH3 0x6EB JUMP JUMPDEST DUP4 ADD DUP3 PUSH3 0x7E6 JUMP JUMPDEST POP POP JUMPDEST POP POP POP JUMP JUMPDEST PUSH1 0x0 DUP3 DUP3 SHR SWAP1 POP SWAP3 SWAP2 POP POP JUMP JUMPDEST PUSH1 0x0 PUSH3 0x87D PUSH1 0x0 NOT DUP5 PUSH1 0x8 MUL PUSH3 0x85D JUMP JUMPDEST NOT DUP1 DUP4 AND SWAP2 POP POP SWAP3 SWAP2 POP POP JUMP JUMPDEST PUSH1 0x0 PUSH3 0x898 DUP4 DUP4 PUSH3 0x86A JUMP JUMPDEST SWAP2 POP DUP3 PUSH1 0x2 MUL DUP3 OR SWAP1 POP SWAP3 SWAP2 POP POP JUMP JUMPDEST PUSH3 0x8B3 DUP3 PUSH3 0x667 JUMP JUMPDEST PUSH8 0xFFFFFFFFFFFFFFFF DUP2 GT ISZERO PUSH3 0x8CF JUMPI PUSH3 0x8CE PUSH3 0x3B8 JUMP JUMPDEST JUMPDEST PUSH3 0x8DB DUP3 SLOAD PUSH3 0x6A1 JUMP JUMPDEST PUSH3 0x8E8 DUP3 DUP3 DUP6 PUSH3 0x80D JUMP JUMPDEST PUSH1 0x0 PUSH1 0x20 SWAP1 POP PUSH1 0x1F DUP4 GT PUSH1 0x1 DUP2 EQ PUSH3 0x920 JUMPI PUSH1 0x0 DUP5 ISZERO PUSH3 0x90B JUMPI DUP3 DUP8 ADD MLOAD SWAP1 POP JUMPDEST PUSH3 0x917 DUP6 DUP3 PUSH3 0x88A JUMP JUMPDEST DUP7 SSTORE POP PUSH3 0x987 JUMP JUMPDEST PUSH1 0x1F NOT DUP5 AND PUSH3 0x930 DUP7 PUSH3 0x6D6 JUMP JUMPDEST PUSH1 0x0 JUMPDEST DUP3 DUP2 LT ISZERO PUSH3 0x95A JUMPI DUP5 DUP10 ADD MLOAD DUP3 SSTORE PUSH1 0x1 DUP3 ADD SWAP2 POP PUSH1 0x20 DUP6 ADD SWAP5 POP PUSH1 0x20 DUP2 ADD SWAP1 POP PUSH3 0x933 JUMP JUMPDEST DUP7 DUP4 LT ISZERO PUSH3 0x97A JUMPI DUP5 DUP10 ADD MLOAD PUSH3 0x976 PUSH1 0x1F DUP10 AND DUP3 PUSH3 0x86A JUMP JUMPDEST DUP4 SSTORE POP JUMPDEST PUSH1 0x1 PUSH1 0x2 DUP9 MUL ADD DUP9 SSTORE POP POP POP JUMPDEST POP POP POP POP POP POP JUMP JUMPDEST PUSH1 0x0 PUSH20 0xFFFFFFFFFFFFFFFFFFFFFFFFFFFFFFFFFFFFFFFF DUP3 AND SWAP1 POP SWAP2 SWAP1 POP JUMP JUMPDEST PUSH1 0x0 PUSH3 0x9BC DUP3 PUSH3 0x98F JUMP JUMPDEST SWAP1 POP SWAP2 SWAP1 POP JUMP JUMPDEST PUSH3 0x9CE DUP2 PUSH3 0x9AF JUMP JUMPDEST DUP3 MSTORE POP POP JUMP JUMPDEST PUSH1 0x0 PUSH1 0x20 DUP3 ADD SWAP1 POP PUSH3 0x9EB PUSH1 0x0 DUP4 ADD DUP5 PUSH3 0x9C3 JUMP JUMPDEST SWAP3 SWAP2 POP POP JUMP JUMPDEST PUSH1 0x0 DUP3 DUP3 MSTORE PUSH1 0x20 DUP3 ADD SWAP1 POP SWAP3 SWAP2 POP POP JUMP JUMPDEST PUSH32 0x57686974656C6973742073746172742074696D65206973206C65737320746861 PUSH1 0x0 DUP3 ADD MSTORE PUSH32 0x742063757272656E742054696D657374616D7000000000000000000000000000 PUSH1 0x20 DUP3 ADD MSTORE POP JUMP JUMPDEST PUSH1 0x0 PUSH3 0xA60 PUSH1 0x33 DUP4 PUSH3 0x9F1 JUMP JUMPDEST SWAP2 POP PUSH3 0xA6D DUP3 PUSH3 0xA02 JUMP JUMPDEST PUSH1 0x40 DUP3 ADD SWAP1 POP SWAP2 SWAP1 POP JUMP JUMPDEST PUSH1 0x0 PUSH1 0x20 DUP3 ADD SWAP1 POP DUP2 DUP2 SUB PUSH1 0x0 DUP4 ADD MSTORE PUSH3 0xA93 DUP2 PUSH3 0xA51 JUMP JUMPDEST SWAP1 POP SWAP2 SWAP1 POP JUMP JUMPDEST PUSH32 0x4E487B7100000000000000000000000000000000000000000000000000000000 PUSH1 0x0 MSTORE PUSH1 0x11 PUSH1 0x4 MSTORE PUSH1 0x24 PUSH1 0x0 REVERT JUMPDEST PUSH1 0x0 PUSH3 0xAD6 DUP3 PUSH3 0x51C JUMP JUMPDEST SWAP2 POP PUSH3 0xAE3 DUP4 PUSH3 0x51C JUMP JUMPDEST SWAP3 POP DUP3 DUP3 ADD SWAP1 POP DUP1 DUP3 GT ISZERO PUSH3 0xAFE JUMPI PUSH3 0xAFD PUSH3 0xA9A JUMP JUMPDEST JUMPDEST SWAP3 SWAP2 POP POP JUMP JUMPDEST PUSH2 0x4768 DUP1 PUSH3 0xB14 PUSH1 0x0 CODECOPY PUSH1 0x0 RETURN INVALID PUSH1 0x80 PUSH1 0x40 MSTORE PUSH1 0x4 CALLDATASIZE LT PUSH2 0x276 JUMPI PUSH1 0x0 CALLDATALOAD PUSH1 0xE0 SHR DUP1 PUSH4 0x6352211E GT PUSH2 0x14F JUMPI DUP1 PUSH4 0xA4331D2D GT PUSH2 0xC1 JUMPI DUP1 PUSH4 0xC87B56DD GT PUSH2 0x7A JUMPI DUP1 PUSH4 0xC87B56DD EQ PUSH2 0x979 JUMPI DUP1 PUSH4 0xC896D7D8 EQ PUSH2 0x9B6 JUMPI DUP1 PUSH4 0xCC0895CF EQ PUSH2 0x9F3 JUMPI DUP1 PUSH4 0xD5ABEB01 EQ PUSH2 0xA1C JUMPI DUP1 PUSH4 0xE985E9C5 EQ PUSH2 0xA47 JUMPI DUP1 PUSH4 0xF2FDE38B EQ PUSH2 0xA84 JUMPI PUSH2 0x27D JUMP JUMPDEST DUP1 PUSH4 0xA4331D2D EQ PUSH2 0x867 JUMPI DUP1 PUSH4 0xAC2F396E EQ PUSH2 0x892 JUMPI DUP1 PUSH4 0xB60F7F58 EQ PUSH2 0x8BD JUMPI DUP1 PUSH4 0xB88D4FDE EQ PUSH2 0x8FA JUMPI DUP1 PUSH4 0xBE9FEB30 EQ PUSH2 0x923 JUMPI DUP1 PUSH4 0xC39887F5 EQ PUSH2 0x94E JUMPI PUSH2 0x27D JUMP JUMPDEST DUP1 PUSH4 0x8DA5CB5B GT PUSH2 0x113 JUMPI DUP1 PUSH4 0x8DA5CB5B EQ PUSH2 0x752 JUMPI DUP1 PUSH4 0x95D89B41 EQ PUSH2 0x77D JUMPI DUP1 PUSH4 0x98A8CFFE EQ PUSH2 0x7A8 JUMPI DUP1 PUSH4 0x9B19251A EQ PUSH2 0x7E5 JUMPI DUP1 PUSH4 0xA0712D68 EQ PUSH2 0x822 JUMPI DUP1 PUSH4 0xA22CB465 EQ PUSH2 0x83E JUMPI PUSH2 0x27D JUMP JUMPDEST DUP1 PUSH4 0x6352211E EQ PUSH2 0x66F JUMPI DUP1 PUSH4 0x70A08231 EQ PUSH2 0x6AC JUMPI DUP1 PUSH4 0x715018A6 EQ PUSH2 0x6E9 JUMPI DUP1 PUSH4 0x7F649783 EQ PUSH2 0x700 JUMPI DUP1 PUSH4 0x8AA5B2C3 EQ PUSH2 0x729 JUMPI PUSH2 0x27D JUMP JUMPDEST DUP1 PUSH4 0x302150E5 GT PUSH2 0x1E8 JUMPI DUP1 PUSH4 0x44A0D68A GT PUSH2 0x1AC JUMPI DUP1 PUSH4 0x44A0D68A EQ PUSH2 0x561 JUMPI DUP1 PUSH4 0x47A54148 EQ PUSH2 0x58A JUMPI DUP1 PUSH4 0x4F6CCCE7 EQ PUSH2 0x5B5 JUMPI DUP1 PUSH4 0x548DB174 EQ PUSH2 0x5F2 JUMPI DUP1 PUSH4 0x55F804B3 EQ PUSH2 0x61B JUMPI DUP1 PUSH4 0x5C975ABB EQ PUSH2 0x644 JUMPI PUSH2 0x27D JUMP JUMPDEST DUP1 PUSH4 0x302150E5 EQ PUSH2 0x49D JUMPI DUP1 PUSH4 0x3823BB55 EQ PUSH2 0x4C8 JUMPI DUP1 PUSH4 0x3CCFD60B EQ PUSH2 0x4F1 JUMPI DUP1 PUSH4 0x42842E0E EQ PUSH2 0x4FB JUMPI DUP1 PUSH4 0x438B6300 EQ PUSH2 0x524 JUMPI PUSH2 0x27D JUMP JUMPDEST DUP1 PUSH4 0xA93268B GT PUSH2 0x23A JUMPI DUP1 PUSH4 0xA93268B EQ PUSH2 0x379 JUMPI DUP1 PUSH4 0x1015805B EQ PUSH2 0x3A4 JUMPI DUP1 PUSH4 0x13FAEDE6 EQ PUSH2 0x3E1 JUMPI DUP1 PUSH4 0x18160DDD EQ PUSH2 0x40C JUMPI DUP1 PUSH4 0x23B872DD EQ PUSH2 0x437 JUMPI DUP1 PUSH4 0x2F745C59 EQ PUSH2 0x460 JUMPI PUSH2 0x27D JUMP JUMPDEST DUP1 PUSH4 0x1FFC9A7 EQ PUSH2 0x282 JUMPI DUP1 PUSH4 0x2329A29 EQ PUSH2 0x2BF JUMPI DUP1 PUSH4 0x6FDDE03 EQ PUSH2 0x2E8 JUMPI DUP1 PUSH4 0x81812FC EQ PUSH2 0x313 JUMPI DUP1 PUSH4 0x95EA7B3 EQ PUSH2 0x350 JUMPI PUSH2 0x27D JUMP JUMPDEST CALLDATASIZE PUSH2 0x27D JUMPI STOP JUMPDEST PUSH1 0x0 DUP1 REVERT JUMPDEST CALLVALUE DUP1 ISZERO PUSH2 0x28E JUMPI PUSH1 0x0 DUP1 REVERT JUMPDEST POP PUSH2 0x2A9 PUSH1 0x4 DUP1 CALLDATASIZE SUB DUP2 ADD SWAP1 PUSH2 0x2A4 SWAP2 SWAP1 PUSH2 0x330A JUMP JUMPDEST PUSH2 0xAAD JUMP JUMPDEST PUSH1 0x40 MLOAD PUSH2 0x2B6 SWAP2 SWAP1 PUSH2 0x3352 JUMP JUMPDEST PUSH1 0x40 MLOAD DUP1 SWAP2 SUB SWAP1 RETURN JUMPDEST CALLVALUE DUP1 ISZERO PUSH2 0x2CB JUMPI PUSH1 0x0 DUP1 REVERT JUMPDEST POP PUSH2 0x2E6 PUSH1 0x4 DUP1 CALLDATASIZE SUB DUP2 ADD SWAP1 PUSH2 0x2E1 SWAP2 SWAP1 PUSH2 0x3399 JUMP JUMPDEST PUSH2 0xB27 JUMP JUMPDEST STOP JUMPDEST CALLVALUE DUP1 ISZERO PUSH2 0x2F4 JUMPI PUSH1 0x0 DUP1 REVERT JUMPDEST POP PUSH2 0x2FD PUSH2 0xB4C JUMP JUMPDEST PUSH1 0x40 MLOAD PUSH2 0x30A SWAP2 SWAP1 PUSH2 0x3456 JUMP JUMPDEST PUSH1 0x40 MLOAD DUP1 SWAP2 SUB SWAP1 RETURN JUMPDEST CALLVALUE DUP1 ISZERO PUSH2 0x31F JUMPI PUSH1 0x0 DUP1 REVERT JUMPDEST POP PUSH2 0x33A PUSH1 0x4 DUP1 CALLDATASIZE SUB DUP2 ADD SWAP1 PUSH2 0x335 SWAP2 SWAP1 PUSH2 0x34AE JUMP JUMPDEST PUSH2 0xBDE JUMP JUMPDEST PUSH1 0x40 MLOAD PUSH2 0x347 SWAP2 SWAP1 PUSH2 0x351C JUMP JUMPDEST PUSH1 0x40 MLOAD DUP1 SWAP2 SUB SWAP1 RETURN JUMPDEST CALLVALUE DUP1 ISZERO PUSH2 0x35C JUMPI PUSH1 0x0 DUP1 REVERT JUMPDEST POP PUSH2 0x377 PUSH1 0x4 DUP1 CALLDATASIZE SUB DUP2 ADD SWAP1 PUSH2 0x372 SWAP2 SWAP1 PUSH2 0x3563 JUMP JUMPDEST PUSH2 0xBFA JUMP JUMPDEST STOP JUMPDEST CALLVALUE DUP1 ISZERO PUSH2 0x385 JUMPI PUSH1 0x0 DUP1 REVERT JUMPDEST POP PUSH2 0x38E PUSH2 0xC10 JUMP JUMPDEST PUSH1 0x40 MLOAD PUSH2 0x39B SWAP2 SWAP1 PUSH2 0x364E JUMP JUMPDEST PUSH1 0x40 MLOAD DUP1 SWAP2 SUB SWAP1 RETURN JUMPDEST CALLVALUE DUP1 ISZERO PUSH2 0x3B0 JUMPI PUSH1 0x0 DUP1 REVERT JUMPDEST POP PUSH2 0x3CB PUSH1 0x4 DUP1 CALLDATASIZE SUB DUP2 ADD SWAP1 PUSH2 0x3C6 SWAP2 SWAP1 PUSH2 0x3669 JUMP JUMPDEST PUSH2 0xC7F JUMP JUMPDEST PUSH1 0x40 MLOAD PUSH2 0x3D8 SWAP2 SWAP1 PUSH2 0x36A5 JUMP JUMPDEST PUSH1 0x40 MLOAD DUP1 SWAP2 SUB SWAP1 RETURN JUMPDEST CALLVALUE DUP1 ISZERO PUSH2 0x3ED JUMPI PUSH1 0x0 DUP1 REVERT JUMPDEST POP PUSH2 0x3F6 PUSH2 0xC97 JUMP JUMPDEST PUSH1 0x40 MLOAD PUSH2 0x403 SWAP2 SWAP1 PUSH2 0x36A5 JUMP JUMPDEST PUSH1 0x40 MLOAD DUP1 SWAP2 SUB SWAP1 RETURN JUMPDEST CALLVALUE DUP1 ISZERO PUSH2 0x418 JUMPI PUSH1 0x0 DUP1 REVERT JUMPDEST POP PUSH2 0x421 PUSH2 0xC9D JUMP JUMPDEST PUSH1 0x40 MLOAD PUSH2 0x42E SWAP2 SWAP1 PUSH2 0x36A5 JUMP JUMPDEST PUSH1 0x40 MLOAD DUP1 SWAP2 SUB SWAP1 RETURN JUMPDEST CALLVALUE DUP1 ISZERO PUSH2 0x443 JUMPI PUSH1 0x0 DUP1 REVERT JUMPDEST POP PUSH2 0x45E PUSH1 0x4 DUP1 CALLDATASIZE SUB DUP2 ADD SWAP1 PUSH2 0x459 SWAP2 SWAP1 PUSH2 0x36C0 JUMP JUMPDEST PUSH2 0xCAA JUMP JUMPDEST STOP JUMPDEST CALLVALUE DUP1 ISZERO PUSH2 0x46C JUMPI PUSH1 0x0 DUP1 REVERT JUMPDEST POP PUSH2 0x487 PUSH1 0x4 DUP1 CALLDATASIZE SUB DUP2 ADD SWAP1 PUSH2 0x482 SWAP2 SWAP1 PUSH2 0x3563 JUMP JUMPDEST PUSH2 0xDAC JUMP JUMPDEST PUSH1 0x40 MLOAD PUSH2 0x494 SWAP2 SWAP1 PUSH2 0x36A5 JUMP JUMPDEST PUSH1 0x40 MLOAD DUP1 SWAP2 SUB SWAP1 RETURN JUMPDEST CALLVALUE DUP1 ISZERO PUSH2 0x4A9 JUMPI PUSH1 0x0 DUP1 REVERT JUMPDEST POP PUSH2 0x4B2 PUSH2 0xE55 JUMP JUMPDEST PUSH1 0x40 MLOAD PUSH2 0x4BF SWAP2 SWAP1 PUSH2 0x36A5 JUMP JUMPDEST PUSH1 0x40 MLOAD DUP1 SWAP2 SUB SWAP1 RETURN JUMPDEST CALLVALUE DUP1 ISZERO PUSH2 0x4D4 JUMPI PUSH1 0x0 DUP1 REVERT JUMPDEST POP PUSH2 0x4EF PUSH1 0x4 DUP1 CALLDATASIZE SUB DUP2 ADD SWAP1 PUSH2 0x4EA SWAP2 SWAP1 PUSH2 0x3778 JUMP JUMPDEST PUSH2 0xE5B JUMP JUMPDEST STOP JUMPDEST PUSH2 0x4F9 PUSH2 0xF00 JUMP JUMPDEST STOP JUMPDEST CALLVALUE DUP1 ISZERO PUSH2 0x507 JUMPI PUSH1 0x0 DUP1 REVERT JUMPDEST POP PUSH2 0x522 PUSH1 0x4 DUP1 CALLDATASIZE SUB DUP2 ADD SWAP1 PUSH2 0x51D SWAP2 SWAP1 PUSH2 0x36C0 JUMP JUMPDEST PUSH2 0x1031 JUMP JUMPDEST STOP JUMPDEST CALLVALUE DUP1 ISZERO PUSH2 0x530 JUMPI PUSH1 0x0 DUP1 REVERT JUMPDEST POP PUSH2 0x54B PUSH1 0x4 DUP1 CALLDATASIZE SUB DUP2 ADD SWAP1 PUSH2 0x546 SWAP2 SWAP1 PUSH2 0x3669 JUMP JUMPDEST PUSH2 0x1051 JUMP JUMPDEST PUSH1 0x40 MLOAD PUSH2 0x558 SWAP2 SWAP1 PUSH2 0x3883 JUMP JUMPDEST PUSH1 0x40 MLOAD DUP1 SWAP2 SUB SWAP1 RETURN JUMPDEST CALLVALUE DUP1 ISZERO PUSH2 0x56D JUMPI PUSH1 0x0 DUP1 REVERT JUMPDEST POP PUSH2 0x588 PUSH1 0x4 DUP1 CALLDATASIZE SUB DUP2 ADD SWAP1 PUSH2 0x583 SWAP2 SWAP1 PUSH2 0x34AE JUMP JUMPDEST PUSH2 0x10F9 JUMP JUMPDEST STOP JUMPDEST CALLVALUE DUP1 ISZERO PUSH2 0x596 JUMPI PUSH1 0x0 DUP1 REVERT JUMPDEST POP PUSH2 0x59F PUSH2 0x110B JUMP JUMPDEST PUSH1 0x40 MLOAD PUSH2 0x5AC SWAP2 SWAP1 PUSH2 0x36A5 JUMP JUMPDEST PUSH1 0x40 MLOAD DUP1 SWAP2 SUB SWAP1 RETURN JUMPDEST CALLVALUE DUP1 ISZERO PUSH2 0x5C1 JUMPI PUSH1 0x0 DUP1 REVERT JUMPDEST POP PUSH2 0x5DC PUSH1 0x4 DUP1 CALLDATASIZE SUB DUP2 ADD SWAP1 PUSH2 0x5D7 SWAP2 SWAP1 PUSH2 0x34AE JUMP JUMPDEST PUSH2 0x1111 JUMP JUMPDEST PUSH1 0x40 MLOAD PUSH2 0x5E9 SWAP2 SWAP1 PUSH2 0x36A5 JUMP JUMPDEST PUSH1 0x40 MLOAD DUP1 SWAP2 SUB SWAP1 RETURN JUMPDEST CALLVALUE DUP1 ISZERO PUSH2 0x5FE JUMPI PUSH1 0x0 DUP1 REVERT JUMPDEST POP PUSH2 0x619 PUSH1 0x4 DUP1 CALLDATASIZE SUB DUP2 ADD SWAP1 PUSH2 0x614 SWAP2 SWAP1 PUSH2 0x3778 JUMP JUMPDEST PUSH2 0x1187 JUMP JUMPDEST STOP JUMPDEST CALLVALUE DUP1 ISZERO PUSH2 0x627 JUMPI PUSH1 0x0 DUP1 REVERT JUMPDEST POP PUSH2 0x642 PUSH1 0x4 DUP1 CALLDATASIZE SUB DUP2 ADD SWAP1 PUSH2 0x63D SWAP2 SWAP1 PUSH2 0x39D5 JUMP JUMPDEST PUSH2 0x122C JUMP JUMPDEST STOP JUMPDEST CALLVALUE DUP1 ISZERO PUSH2 0x650 JUMPI PUSH1 0x0 DUP1 REVERT JUMPDEST POP PUSH2 0x659 PUSH2 0x1247 JUMP JUMPDEST PUSH1 0x40 MLOAD PUSH2 0x666 SWAP2 SWAP1 PUSH2 0x3352 JUMP JUMPDEST PUSH1 0x40 MLOAD DUP1 SWAP2 SUB SWAP1 RETURN JUMPDEST CALLVALUE DUP1 ISZERO PUSH2 0x67B JUMPI PUSH1 0x0 DUP1 REVERT JUMPDEST POP PUSH2 0x696 PUSH1 0x4 DUP1 CALLDATASIZE SUB DUP2 ADD SWAP1 PUSH2 0x691 SWAP2 SWAP1 PUSH2 0x34AE JUMP JUMPDEST PUSH2 0x125A JUMP JUMPDEST PUSH1 0x40 MLOAD PUSH2 0x6A3 SWAP2 SWAP1 PUSH2 0x351C JUMP JUMPDEST PUSH1 0x40 MLOAD DUP1 SWAP2 SUB SWAP1 RETURN JUMPDEST CALLVALUE DUP1 ISZERO PUSH2 0x6B8 JUMPI PUSH1 0x0 DUP1 REVERT JUMPDEST POP PUSH2 0x6D3 PUSH1 0x4 DUP1 CALLDATASIZE SUB DUP2 ADD SWAP1 PUSH2 0x6CE SWAP2 SWAP1 PUSH2 0x3669 JUMP JUMPDEST PUSH2 0x126C JUMP JUMPDEST PUSH1 0x40 MLOAD PUSH2 0x6E0 SWAP2 SWAP1 PUSH2 0x36A5 JUMP JUMPDEST PUSH1 0x40 MLOAD DUP1 SWAP2 SUB SWAP1 RETURN JUMPDEST CALLVALUE DUP1 ISZERO PUSH2 0x6F5 JUMPI PUSH1 0x0 DUP1 REVERT JUMPDEST POP PUSH2 0x6FE PUSH2 0x1326 JUMP JUMPDEST STOP JUMPDEST CALLVALUE DUP1 ISZERO PUSH2 0x70C JUMPI PUSH1 0x0 DUP1 REVERT JUMPDEST POP PUSH2 0x727 PUSH1 0x4 DUP1 CALLDATASIZE SUB DUP2 ADD SWAP1 PUSH2 0x722 SWAP2 SWAP1 PUSH2 0x3778 JUMP JUMPDEST PUSH2 0x133A JUMP JUMPDEST STOP JUMPDEST CALLVALUE DUP1 ISZERO PUSH2 0x735 JUMPI PUSH1 0x0 DUP1 REVERT JUMPDEST POP PUSH2 0x750 PUSH1 0x4 DUP1 CALLDATASIZE SUB DUP2 ADD SWAP1 PUSH2 0x74B SWAP2 SWAP1 PUSH2 0x34AE JUMP JUMPDEST PUSH2 0x13DF JUMP JUMPDEST STOP JUMPDEST CALLVALUE DUP1 ISZERO PUSH2 0x75E JUMPI PUSH1 0x0 DUP1 REVERT JUMPDEST POP PUSH2 0x767 PUSH2 0x141D JUMP JUMPDEST PUSH1 0x40 MLOAD PUSH2 0x774 SWAP2 SWAP1 PUSH2 0x351C JUMP JUMPDEST PUSH1 0x40 MLOAD DUP1 SWAP2 SUB SWAP1 RETURN JUMPDEST CALLVALUE DUP1 ISZERO PUSH2 0x789 JUMPI PUSH1 0x0 DUP1 REVERT JUMPDEST POP PUSH2 0x792 PUSH2 0x1447 JUMP JUMPDEST PUSH1 0x40 MLOAD PUSH2 0x79F SWAP2 SWAP1 PUSH2 0x3456 JUMP JUMPDEST PUSH1 0x40 MLOAD DUP1 SWAP2 SUB SWAP1 RETURN JUMPDEST CALLVALUE DUP1 ISZERO PUSH2 0x7B4 JUMPI PUSH1 0x0 DUP1 REVERT JUMPDEST POP PUSH2 0x7CF PUSH1 0x4 DUP1 CALLDATASIZE SUB DUP2 ADD SWAP1 PUSH2 0x7CA SWAP2 SWAP1 PUSH2 0x3669 JUMP JUMPDEST PUSH2 0x14D9 JUMP JUMPDEST PUSH1 0x40 MLOAD PUSH2 0x7DC SWAP2 SWAP1 PUSH2 0x36A5 JUMP JUMPDEST PUSH1 0x40 MLOAD DUP1 SWAP2 SUB SWAP1 RETURN JUMPDEST CALLVALUE DUP1 ISZERO PUSH2 0x7F1 JUMPI PUSH1 0x0 DUP1 REVERT JUMPDEST POP PUSH2 0x80C PUSH1 0x4 DUP1 CALLDATASIZE SUB DUP2 ADD SWAP1 PUSH2 0x807 SWAP2 SWAP1 PUSH2 0x3669 JUMP JUMPDEST PUSH2 0x14F1 JUMP JUMPDEST PUSH1 0x40 MLOAD PUSH2 0x819 SWAP2 SWAP1 PUSH2 0x3352 JUMP JUMPDEST PUSH1 0x40 MLOAD DUP1 SWAP2 SUB SWAP1 RETURN JUMPDEST PUSH2 0x83C PUSH1 0x4 DUP1 CALLDATASIZE SUB DUP2 ADD SWAP1 PUSH2 0x837 SWAP2 SWAP1 PUSH2 0x34AE JUMP JUMPDEST PUSH2 0x1511 JUMP JUMPDEST STOP JUMPDEST CALLVALUE DUP1 ISZERO PUSH2 0x84A JUMPI PUSH1 0x0 DUP1 REVERT JUMPDEST POP PUSH2 0x865 PUSH1 0x4 DUP1 CALLDATASIZE SUB DUP2 ADD SWAP1 PUSH2 0x860 SWAP2 SWAP1 PUSH2 0x3A1E JUMP JUMPDEST PUSH2 0x1B2A JUMP JUMPDEST STOP JUMPDEST CALLVALUE DUP1 ISZERO PUSH2 0x873 JUMPI PUSH1 0x0 DUP1 REVERT JUMPDEST POP PUSH2 0x87C PUSH2 0x1B40 JUMP JUMPDEST PUSH1 0x40 MLOAD PUSH2 0x889 SWAP2 SWAP1 PUSH2 0x36A5 JUMP JUMPDEST PUSH1 0x40 MLOAD DUP1 SWAP2 SUB SWAP1 RETURN JUMPDEST CALLVALUE DUP1 ISZERO PUSH2 0x89E JUMPI PUSH1 0x0 DUP1 REVERT JUMPDEST POP PUSH2 0x8A7 PUSH2 0x1B46 JUMP JUMPDEST PUSH1 0x40 MLOAD PUSH2 0x8B4 SWAP2 SWAP1 PUSH2 0x36A5 JUMP JUMPDEST PUSH1 0x40 MLOAD DUP1 SWAP2 SUB SWAP1 RETURN JUMPDEST CALLVALUE DUP1 ISZERO PUSH2 0x8C9 JUMPI PUSH1 0x0 DUP1 REVERT JUMPDEST POP PUSH2 0x8E4 PUSH1 0x4 DUP1 CALLDATASIZE SUB DUP2 ADD SWAP1 PUSH2 0x8DF SWAP2 SWAP1 PUSH2 0x3669 JUMP JUMPDEST PUSH2 0x1B4C JUMP JUMPDEST PUSH1 0x40 MLOAD PUSH2 0x8F1 SWAP2 SWAP1 PUSH2 0x36A5 JUMP JUMPDEST PUSH1 0x40 MLOAD DUP1 SWAP2 SUB SWAP1 RETURN JUMPDEST CALLVALUE DUP1 ISZERO PUSH2 0x906 JUMPI PUSH1 0x0 DUP1 REVERT JUMPDEST POP PUSH2 0x921 PUSH1 0x4 DUP1 CALLDATASIZE SUB DUP2 ADD SWAP1 PUSH2 0x91C SWAP2 SWAP1 PUSH2 0x3AFF JUMP JUMPDEST PUSH2 0x1B64 JUMP JUMPDEST STOP JUMPDEST CALLVALUE DUP1 ISZERO PUSH2 0x92F JUMPI PUSH1 0x0 DUP1 REVERT JUMPDEST POP PUSH2 0x938 PUSH2 0x1B81 JUMP JUMPDEST PUSH1 0x40 MLOAD PUSH2 0x945 SWAP2 SWAP1 PUSH2 0x36A5 JUMP JUMPDEST PUSH1 0x40 MLOAD DUP1 SWAP2 SUB SWAP1 RETURN JUMPDEST CALLVALUE DUP1 ISZERO PUSH2 0x95A JUMPI PUSH1 0x0 DUP1 REVERT JUMPDEST POP PUSH2 0x963 PUSH2 0x1B87 JUMP JUMPDEST PUSH1 0x40 MLOAD PUSH2 0x970 SWAP2 SWAP1 PUSH2 0x36A5 JUMP JUMPDEST PUSH1 0x40 MLOAD DUP1 SWAP2 SUB SWAP1 RETURN JUMPDEST CALLVALUE DUP1 ISZERO PUSH2 0x985 JUMPI PUSH1 0x0 DUP1 REVERT JUMPDEST POP PUSH2 0x9A0 PUSH1 0x4 DUP1 CALLDATASIZE SUB DUP2 ADD SWAP1 PUSH2 0x99B SWAP2 SWAP1 PUSH2 0x34AE JUMP JUMPDEST PUSH2 0x1B8D JUMP JUMPDEST PUSH1 0x40 MLOAD PUSH2 0x9AD SWAP2 SWAP1 PUSH2 0x3456 JUMP JUMPDEST PUSH1 0x40 MLOAD DUP1 SWAP2 SUB SWAP1 RETURN JUMPDEST CALLVALUE DUP1 ISZERO PUSH2 0x9C2 JUMPI PUSH1 0x0 DUP1 REVERT JUMPDEST POP PUSH2 0x9DD PUSH1 0x4 DUP1 CALLDATASIZE SUB DUP2 ADD SWAP1 PUSH2 0x9D8 SWAP2 SWAP1 PUSH2 0x3669 JUMP JUMPDEST PUSH2 0x1BF6 JUMP JUMPDEST PUSH1 0x40 MLOAD PUSH2 0x9EA SWAP2 SWAP1 PUSH2 0x3352 JUMP JUMPDEST PUSH1 0x40 MLOAD DUP1 SWAP2 SUB SWAP1 RETURN JUMPDEST CALLVALUE DUP1 ISZERO PUSH2 0x9FF JUMPI PUSH1 0x0 DUP1 REVERT JUMPDEST POP PUSH2 0xA1A PUSH1 0x4 DUP1 CALLDATASIZE SUB DUP2 ADD SWAP1 PUSH2 0xA15 SWAP2 SWAP1 PUSH2 0x3778 JUMP JUMPDEST PUSH2 0x1C16 JUMP JUMPDEST STOP JUMPDEST CALLVALUE DUP1 ISZERO PUSH2 0xA28 JUMPI PUSH1 0x0 DUP1 REVERT JUMPDEST POP PUSH2 0xA31 PUSH2 0x1CBB JUMP JUMPDEST PUSH1 0x40 MLOAD PUSH2 0xA3E SWAP2 SWAP1 PUSH2 0x36A5 JUMP JUMPDEST PUSH1 0x40 MLOAD DUP1 SWAP2 SUB SWAP1 RETURN JUMPDEST CALLVALUE DUP1 ISZERO PUSH2 0xA53 JUMPI PUSH1 0x0 DUP1 REVERT JUMPDEST POP PUSH2 0xA6E PUSH1 0x4 DUP1 CALLDATASIZE SUB DUP2 ADD SWAP1 PUSH2 0xA69 SWAP2 SWAP1 PUSH2 0x3B82 JUMP JUMPDEST PUSH2 0x1CC1 JUMP JUMPDEST PUSH1 0x40 MLOAD PUSH2 0xA7B SWAP2 SWAP1 PUSH2 0x3352 JUMP JUMPDEST PUSH1 0x40 MLOAD DUP1 SWAP2 SUB SWAP1 RETURN JUMPDEST CALLVALUE DUP1 ISZERO PUSH2 0xA90 JUMPI PUSH1 0x0 DUP1 REVERT JUMPDEST POP PUSH2 0xAAB PUSH1 0x4 DUP1 CALLDATASIZE SUB DUP2 ADD SWAP1 PUSH2 0xAA6 SWAP2 SWAP1 PUSH2 0x3669 JUMP JUMPDEST PUSH2 0x1D55 JUMP JUMPDEST STOP JUMPDEST PUSH1 0x0 PUSH32 0x780E9D6300000000000000000000000000000000000000000000000000000000 PUSH28 0xFFFFFFFFFFFFFFFFFFFFFFFFFFFFFFFFFFFFFFFFFFFFFFFFFFFFFFFF NOT AND DUP3 PUSH28 0xFFFFFFFFFFFFFFFFFFFFFFFFFFFFFFFFFFFFFFFFFFFFFFFFFFFFFFFF NOT AND EQ DUP1 PUSH2 0xB20 JUMPI POP PUSH2 0xB1F DUP3 PUSH2 0x1DDB JUMP JUMPDEST JUMPDEST SWAP1 POP SWAP2 SWAP1 POP JUMP JUMPDEST PUSH2 0xB2F PUSH2 0x1EBD JUMP JUMPDEST DUP1 PUSH1 0xD PUSH1 0x0 PUSH2 0x100 EXP DUP2 SLOAD DUP2 PUSH1 0xFF MUL NOT AND SWAP1 DUP4 ISZERO ISZERO MUL OR SWAP1 SSTORE POP POP JUMP JUMPDEST PUSH1 0x60 PUSH1 0x0 DUP1 SLOAD PUSH2 0xB5B SWAP1 PUSH2 0x3BF1 JUMP JUMPDEST DUP1 PUSH1 0x1F ADD PUSH1 0x20 DUP1 SWAP2 DIV MUL PUSH1 0x20 ADD PUSH1 0x40 MLOAD SWAP1 DUP2 ADD PUSH1 0x40 MSTORE DUP1 SWAP3 SWAP2 SWAP1 DUP2 DUP2 MSTORE PUSH1 0x20 ADD DUP3 DUP1 SLOAD PUSH2 0xB87 SWAP1 PUSH2 0x3BF1 JUMP JUMPDEST DUP1 ISZERO PUSH2 0xBD4 JUMPI DUP1 PUSH1 0x1F LT PUSH2 0xBA9 JUMPI PUSH2 0x100 DUP1 DUP4 SLOAD DIV MUL DUP4 MSTORE SWAP2 PUSH1 0x20 ADD SWAP2 PUSH2 0xBD4 JUMP JUMPDEST DUP3 ADD SWAP2 SWAP1 PUSH1 0x0 MSTORE PUSH1 0x20 PUSH1 0x0 KECCAK256 SWAP1 JUMPDEST DUP2 SLOAD DUP2 MSTORE SWAP1 PUSH1 0x1 ADD SWAP1 PUSH1 0x20 ADD DUP1 DUP4 GT PUSH2 0xBB7 JUMPI DUP3 SWAP1 SUB PUSH1 0x1F AND DUP3 ADD SWAP2 JUMPDEST POP POP POP POP POP SWAP1 POP SWAP1 JUMP JUMPDEST PUSH1 0x0 PUSH2 0xBE9 DUP3 PUSH2 0x1F44 JUMP JUMPDEST POP PUSH2 0xBF3 DUP3 PUSH2 0x1FCC JUMP JUMPDEST SWAP1 POP SWAP2 SWAP1 POP JUMP JUMPDEST PUSH2 0xC0C DUP3 DUP3 PUSH2 0xC07 PUSH2 0x2009 JUMP JUMPDEST PUSH2 0x2011 JUMP JUMPDEST POP POP JUMP JUMPDEST PUSH2 0xC18 PUSH2 0x327C JUMP JUMPDEST PUSH1 0x0 PUSH1 0xE SLOAD TIMESTAMP LT ISZERO DUP1 ISZERO PUSH2 0xC2E JUMPI POP PUSH1 0xF SLOAD TIMESTAMP GT ISZERO JUMPDEST SWAP1 POP PUSH1 0x0 PUSH1 0xF SLOAD TIMESTAMP GT DUP1 ISZERO PUSH2 0xC45 JUMPI POP PUSH1 0x10 SLOAD TIMESTAMP GT ISZERO JUMPDEST SWAP1 POP PUSH1 0x0 PUSH1 0x10 SLOAD TIMESTAMP GT SWAP1 POP PUSH1 0x40 MLOAD DUP1 PUSH1 0x60 ADD PUSH1 0x40 MSTORE DUP1 DUP5 ISZERO ISZERO ISZERO ISZERO DUP2 MSTORE PUSH1 0x20 ADD DUP4 ISZERO ISZERO ISZERO ISZERO DUP2 MSTORE PUSH1 0x20 ADD DUP3 ISZERO ISZERO ISZERO ISZERO DUP2 MSTORE POP SWAP4 POP POP POP POP SWAP1 JUMP JUMPDEST PUSH1 0x18 PUSH1 0x20 MSTORE DUP1 PUSH1 0x0 MSTORE PUSH1 0x40 PUSH1 0x0 KECCAK256 PUSH1 0x0 SWAP2 POP SWAP1 POP SLOAD DUP2 JUMP JUMPDEST PUSH1 0x11 SLOAD DUP2 JUMP JUMPDEST PUSH1 0x0 PUSH1 0x8 DUP1 SLOAD SWAP1 POP SWAP1 POP SWAP1 JUMP JUMPDEST PUSH1 0x0 PUSH20 0xFFFFFFFFFFFFFFFFFFFFFFFFFFFFFFFFFFFFFFFF AND DUP3 PUSH20 0xFFFFFFFFFFFFFFFFFFFFFFFFFFFFFFFFFFFFFFFF AND SUB PUSH2 0xD1C JUMPI PUSH1 0x0 PUSH1 0x40 MLOAD PUSH32 0x64A0AE9200000000000000000000000000000000000000000000000000000000 DUP2 MSTORE PUSH1 0x4 ADD PUSH2 0xD13 SWAP2 SWAP1 PUSH2 0x351C JUMP JUMPDEST PUSH1 0x40 MLOAD DUP1 SWAP2 SUB SWAP1 REVERT JUMPDEST PUSH1 0x0 PUSH2 0xD30 DUP4 DUP4 PUSH2 0xD2B PUSH2 0x2009 JUMP JUMPDEST PUSH2 0x2023 JUMP JUMPDEST SWAP1 POP DUP4 PUSH20 0xFFFFFFFFFFFFFFFFFFFFFFFFFFFFFFFFFFFFFFFF AND DUP2 PUSH20 0xFFFFFFFFFFFFFFFFFFFFFFFFFFFFFFFFFFFFFFFF AND EQ PUSH2 0xDA6 JUMPI DUP4 DUP3 DUP3 PUSH1 0x40 MLOAD PUSH32 0x64283D7B00000000000000000000000000000000000000000000000000000000 DUP2 MSTORE PUSH1 0x4 ADD PUSH2 0xD9D SWAP4 SWAP3 SWAP2 SWAP1 PUSH2 0x3C22 JUMP JUMPDEST PUSH1 0x40 MLOAD DUP1 SWAP2 SUB SWAP1 REVERT JUMPDEST POP POP POP POP JUMP JUMPDEST PUSH1 0x0 PUSH2 0xDB7 DUP4 PUSH2 0x126C JUMP JUMPDEST DUP3 LT PUSH2 0xDFC JUMPI DUP3 DUP3 PUSH1 0x40 MLOAD PUSH32 0xA57D13DC00000000000000000000000000000000000000000000000000000000 DUP2 MSTORE PUSH1 0x4 ADD PUSH2 0xDF3 SWAP3 SWAP2 SWAP1 PUSH2 0x3C59 JUMP JUMPDEST PUSH1 0x40 MLOAD DUP1 SWAP2 SUB SWAP1 REVERT JUMPDEST PUSH1 0x6 PUSH1 0x0 DUP5 PUSH20 0xFFFFFFFFFFFFFFFFFFFFFFFFFFFFFFFFFFFFFFFF AND PUSH20 0xFFFFFFFFFFFFFFFFFFFFFFFFFFFFFFFFFFFFFFFF AND DUP2 MSTORE PUSH1 0x20 ADD SWAP1 DUP2 MSTORE PUSH1 0x20 ADD PUSH1 0x0 KECCAK256 PUSH1 0x0 DUP4 DUP2 MSTORE PUSH1 0x20 ADD SWAP1 DUP2 MSTORE PUSH1 0x20 ADD PUSH1 0x0 KECCAK256 SLOAD SWAP1 POP SWAP3 SWAP2 POP POP JUMP JUMPDEST PUSH1 0x13 SLOAD DUP2 JUMP JUMPDEST PUSH2 0xE63 PUSH2 0x1EBD JUMP JUMPDEST PUSH1 0x0 JUMPDEST DUP3 DUP3 SWAP1 POP DUP2 LT ISZERO PUSH2 0xEFB JUMPI PUSH1 0x0 PUSH1 0x17 PUSH1 0x0 DUP6 DUP6 DUP6 DUP2 DUP2 LT PUSH2 0xE8A JUMPI PUSH2 0xE89 PUSH2 0x3C82 JUMP JUMPDEST JUMPDEST SWAP1 POP PUSH1 0x20 MUL ADD PUSH1 0x20 DUP2 ADD SWAP1 PUSH2 0xE9F SWAP2 SWAP1 PUSH2 0x3669 JUMP JUMPDEST PUSH20 0xFFFFFFFFFFFFFFFFFFFFFFFFFFFFFFFFFFFFFFFF AND PUSH20 0xFFFFFFFFFFFFFFFFFFFFFFFFFFFFFFFFFFFFFFFF AND DUP2 MSTORE PUSH1 0x20 ADD SWAP1 DUP2 MSTORE PUSH1 0x20 ADD PUSH1 0x0 KECCAK256 PUSH1 0x0 PUSH2 0x100 EXP DUP2 SLOAD DUP2 PUSH1 0xFF MUL NOT AND SWAP1 DUP4 ISZERO ISZERO MUL OR SWAP1 SSTORE POP DUP1 PUSH1 0x1 ADD SWAP1 POP PUSH2 0xE66 JUMP JUMPDEST POP POP POP JUMP JUMPDEST PUSH2 0xF08 PUSH2 0x1EBD JUMP JUMPDEST PUSH1 0x0 SELFBALANCE SWAP1 POP PUSH1 0x0 PUSH20 0x9581A8B08621139288196C24F8A3580B3A21B240 PUSH20 0xFFFFFFFFFFFFFFFFFFFFFFFFFFFFFFFFFFFFFFFF AND PUSH1 0x64 PUSH1 0x1E DUP5 PUSH2 0xF49 SWAP2 SWAP1 PUSH2 0x3CE0 JUMP JUMPDEST PUSH2 0xF53 SWAP2 SWAP1 PUSH2 0x3D51 JUMP JUMPDEST PUSH1 0x40 MLOAD PUSH2 0xF5F SWAP1 PUSH2 0x3DB3 JUMP JUMPDEST PUSH1 0x0 PUSH1 0x40 MLOAD DUP1 DUP4 SUB DUP2 DUP6 DUP8 GAS CALL SWAP3 POP POP POP RETURNDATASIZE DUP1 PUSH1 0x0 DUP2 EQ PUSH2 0xF9C JUMPI PUSH1 0x40 MLOAD SWAP2 POP PUSH1 0x1F NOT PUSH1 0x3F RETURNDATASIZE ADD AND DUP3 ADD PUSH1 0x40 MSTORE RETURNDATASIZE DUP3 MSTORE RETURNDATASIZE PUSH1 0x0 PUSH1 0x20 DUP5 ADD RETURNDATACOPY PUSH2 0xFA1 JUMP JUMPDEST PUSH1 0x60 SWAP2 POP JUMPDEST POP POP SWAP1 POP DUP1 PUSH2 0xFAF JUMPI PUSH1 0x0 DUP1 REVERT JUMPDEST PUSH1 0x0 PUSH2 0xFB9 PUSH2 0x141D JUMP JUMPDEST PUSH20 0xFFFFFFFFFFFFFFFFFFFFFFFFFFFFFFFFFFFFFFFF AND SELFBALANCE PUSH1 0x40 MLOAD PUSH2 0xFDC SWAP1 PUSH2 0x3DB3 JUMP JUMPDEST PUSH1 0x0 PUSH1 0x40 MLOAD DUP1 DUP4 SUB DUP2 DUP6 DUP8 GAS CALL SWAP3 POP POP POP RETURNDATASIZE DUP1 PUSH1 0x0 DUP2 EQ PUSH2 0x1019 JUMPI PUSH1 0x40 MLOAD SWAP2 POP PUSH1 0x1F NOT PUSH1 0x3F RETURNDATASIZE ADD AND DUP3 ADD PUSH1 0x40 MSTORE RETURNDATASIZE DUP3 MSTORE RETURNDATASIZE PUSH1 0x0 PUSH1 0x20 DUP5 ADD RETURNDATACOPY PUSH2 0x101E JUMP JUMPDEST PUSH1 0x60 SWAP2 POP JUMPDEST POP POP SWAP1 POP DUP1 PUSH2 0x102C JUMPI PUSH1 0x0 DUP1 REVERT JUMPDEST POP POP POP JUMP JUMPDEST PUSH2 0x104C DUP4 DUP4 DUP4 PUSH1 0x40 MLOAD DUP1 PUSH1 0x20 ADD PUSH1 0x40 MSTORE DUP1 PUSH1 0x0 DUP2 MSTORE POP PUSH2 0x1B64 JUMP JUMPDEST POP POP POP JUMP JUMPDEST PUSH1 0x60 PUSH1 0x0 PUSH2 0x105E DUP4 PUSH2 0x126C JUMP JUMPDEST SWAP1 POP PUSH1 0x0 DUP2 PUSH8 0xFFFFFFFFFFFFFFFF DUP2 GT ISZERO PUSH2 0x107C JUMPI PUSH2 0x107B PUSH2 0x38AA JUMP JUMPDEST JUMPDEST PUSH1 0x40 MLOAD SWAP1 DUP1 DUP3 MSTORE DUP1 PUSH1 0x20 MUL PUSH1 0x20 ADD DUP3 ADD PUSH1 0x40 MSTORE DUP1 ISZERO PUSH2 0x10AA JUMPI DUP2 PUSH1 0x20 ADD PUSH1 0x20 DUP3 MUL DUP1 CALLDATASIZE DUP4 CALLDATACOPY DUP1 DUP3 ADD SWAP2 POP POP SWAP1 POP JUMPDEST POP SWAP1 POP PUSH1 0x0 JUMPDEST DUP3 DUP2 LT ISZERO PUSH2 0x10EE JUMPI PUSH2 0x10C2 DUP6 DUP3 PUSH2 0xDAC JUMP JUMPDEST DUP3 DUP3 DUP2 MLOAD DUP2 LT PUSH2 0x10D5 JUMPI PUSH2 0x10D4 PUSH2 0x3C82 JUMP JUMPDEST JUMPDEST PUSH1 0x20 MUL PUSH1 0x20 ADD ADD DUP2 DUP2 MSTORE POP POP DUP1 DUP1 PUSH1 0x1 ADD SWAP2 POP POP PUSH2 0x10B0 JUMP JUMPDEST POP DUP1 SWAP3 POP POP POP SWAP2 SWAP1 POP JUMP JUMPDEST PUSH2 0x1101 PUSH2 0x1EBD JUMP JUMPDEST DUP1 PUSH1 0x11 DUP2 SWAP1 SSTORE POP POP JUMP JUMPDEST PUSH1 0xF SLOAD DUP2 JUMP JUMPDEST PUSH1 0x0 PUSH2 0x111B PUSH2 0xC9D JUMP JUMPDEST DUP3 LT PUSH2 0x1161 JUMPI PUSH1 0x0 DUP3 PUSH1 0x40 MLOAD PUSH32 0xA57D13DC00000000000000000000000000000000000000000000000000000000 DUP2 MSTORE PUSH1 0x4 ADD PUSH2 0x1158 SWAP3 SWAP2 SWAP1 PUSH2 0x3C59 JUMP JUMPDEST PUSH1 0x40 MLOAD DUP1 SWAP2 SUB SWAP1 REVERT JUMPDEST PUSH1 0x8 DUP3 DUP2 SLOAD DUP2 LT PUSH2 0x1175 JUMPI PUSH2 0x1174 PUSH2 0x3C82 JUMP JUMPDEST JUMPDEST SWAP1 PUSH1 0x0 MSTORE PUSH1 0x20 PUSH1 0x0 KECCAK256 ADD SLOAD SWAP1 POP SWAP2 SWAP1 POP JUMP JUMPDEST PUSH2 0x118F PUSH2 0x1EBD JUMP JUMPDEST PUSH1 0x0 JUMPDEST DUP3 DUP3 SWAP1 POP DUP2 LT ISZERO PUSH2 0x1227 JUMPI PUSH1 0x0 PUSH1 0x16 PUSH1 0x0 DUP6 DUP6 DUP6 DUP2 DUP2 LT PUSH2 0x11B6 JUMPI PUSH2 0x11B5 PUSH2 0x3C82 JUMP JUMPDEST JUMPDEST SWAP1 POP PUSH1 0x20 MUL ADD PUSH1 0x20 DUP2 ADD SWAP1 PUSH2 0x11CB SWAP2 SWAP1 PUSH2 0x3669 JUMP JUMPDEST PUSH20 0xFFFFFFFFFFFFFFFFFFFFFFFFFFFFFFFFFFFFFFFF AND PUSH20 0xFFFFFFFFFFFFFFFFFFFFFFFFFFFFFFFFFFFFFFFF AND DUP2 MSTORE PUSH1 0x20 ADD SWAP1 DUP2 MSTORE PUSH1 0x20 ADD PUSH1 0x0 KECCAK256 PUSH1 0x0 PUSH2 0x100 EXP DUP2 SLOAD DUP2 PUSH1 0xFF MUL NOT AND SWAP1 DUP4 ISZERO ISZERO MUL OR SWAP1 SSTORE POP DUP1 PUSH1 0x1 ADD SWAP1 POP PUSH2 0x1192 JUMP JUMPDEST POP POP POP JUMP JUMPDEST PUSH2 0x1234 PUSH2 0x1EBD JUMP JUMPDEST DUP1 PUSH1 0xC SWAP1 DUP2 PUSH2 0x1243 SWAP2 SWAP1 PUSH2 0x3F74 JUMP JUMPDEST POP POP JUMP JUMPDEST PUSH1 0xD PUSH1 0x0 SWAP1 SLOAD SWAP1 PUSH2 0x100 EXP SWAP1 DIV PUSH1 0xFF AND DUP2 JUMP JUMPDEST PUSH1 0x0 PUSH2 0x1265 DUP3 PUSH2 0x1F44 JUMP JUMPDEST SWAP1 POP SWAP2 SWAP1 POP JUMP JUMPDEST PUSH1 0x0 DUP1 PUSH20 0xFFFFFFFFFFFFFFFFFFFFFFFFFFFFFFFFFFFFFFFF AND DUP3 PUSH20 0xFFFFFFFFFFFFFFFFFFFFFFFFFFFFFFFFFFFFFFFF AND SUB PUSH2 0x12DF JUMPI PUSH1 0x0 PUSH1 0x40 MLOAD PUSH32 0x89C62B6400000000000000000000000000000000000000000000000000000000 DUP2 MSTORE PUSH1 0x4 ADD PUSH2 0x12D6 SWAP2 SWAP1 PUSH2 0x351C JUMP JUMPDEST PUSH1 0x40 MLOAD DUP1 SWAP2 SUB SWAP1 REVERT JUMPDEST PUSH1 0x3 PUSH1 0x0 DUP4 PUSH20 0xFFFFFFFFFFFFFFFFFFFFFFFFFFFFFFFFFFFFFFFF AND PUSH20 0xFFFFFFFFFFFFFFFFFFFFFFFFFFFFFFFFFFFFFFFF AND DUP2 MSTORE PUSH1 0x20 ADD SWAP1 DUP2 MSTORE PUSH1 0x20 ADD PUSH1 0x0 KECCAK256 SLOAD SWAP1 POP SWAP2 SWAP1 POP JUMP JUMPDEST PUSH2 0x132E PUSH2 0x1EBD JUMP JUMPDEST PUSH2 0x1338 PUSH1 0x0 PUSH2 0x2140 JUMP JUMPDEST JUMP JUMPDEST PUSH2 0x1342 PUSH2 0x1EBD JUMP JUMPDEST PUSH1 0x0 JUMPDEST DUP3 DUP3 SWAP1 POP DUP2 LT ISZERO PUSH2 0x13DA JUMPI PUSH1 0x1 PUSH1 0x16 PUSH1 0x0 DUP6 DUP6 DUP6 DUP2 DUP2 LT PUSH2 0x1369 JUMPI PUSH2 0x1368 PUSH2 0x3C82 JUMP JUMPDEST JUMPDEST SWAP1 POP PUSH1 0x20 MUL ADD PUSH1 0x20 DUP2 ADD SWAP1 PUSH2 0x137E SWAP2 SWAP1 PUSH2 0x3669 JUMP JUMPDEST PUSH20 0xFFFFFFFFFFFFFFFFFFFFFFFFFFFFFFFFFFFFFFFF AND PUSH20 0xFFFFFFFFFFFFFFFFFFFFFFFFFFFFFFFFFFFFFFFF AND DUP2 MSTORE PUSH1 0x20 ADD SWAP1 DUP2 MSTORE PUSH1 0x20 ADD PUSH1 0x0 KECCAK256 PUSH1 0x0 PUSH2 0x100 EXP DUP2 SLOAD DUP2 PUSH1 0xFF MUL NOT AND SWAP1 DUP4 ISZERO ISZERO MUL OR SWAP1 SSTORE POP DUP1 PUSH1 0x1 ADD SWAP1 POP PUSH2 0x1345 JUMP JUMPDEST POP POP POP JUMP JUMPDEST PUSH2 0x13E7 PUSH2 0x1EBD JUMP JUMPDEST DUP1 PUSH1 0xE DUP2 SWAP1 SSTORE POP PUSH2 0x5460 PUSH1 0xE SLOAD PUSH2 0x13FE SWAP2 SWAP1 PUSH2 0x4046 JUMP JUMPDEST PUSH1 0xF DUP2 SWAP1 SSTORE POP PUSH2 0x5460 PUSH1 0xF SLOAD PUSH2 0x1414 SWAP2 SWAP1 PUSH2 0x4046 JUMP JUMPDEST PUSH1 0x10 DUP2 SWAP1 SSTORE POP POP JUMP JUMPDEST PUSH1 0x0 PUSH1 0xA PUSH1 0x0 SWAP1 SLOAD SWAP1 PUSH2 0x100 EXP SWAP1 DIV PUSH20 0xFFFFFFFFFFFFFFFFFFFFFFFFFFFFFFFFFFFFFFFF AND SWAP1 POP SWAP1 JUMP JUMPDEST PUSH1 0x60 PUSH1 0x1 DUP1 SLOAD PUSH2 0x1456 SWAP1 PUSH2 0x3BF1 JUMP JUMPDEST DUP1 PUSH1 0x1F ADD PUSH1 0x20 DUP1 SWAP2 DIV MUL PUSH1 0x20 ADD PUSH1 0x40 MLOAD SWAP1 DUP2 ADD PUSH1 0x40 MSTORE DUP1 SWAP3 SWAP2 SWAP1 DUP2 DUP2 MSTORE PUSH1 0x20 ADD DUP3 DUP1 SLOAD PUSH2 0x1482 SWAP1 PUSH2 0x3BF1 JUMP JUMPDEST DUP1 ISZERO PUSH2 0x14CF JUMPI DUP1 PUSH1 0x1F LT PUSH2 0x14A4 JUMPI PUSH2 0x100 DUP1 DUP4 SLOAD DIV MUL DUP4 MSTORE SWAP2 PUSH1 0x20 ADD SWAP2 PUSH2 0x14CF JUMP JUMPDEST DUP3 ADD SWAP2 SWAP1 PUSH1 0x0 MSTORE PUSH1 0x20 PUSH1 0x0 KECCAK256 SWAP1 JUMPDEST DUP2 SLOAD DUP2 MSTORE SWAP1 PUSH1 0x1 ADD SWAP1 PUSH1 0x20 ADD DUP1 DUP4 GT PUSH2 0x14B2 JUMPI DUP3 SWAP1 SUB PUSH1 0x1F AND DUP3 ADD SWAP2 JUMPDEST POP POP POP POP POP SWAP1 POP SWAP1 JUMP JUMPDEST PUSH1 0x19 PUSH1 0x20 MSTORE DUP1 PUSH1 0x0 MSTORE PUSH1 0x40 PUSH1 0x0 KECCAK256 PUSH1 0x0 SWAP2 POP SWAP1 POP SLOAD DUP2 JUMP JUMPDEST PUSH1 0x16 PUSH1 0x20 MSTORE DUP1 PUSH1 0x0 MSTORE PUSH1 0x40 PUSH1 0x0 KECCAK256 PUSH1 0x0 SWAP2 POP SLOAD SWAP1 PUSH2 0x100 EXP SWAP1 DIV PUSH1 0xFF AND DUP2 JUMP JUMPDEST PUSH2 0x1519 PUSH2 0x2206 JUMP JUMPDEST PUSH1 0x0 PUSH2 0x1523 PUSH2 0xC9D JUMP JUMPDEST SWAP1 POP PUSH1 0xD PUSH1 0x0 SWAP1 SLOAD SWAP1 PUSH2 0x100 EXP SWAP1 DIV PUSH1 0xFF AND ISZERO PUSH2 0x1575 JUMPI PUSH1 0x40 MLOAD PUSH32 0x8C379A000000000000000000000000000000000000000000000000000000000 DUP2 MSTORE PUSH1 0x4 ADD PUSH2 0x156C SWAP1 PUSH2 0x40C6 JUMP JUMPDEST PUSH1 0x40 MLOAD DUP1 SWAP2 SUB SWAP1 REVERT JUMPDEST PUSH1 0x0 DUP3 GT PUSH2 0x15B8 JUMPI PUSH1 0x40 MLOAD PUSH32 0x8C379A000000000000000000000000000000000000000000000000000000000 DUP2 MSTORE PUSH1 0x4 ADD PUSH2 0x15AF SWAP1 PUSH2 0x4158 JUMP JUMPDEST PUSH1 0x40 MLOAD DUP1 SWAP2 SUB SWAP1 REVERT JUMPDEST PUSH1 0x12 SLOAD DUP3 DUP3 PUSH2 0x15C7 SWAP2 SWAP1 PUSH2 0x4046 JUMP JUMPDEST GT ISZERO PUSH2 0x1608 JUMPI PUSH1 0x40 MLOAD PUSH32 0x8C379A000000000000000000000000000000000000000000000000000000000 DUP2 MSTORE PUSH1 0x4 ADD PUSH2 0x15FF SWAP1 PUSH2 0x41C4 JUMP JUMPDEST PUSH1 0x40 MLOAD DUP1 SWAP2 SUB SWAP1 REVERT JUMPDEST PUSH2 0x1610 PUSH2 0x141D JUMP JUMPDEST PUSH20 0xFFFFFFFFFFFFFFFFFFFFFFFFFFFFFFFFFFFFFFFF AND CALLER PUSH20 0xFFFFFFFFFFFFFFFFFFFFFFFFFFFFFFFFFFFFFFFF AND EQ PUSH2 0x1AE7 JUMPI DUP2 PUSH1 0x11 SLOAD PUSH2 0x1650 SWAP2 SWAP1 PUSH2 0x3CE0 JUMP JUMPDEST CALLVALUE LT ISZERO PUSH2 0x1692 JUMPI PUSH1 0x40 MLOAD PUSH32 0x8C379A000000000000000000000000000000000000000000000000000000000 DUP2 MSTORE PUSH1 0x4 ADD PUSH2 0x1689 SWAP1 PUSH2 0x4230 JUMP JUMPDEST PUSH1 0x40 MLOAD DUP1 SWAP2 SUB SWAP1 REVERT JUMPDEST PUSH1 0xE SLOAD TIMESTAMP LT ISZERO PUSH2 0x16D7 JUMPI PUSH1 0x40 MLOAD PUSH32 0x8C379A000000000000000000000000000000000000000000000000000000000 DUP2 MSTORE PUSH1 0x4 ADD PUSH2 0x16CE SWAP1 PUSH2 0x429C JUMP JUMPDEST PUSH1 0x40 MLOAD DUP1 SWAP2 SUB SWAP1 REVERT JUMPDEST PUSH1 0xE SLOAD TIMESTAMP LT ISZERO DUP1 ISZERO PUSH2 0x16EB JUMPI POP PUSH1 0xF SLOAD TIMESTAMP GT ISZERO JUMPDEST ISZERO PUSH2 0x1866 JUMPI PUSH1 0x16 PUSH1 0x0 CALLER PUSH20 0xFFFFFFFFFFFFFFFFFFFFFFFFFFFFFFFFFFFFFFFF AND PUSH20 0xFFFFFFFFFFFFFFFFFFFFFFFFFFFFFFFFFFFFFFFF AND DUP2 MSTORE PUSH1 0x20 ADD SWAP1 DUP2 MSTORE PUSH1 0x20 ADD PUSH1 0x0 KECCAK256 PUSH1 0x0 SWAP1 SLOAD SWAP1 PUSH2 0x100 EXP SWAP1 DIV PUSH1 0xFF AND PUSH2 0x177C JUMPI PUSH1 0x40 MLOAD PUSH32 0x8C379A000000000000000000000000000000000000000000000000000000000 DUP2 MSTORE PUSH1 0x4 ADD PUSH2 0x1773 SWAP1 PUSH2 0x4308 JUMP JUMPDEST PUSH1 0x40 MLOAD DUP1 SWAP2 SUB SWAP1 REVERT JUMPDEST PUSH1 0x13 SLOAD DUP3 PUSH1 0x19 PUSH1 0x0 CALLER PUSH20 0xFFFFFFFFFFFFFFFFFFFFFFFFFFFFFFFFFFFFFFFF AND PUSH20 0xFFFFFFFFFFFFFFFFFFFFFFFFFFFFFFFFFFFFFFFF AND DUP2 MSTORE PUSH1 0x20 ADD SWAP1 DUP2 MSTORE PUSH1 0x20 ADD PUSH1 0x0 KECCAK256 SLOAD PUSH2 0x17CA SWAP2 SWAP1 PUSH2 0x4046 JUMP JUMPDEST GT ISZERO PUSH2 0x180B JUMPI PUSH1 0x40 MLOAD PUSH32 0x8C379A000000000000000000000000000000000000000000000000000000000 DUP2 MSTORE PUSH1 0x4 ADD PUSH2 0x1802 SWAP1 PUSH2 0x4374 JUMP JUMPDEST PUSH1 0x40 MLOAD DUP1 SWAP2 SUB SWAP1 REVERT JUMPDEST DUP2 PUSH1 0x19 PUSH1 0x0 CALLER PUSH20 0xFFFFFFFFFFFFFFFFFFFFFFFFFFFFFFFFFFFFFFFF AND PUSH20 0xFFFFFFFFFFFFFFFFFFFFFFFFFFFFFFFFFFFFFFFF AND DUP2 MSTORE PUSH1 0x20 ADD SWAP1 DUP2 MSTORE PUSH1 0x20 ADD PUSH1 0x0 KECCAK256 PUSH1 0x0 DUP3 DUP3 SLOAD PUSH2 0x185A SWAP2 SWAP1 PUSH2 0x4046 JUMP JUMPDEST SWAP3 POP POP DUP2 SWAP1 SSTORE POP PUSH2 0x1AE6 JUMP JUMPDEST PUSH1 0xF SLOAD TIMESTAMP GT DUP1 ISZERO PUSH2 0x1879 JUMPI POP PUSH1 0x10 SLOAD TIMESTAMP GT ISZERO JUMPDEST ISZERO PUSH2 0x19F4 JUMPI PUSH1 0x17 PUSH1 0x0 CALLER PUSH20 0xFFFFFFFFFFFFFFFFFFFFFFFFFFFFFFFFFFFFFFFF AND PUSH20 0xFFFFFFFFFFFFFFFFFFFFFFFFFFFFFFFFFFFFFFFF AND DUP2 MSTORE PUSH1 0x20 ADD SWAP1 DUP2 MSTORE PUSH1 0x20 ADD PUSH1 0x0 KECCAK256 PUSH1 0x0 SWAP1 SLOAD SWAP1 PUSH2 0x100 EXP SWAP1 DIV PUSH1 0xFF AND PUSH2 0x190A JUMPI PUSH1 0x40 MLOAD PUSH32 0x8C379A000000000000000000000000000000000000000000000000000000000 DUP2 MSTORE PUSH1 0x4 ADD PUSH2 0x1901 SWAP1 PUSH2 0x43E0 JUMP JUMPDEST PUSH1 0x40 MLOAD DUP1 SWAP2 SUB SWAP1 REVERT JUMPDEST PUSH1 0x15 SLOAD DUP3 PUSH1 0x1A PUSH1 0x0 CALLER PUSH20 0xFFFFFFFFFFFFFFFFFFFFFFFFFFFFFFFFFFFFFFFF AND PUSH20 0xFFFFFFFFFFFFFFFFFFFFFFFFFFFFFFFFFFFFFFFF AND DUP2 MSTORE PUSH1 0x20 ADD SWAP1 DUP2 MSTORE PUSH1 0x20 ADD PUSH1 0x0 KECCAK256 SLOAD PUSH2 0x1958 SWAP2 SWAP1 PUSH2 0x4046 JUMP JUMPDEST GT ISZERO PUSH2 0x1999 JUMPI PUSH1 0x40 MLOAD PUSH32 0x8C379A000000000000000000000000000000000000000000000000000000000 DUP2 MSTORE PUSH1 0x4 ADD PUSH2 0x1990 SWAP1 PUSH2 0x444C JUMP JUMPDEST PUSH1 0x40 MLOAD DUP1 SWAP2 SUB SWAP1 REVERT JUMPDEST DUP2 PUSH1 0x1A PUSH1 0x0 CALLER PUSH20 0xFFFFFFFFFFFFFFFFFFFFFFFFFFFFFFFFFFFFFFFF AND PUSH20 0xFFFFFFFFFFFFFFFFFFFFFFFFFFFFFFFFFFFFFFFF AND DUP2 MSTORE PUSH1 0x20 ADD SWAP1 DUP2 MSTORE PUSH1 0x20 ADD PUSH1 0x0 KECCAK256 PUSH1 0x0 DUP3 DUP3 SLOAD PUSH2 0x19E8 SWAP2 SWAP1 PUSH2 0x4046 JUMP JUMPDEST SWAP3 POP POP DUP2 SWAP1 SSTORE POP PUSH2 0x1AE5 JUMP JUMPDEST PUSH1 0x10 SLOAD TIMESTAMP GT ISZERO PUSH2 0x1AE4 JUMPI PUSH1 0x14 SLOAD DUP3 PUSH1 0x18 PUSH1 0x0 CALLER PUSH20 0xFFFFFFFFFFFFFFFFFFFFFFFFFFFFFFFFFFFFFFFF AND PUSH20 0xFFFFFFFFFFFFFFFFFFFFFFFFFFFFFFFFFFFFFFFF AND DUP2 MSTORE PUSH1 0x20 ADD SWAP1 DUP2 MSTORE PUSH1 0x20 ADD PUSH1 0x0 KECCAK256 SLOAD PUSH2 0x1A4C SWAP2 SWAP1 PUSH2 0x4046 JUMP JUMPDEST GT ISZERO PUSH2 0x1A8D JUMPI PUSH1 0x40 MLOAD PUSH32 0x8C379A000000000000000000000000000000000000000000000000000000000 DUP2 MSTORE PUSH1 0x4 ADD PUSH2 0x1A84 SWAP1 PUSH2 0x44B8 JUMP JUMPDEST PUSH1 0x40 MLOAD DUP1 SWAP2 SUB SWAP1 REVERT JUMPDEST DUP2 PUSH1 0x18 PUSH1 0x0 CALLER PUSH20 0xFFFFFFFFFFFFFFFFFFFFFFFFFFFFFFFFFFFFFFFF AND PUSH20 0xFFFFFFFFFFFFFFFFFFFFFFFFFFFFFFFFFFFFFFFF AND DUP2 MSTORE PUSH1 0x20 ADD SWAP1 DUP2 MSTORE PUSH1 0x20 ADD PUSH1 0x0 KECCAK256 PUSH1 0x0 DUP3 DUP3 SLOAD PUSH2 0x1ADC SWAP2 SWAP1 PUSH2 0x4046 JUMP JUMPDEST SWAP3 POP POP DUP2 SWAP1 SSTORE POP JUMPDEST JUMPDEST JUMPDEST JUMPDEST PUSH1 0x0 PUSH1 0x1 SWAP1 POP JUMPDEST DUP3 DUP2 GT PUSH2 0x1B1D JUMPI PUSH2 0x1B0A CALLER DUP3 DUP5 PUSH2 0x1B05 SWAP2 SWAP1 PUSH2 0x4046 JUMP JUMPDEST PUSH2 0x2255 JUMP JUMPDEST DUP1 DUP1 PUSH2 0x1B15 SWAP1 PUSH2 0x44D8 JUMP JUMPDEST SWAP2 POP POP PUSH2 0x1AEE JUMP JUMPDEST POP POP PUSH2 0x1B27 PUSH2 0x2273 JUMP JUMPDEST POP JUMP JUMPDEST PUSH2 0x1B3C PUSH2 0x1B35 PUSH2 0x2009 JUMP JUMPDEST DUP4 DUP4 PUSH2 0x227D JUMP JUMPDEST POP POP JUMP JUMPDEST PUSH1 0x14 SLOAD DUP2 JUMP JUMPDEST PUSH1 0x15 SLOAD DUP2 JUMP JUMPDEST PUSH1 0x1A PUSH1 0x20 MSTORE DUP1 PUSH1 0x0 MSTORE PUSH1 0x40 PUSH1 0x0 KECCAK256 PUSH1 0x0 SWAP2 POP SWAP1 POP SLOAD DUP2 JUMP JUMPDEST PUSH2 0x1B6F DUP5 DUP5 DUP5 PUSH2 0xCAA JUMP JUMPDEST PUSH2 0x1B7B DUP5 DUP5 DUP5 DUP5 PUSH2 0x23EC JUMP JUMPDEST POP POP POP POP JUMP JUMPDEST PUSH1 0xE SLOAD DUP2 JUMP JUMPDEST PUSH1 0x10 SLOAD DUP2 JUMP JUMPDEST PUSH1 0x60 PUSH2 0x1B98 DUP3 PUSH2 0x1F44 JUMP JUMPDEST POP PUSH1 0x0 PUSH2 0x1BA3 PUSH2 0x25A3 JUMP JUMPDEST SWAP1 POP PUSH1 0x0 DUP2 MLOAD GT PUSH2 0x1BC3 JUMPI PUSH1 0x40 MLOAD DUP1 PUSH1 0x20 ADD PUSH1 0x40 MSTORE DUP1 PUSH1 0x0 DUP2 MSTORE POP PUSH2 0x1BEE JUMP JUMPDEST DUP1 PUSH2 0x1BCD DUP5 PUSH2 0x2635 JUMP JUMPDEST PUSH1 0x40 MLOAD PUSH1 0x20 ADD PUSH2 0x1BDE SWAP3 SWAP2 SWAP1 PUSH2 0x455C JUMP JUMPDEST PUSH1 0x40 MLOAD PUSH1 0x20 DUP2 DUP4 SUB SUB DUP2 MSTORE SWAP1 PUSH1 0x40 MSTORE JUMPDEST SWAP2 POP POP SWAP2 SWAP1 POP JUMP JUMPDEST PUSH1 0x17 PUSH1 0x20 MSTORE DUP1 PUSH1 0x0 MSTORE PUSH1 0x40 PUSH1 0x0 KECCAK256 PUSH1 0x0 SWAP2 POP SLOAD SWAP1 PUSH2 0x100 EXP SWAP1 DIV PUSH1 0xFF AND DUP2 JUMP JUMPDEST PUSH2 0x1C1E PUSH2 0x1EBD JUMP JUMPDEST PUSH1 0x0 JUMPDEST DUP3 DUP3 SWAP1 POP DUP2 LT ISZERO PUSH2 0x1CB6 JUMPI PUSH1 0x1 PUSH1 0x17 PUSH1 0x0 DUP6 DUP6 DUP6 DUP2 DUP2 LT PUSH2 0x1C45 JUMPI PUSH2 0x1C44 PUSH2 0x3C82 JUMP JUMPDEST JUMPDEST SWAP1 POP PUSH1 0x20 MUL ADD PUSH1 0x20 DUP2 ADD SWAP1 PUSH2 0x1C5A SWAP2 SWAP1 PUSH2 0x3669 JUMP JUMPDEST PUSH20 0xFFFFFFFFFFFFFFFFFFFFFFFFFFFFFFFFFFFFFFFF AND PUSH20 0xFFFFFFFFFFFFFFFFFFFFFFFFFFFFFFFFFFFFFFFF AND DUP2 MSTORE PUSH1 0x20 ADD SWAP1 DUP2 MSTORE PUSH1 0x20 ADD PUSH1 0x0 KECCAK256 PUSH1 0x0 PUSH2 0x100 EXP DUP2 SLOAD DUP2 PUSH1 0xFF MUL NOT AND SWAP1 DUP4 ISZERO ISZERO MUL OR SWAP1 SSTORE POP DUP1 PUSH1 0x1 ADD SWAP1 POP PUSH2 0x1C21 JUMP JUMPDEST POP POP POP JUMP JUMPDEST PUSH1 0x12 SLOAD DUP2 JUMP JUMPDEST PUSH1 0x0 PUSH1 0x5 PUSH1 0x0 DUP5 PUSH20 0xFFFFFFFFFFFFFFFFFFFFFFFFFFFFFFFFFFFFFFFF AND PUSH20 0xFFFFFFFFFFFFFFFFFFFFFFFFFFFFFFFFFFFFFFFF AND DUP2 MSTORE PUSH1 0x20 ADD SWAP1 DUP2 MSTORE PUSH1 0x20 ADD PUSH1 0x0 KECCAK256 PUSH1 0x0 DUP4 PUSH20 0xFFFFFFFFFFFFFFFFFFFFFFFFFFFFFFFFFFFFFFFF AND PUSH20 0xFFFFFFFFFFFFFFFFFFFFFFFFFFFFFFFFFFFFFFFF AND DUP2 MSTORE PUSH1 0x20 ADD SWAP1 DUP2 MSTORE PUSH1 0x20 ADD PUSH1 0x0 KECCAK256 PUSH1 0x0 SWAP1 SLOAD SWAP1 PUSH2 0x100 EXP SWAP1 DIV PUSH1 0xFF AND SWAP1 POP SWAP3 SWAP2 POP POP JUMP JUMPDEST PUSH2 0x1D5D PUSH2 0x1EBD JUMP JUMPDEST PUSH1 0x0 PUSH20 0xFFFFFFFFFFFFFFFFFFFFFFFFFFFFFFFFFFFFFFFF AND DUP2 PUSH20 0xFFFFFFFFFFFFFFFFFFFFFFFFFFFFFFFFFFFFFFFF AND SUB PUSH2 0x1DCF JUMPI PUSH1 0x0 PUSH1 0x40 MLOAD PUSH32 0x1E4FBDF700000000000000000000000000000000000000000000000000000000 DUP2 MSTORE PUSH1 0x4 ADD PUSH2 0x1DC6 SWAP2 SWAP1 PUSH2 0x351C JUMP JUMPDEST PUSH1 0x40 MLOAD DUP1 SWAP2 SUB SWAP1 REVERT JUMPDEST PUSH2 0x1DD8 DUP2 PUSH2 0x2140 JUMP JUMPDEST POP JUMP JUMPDEST PUSH1 0x0 PUSH32 0x80AC58CD00000000000000000000000000000000000000000000000000000000 PUSH28 0xFFFFFFFFFFFFFFFFFFFFFFFFFFFFFFFFFFFFFFFFFFFFFFFFFFFFFFFF NOT AND DUP3 PUSH28 0xFFFFFFFFFFFFFFFFFFFFFFFFFFFFFFFFFFFFFFFFFFFFFFFFFFFFFFFF NOT AND EQ DUP1 PUSH2 0x1EA6 JUMPI POP PUSH32 0x5B5E139F00000000000000000000000000000000000000000000000000000000 PUSH28 0xFFFFFFFFFFFFFFFFFFFFFFFFFFFFFFFFFFFFFFFFFFFFFFFFFFFFFFFF NOT AND DUP3 PUSH28 0xFFFFFFFFFFFFFFFFFFFFFFFFFFFFFFFFFFFFFFFFFFFFFFFFFFFFFFFF NOT AND EQ JUMPDEST DUP1 PUSH2 0x1EB6 JUMPI POP PUSH2 0x1EB5 DUP3 PUSH2 0x2703 JUMP JUMPDEST JUMPDEST SWAP1 POP SWAP2 SWAP1 POP JUMP JUMPDEST PUSH2 0x1EC5 PUSH2 0x2009 JUMP JUMPDEST PUSH20 0xFFFFFFFFFFFFFFFFFFFFFFFFFFFFFFFFFFFFFFFF AND PUSH2 0x1EE3 PUSH2 0x141D JUMP JUMPDEST PUSH20 0xFFFFFFFFFFFFFFFFFFFFFFFFFFFFFFFFFFFFFFFF AND EQ PUSH2 0x1F42 JUMPI PUSH2 0x1F06 PUSH2 0x2009 JUMP JUMPDEST PUSH1 0x40 MLOAD PUSH32 0x118CDAA700000000000000000000000000000000000000000000000000000000 DUP2 MSTORE PUSH1 0x4 ADD PUSH2 0x1F39 SWAP2 SWAP1 PUSH2 0x351C JUMP JUMPDEST PUSH1 0x40 MLOAD DUP1 SWAP2 SUB SWAP1 REVERT JUMPDEST JUMP JUMPDEST PUSH1 0x0 DUP1 PUSH2 0x1F50 DUP4 PUSH2 0x276D JUMP JUMPDEST SWAP1 POP PUSH1 0x0 PUSH20 0xFFFFFFFFFFFFFFFFFFFFFFFFFFFFFFFFFFFFFFFF AND DUP2 PUSH20 0xFFFFFFFFFFFFFFFFFFFFFFFFFFFFFFFFFFFFFFFF AND SUB PUSH2 0x1FC3 JUMPI DUP3 PUSH1 0x40 MLOAD PUSH32 0x7E27328900000000000000000000000000000000000000000000000000000000 DUP2 MSTORE PUSH1 0x4 ADD PUSH2 0x1FBA SWAP2 SWAP1 PUSH2 0x36A5 JUMP JUMPDEST PUSH1 0x40 MLOAD DUP1 SWAP2 SUB SWAP1 REVERT JUMPDEST DUP1 SWAP2 POP POP SWAP2 SWAP1 POP JUMP JUMPDEST PUSH1 0x0 PUSH1 0x4 PUSH1 0x0 DUP4 DUP2 MSTORE PUSH1 0x20 ADD SWAP1 DUP2 MSTORE PUSH1 0x20 ADD PUSH1 0x0 KECCAK256 PUSH1 0x0 SWAP1 SLOAD SWAP1 PUSH2 0x100 EXP SWAP1 DIV PUSH20 0xFFFFFFFFFFFFFFFFFFFFFFFFFFFFFFFFFFFFFFFF AND SWAP1 POP SWAP2 SWAP1 POP JUMP JUMPDEST PUSH1 0x0 CALLER SWAP1 POP SWAP1 JUMP JUMPDEST PUSH2 0x201E DUP4 DUP4 DUP4 PUSH1 0x1 PUSH2 0x27AA JUMP JUMPDEST POP POP POP JUMP JUMPDEST PUSH1 0x0 DUP1 PUSH2 0x2031 DUP6 DUP6 DUP6 PUSH2 0x296F JUMP JUMPDEST SWAP1 POP PUSH1 0x0 PUSH20 0xFFFFFFFFFFFFFFFFFFFFFFFFFFFFFFFFFFFFFFFF AND DUP2 PUSH20 0xFFFFFFFFFFFFFFFFFFFFFFFFFFFFFFFFFFFFFFFF AND SUB PUSH2 0x2075 JUMPI PUSH2 0x2070 DUP5 PUSH2 0x2B89 JUMP JUMPDEST PUSH2 0x20B4 JUMP JUMPDEST DUP5 PUSH20 0xFFFFFFFFFFFFFFFFFFFFFFFFFFFFFFFFFFFFFFFF AND DUP2 PUSH20 0xFFFFFFFFFFFFFFFFFFFFFFFFFFFFFFFFFFFFFFFF AND EQ PUSH2 0x20B3 JUMPI PUSH2 0x20B2 DUP2 DUP6 PUSH2 0x2BD2 JUMP JUMPDEST JUMPDEST JUMPDEST PUSH1 0x0 PUSH20 0xFFFFFFFFFFFFFFFFFFFFFFFFFFFFFFFFFFFFFFFF AND DUP6 PUSH20 0xFFFFFFFFFFFFFFFFFFFFFFFFFFFFFFFFFFFFFFFF AND SUB PUSH2 0x20F6 JUMPI PUSH2 0x20F1 DUP5 PUSH2 0x2D33 JUMP JUMPDEST PUSH2 0x2135 JUMP JUMPDEST DUP5 PUSH20 0xFFFFFFFFFFFFFFFFFFFFFFFFFFFFFFFFFFFFFFFF AND DUP2 PUSH20 0xFFFFFFFFFFFFFFFFFFFFFFFFFFFFFFFFFFFFFFFF AND EQ PUSH2 0x2134 JUMPI PUSH2 0x2133 DUP6 DUP6 PUSH2 0x2E04 JUMP JUMPDEST JUMPDEST JUMPDEST DUP1 SWAP2 POP POP SWAP4 SWAP3 POP POP POP JUMP JUMPDEST PUSH1 0x0 PUSH1 0xA PUSH1 0x0 SWAP1 SLOAD SWAP1 PUSH2 0x100 EXP SWAP1 DIV PUSH20 0xFFFFFFFFFFFFFFFFFFFFFFFFFFFFFFFFFFFFFFFF AND SWAP1 POP DUP2 PUSH1 0xA PUSH1 0x0 PUSH2 0x100 EXP DUP2 SLOAD DUP2 PUSH20 0xFFFFFFFFFFFFFFFFFFFFFFFFFFFFFFFFFFFFFFFF MUL NOT AND SWAP1 DUP4 PUSH20 0xFFFFFFFFFFFFFFFFFFFFFFFFFFFFFFFFFFFFFFFF AND MUL OR SWAP1 SSTORE POP DUP2 PUSH20 0xFFFFFFFFFFFFFFFFFFFFFFFFFFFFFFFFFFFFFFFF AND DUP2 PUSH20 0xFFFFFFFFFFFFFFFFFFFFFFFFFFFFFFFFFFFFFFFF AND PUSH32 0x8BE0079C531659141344CD1FD0A4F28419497F9722A3DAAFE3B4186F6B6457E0 PUSH1 0x40 MLOAD PUSH1 0x40 MLOAD DUP1 SWAP2 SUB SWAP1 LOG3 POP POP JUMP JUMPDEST PUSH1 0x2 PUSH1 0xB SLOAD SUB PUSH2 0x224B JUMPI PUSH1 0x40 MLOAD PUSH32 0x8C379A000000000000000000000000000000000000000000000000000000000 DUP2 MSTORE PUSH1 0x4 ADD PUSH2 0x2242 SWAP1 PUSH2 0x45CC JUMP JUMPDEST PUSH1 0x40 MLOAD DUP1 SWAP2 SUB SWAP1 REVERT JUMPDEST PUSH1 0x2 PUSH1 0xB DUP2 SWAP1 SSTORE POP JUMP JUMPDEST PUSH2 0x226F DUP3 DUP3 PUSH1 0x40 MLOAD DUP1 PUSH1 0x20 ADD PUSH1 0x40 MSTORE DUP1 PUSH1 0x0 DUP2 MSTORE POP PUSH2 0x2E8F JUMP JUMPDEST POP POP JUMP JUMPDEST PUSH1 0x1 PUSH1 0xB DUP2 SWAP1 SSTORE POP JUMP JUMPDEST PUSH1 0x0 PUSH20 0xFFFFFFFFFFFFFFFFFFFFFFFFFFFFFFFFFFFFFFFF AND DUP3 PUSH20 0xFFFFFFFFFFFFFFFFFFFFFFFFFFFFFFFFFFFFFFFF AND SUB PUSH2 0x22EE JUMPI DUP2 PUSH1 0x40 MLOAD PUSH32 0x5B08BA1800000000000000000000000000000000000000000000000000000000 DUP2 MSTORE PUSH1 0x4 ADD PUSH2 0x22E5 SWAP2 SWAP1 PUSH2 0x351C JUMP JUMPDEST PUSH1 0x40 MLOAD DUP1 SWAP2 SUB SWAP1 REVERT JUMPDEST DUP1 PUSH1 0x5 PUSH1 0x0 DUP6 PUSH20 0xFFFFFFFFFFFFFFFFFFFFFFFFFFFFFFFFFFFFFFFF AND PUSH20 0xFFFFFFFFFFFFFFFFFFFFFFFFFFFFFFFFFFFFFFFF AND DUP2 MSTORE PUSH1 0x20 ADD SWAP1 DUP2 MSTORE PUSH1 0x20 ADD PUSH1 0x0 KECCAK256 PUSH1 0x0 DUP5 PUSH20 0xFFFFFFFFFFFFFFFFFFFFFFFFFFFFFFFFFFFFFFFF AND PUSH20 0xFFFFFFFFFFFFFFFFFFFFFFFFFFFFFFFFFFFFFFFF AND DUP2 MSTORE PUSH1 0x20 ADD SWAP1 DUP2 MSTORE PUSH1 0x20 ADD PUSH1 0x0 KECCAK256 PUSH1 0x0 PUSH2 0x100 EXP DUP2 SLOAD DUP2 PUSH1 0xFF MUL NOT AND SWAP1 DUP4 ISZERO ISZERO MUL OR SWAP1 SSTORE POP DUP2 PUSH20 0xFFFFFFFFFFFFFFFFFFFFFFFFFFFFFFFFFFFFFFFF AND DUP4 PUSH20 0xFFFFFFFFFFFFFFFFFFFFFFFFFFFFFFFFFFFFFFFF AND PUSH32 0x17307EAB39AB6107E8899845AD3D59BD9653F200F220920489CA2B5937696C31 DUP4 PUSH1 0x40 MLOAD PUSH2 0x23DF SWAP2 SWAP1 PUSH2 0x3352 JUMP JUMPDEST PUSH1 0x40 MLOAD DUP1 SWAP2 SUB SWAP1 LOG3 POP POP POP JUMP JUMPDEST PUSH1 0x0 DUP4 PUSH20 0xFFFFFFFFFFFFFFFFFFFFFFFFFFFFFFFFFFFFFFFF AND EXTCODESIZE GT ISZERO PUSH2 0x259D JUMPI DUP3 PUSH20 0xFFFFFFFFFFFFFFFFFFFFFFFFFFFFFFFFFFFFFFFF AND PUSH4 0x150B7A02 PUSH2 0x2430 PUSH2 0x2009 JUMP JUMPDEST DUP7 DUP6 DUP6 PUSH1 0x40 MLOAD DUP6 PUSH4 0xFFFFFFFF AND PUSH1 0xE0 SHL DUP2 MSTORE PUSH1 0x4 ADD PUSH2 0x2452 SWAP5 SWAP4 SWAP3 SWAP2 SWAP1 PUSH2 0x4641 JUMP JUMPDEST PUSH1 0x20 PUSH1 0x40 MLOAD DUP1 DUP4 SUB DUP2 PUSH1 0x0 DUP8 GAS CALL SWAP3 POP POP POP DUP1 ISZERO PUSH2 0x248E JUMPI POP PUSH1 0x40 MLOAD RETURNDATASIZE PUSH1 0x1F NOT PUSH1 0x1F DUP3 ADD AND DUP3 ADD DUP1 PUSH1 0x40 MSTORE POP DUP2 ADD SWAP1 PUSH2 0x248B SWAP2 SWAP1 PUSH2 0x46A2 JUMP JUMPDEST PUSH1 0x1 JUMPDEST PUSH2 0x2512 JUMPI RETURNDATASIZE DUP1 PUSH1 0x0 DUP2 EQ PUSH2 0x24BE JUMPI PUSH1 0x40 MLOAD SWAP2 POP PUSH1 0x1F NOT PUSH1 0x3F RETURNDATASIZE ADD AND DUP3 ADD PUSH1 0x40 MSTORE RETURNDATASIZE DUP3 MSTORE RETURNDATASIZE PUSH1 0x0 PUSH1 0x20 DUP5 ADD RETURNDATACOPY PUSH2 0x24C3 JUMP JUMPDEST PUSH1 0x60 SWAP2 POP JUMPDEST POP PUSH1 0x0 DUP2 MLOAD SUB PUSH2 0x250A JUMPI DUP4 PUSH1 0x40 MLOAD PUSH32 0x64A0AE9200000000000000000000000000000000000000000000000000000000 DUP2 MSTORE PUSH1 0x4 ADD PUSH2 0x2501 SWAP2 SWAP1 PUSH2 0x351C JUMP JUMPDEST PUSH1 0x40 MLOAD DUP1 SWAP2 SUB SWAP1 REVERT JUMPDEST DUP1 MLOAD DUP2 PUSH1 0x20 ADD REVERT JUMPDEST PUSH4 0x150B7A02 PUSH1 0xE0 SHL PUSH28 0xFFFFFFFFFFFFFFFFFFFFFFFFFFFFFFFFFFFFFFFFFFFFFFFFFFFFFFFF NOT AND DUP2 PUSH28 0xFFFFFFFFFFFFFFFFFFFFFFFFFFFFFFFFFFFFFFFFFFFFFFFFFFFFFFFF NOT AND EQ PUSH2 0x259B JUMPI DUP4 PUSH1 0x40 MLOAD PUSH32 0x64A0AE9200000000000000000000000000000000000000000000000000000000 DUP2 MSTORE PUSH1 0x4 ADD PUSH2 0x2592 SWAP2 SWAP1 PUSH2 0x351C JUMP JUMPDEST PUSH1 0x40 MLOAD DUP1 SWAP2 SUB SWAP1 REVERT JUMPDEST POP JUMPDEST POP POP POP POP JUMP JUMPDEST PUSH1 0x60 PUSH1 0xC DUP1 SLOAD PUSH2 0x25B2 SWAP1 PUSH2 0x3BF1 JUMP JUMPDEST DUP1 PUSH1 0x1F ADD PUSH1 0x20 DUP1 SWAP2 DIV MUL PUSH1 0x20 ADD PUSH1 0x40 MLOAD SWAP1 DUP2 ADD PUSH1 0x40 MSTORE DUP1 SWAP3 SWAP2 SWAP1 DUP2 DUP2 MSTORE PUSH1 0x20 ADD DUP3 DUP1 SLOAD PUSH2 0x25DE SWAP1 PUSH2 0x3BF1 JUMP JUMPDEST DUP1 ISZERO PUSH2 0x262B JUMPI DUP1 PUSH1 0x1F LT PUSH2 0x2600 JUMPI PUSH2 0x100 DUP1 DUP4 SLOAD DIV MUL DUP4 MSTORE SWAP2 PUSH1 0x20 ADD SWAP2 PUSH2 0x262B JUMP JUMPDEST DUP3 ADD SWAP2 SWAP1 PUSH1 0x0 MSTORE PUSH1 0x20 PUSH1 0x0 KECCAK256 SWAP1 JUMPDEST DUP2 SLOAD DUP2 MSTORE SWAP1 PUSH1 0x1 ADD SWAP1 PUSH1 0x20 ADD DUP1 DUP4 GT PUSH2 0x260E JUMPI DUP3 SWAP1 SUB PUSH1 0x1F AND DUP3 ADD SWAP2 JUMPDEST POP POP POP POP POP SWAP1 POP SWAP1 JUMP JUMPDEST PUSH1 0x60 PUSH1 0x0 PUSH1 0x1 PUSH2 0x2644 DUP5 PUSH2 0x2EAB JUMP JUMPDEST ADD SWAP1 POP PUSH1 0x0 DUP2 PUSH8 0xFFFFFFFFFFFFFFFF DUP2 GT ISZERO PUSH2 0x2663 JUMPI PUSH2 0x2662 PUSH2 0x38AA JUMP JUMPDEST JUMPDEST PUSH1 0x40 MLOAD SWAP1 DUP1 DUP3 MSTORE DUP1 PUSH1 0x1F ADD PUSH1 0x1F NOT AND PUSH1 0x20 ADD DUP3 ADD PUSH1 0x40 MSTORE DUP1 ISZERO PUSH2 0x2695 JUMPI DUP2 PUSH1 0x20 ADD PUSH1 0x1 DUP3 MUL DUP1 CALLDATASIZE DUP4 CALLDATACOPY DUP1 DUP3 ADD SWAP2 POP POP SWAP1 POP JUMPDEST POP SWAP1 POP PUSH1 0x0 DUP3 PUSH1 0x20 ADD DUP3 ADD SWAP1 POP JUMPDEST PUSH1 0x1 ISZERO PUSH2 0x26F8 JUMPI DUP1 DUP1 PUSH1 0x1 SWAP1 SUB SWAP2 POP POP PUSH32 0x3031323334353637383961626364656600000000000000000000000000000000 PUSH1 0xA DUP7 MOD BYTE DUP2 MSTORE8 PUSH1 0xA DUP6 DUP2 PUSH2 0x26EC JUMPI PUSH2 0x26EB PUSH2 0x3D22 JUMP JUMPDEST JUMPDEST DIV SWAP5 POP PUSH1 0x0 DUP6 SUB PUSH2 0x26A3 JUMPI JUMPDEST DUP2 SWAP4 POP POP POP POP SWAP2 SWAP1 POP JUMP JUMPDEST PUSH1 0x0 PUSH32 0x1FFC9A700000000000000000000000000000000000000000000000000000000 PUSH28 0xFFFFFFFFFFFFFFFFFFFFFFFFFFFFFFFFFFFFFFFFFFFFFFFFFFFFFFFF NOT AND DUP3 PUSH28 0xFFFFFFFFFFFFFFFFFFFFFFFFFFFFFFFFFFFFFFFFFFFFFFFFFFFFFFFF NOT AND EQ SWAP1 POP SWAP2 SWAP1 POP JUMP JUMPDEST PUSH1 0x0 PUSH1 0x2 PUSH1 0x0 DUP4 DUP2 MSTORE PUSH1 0x20 ADD SWAP1 DUP2 MSTORE PUSH1 0x20 ADD PUSH1 0x0 KECCAK256 PUSH1 0x0 SWAP1 SLOAD SWAP1 PUSH2 0x100 EXP SWAP1 DIV PUSH20 0xFFFFFFFFFFFFFFFFFFFFFFFFFFFFFFFFFFFFFFFF AND SWAP1 POP SWAP2 SWAP1 POP JUMP JUMPDEST DUP1 DUP1 PUSH2 0x27E3 JUMPI POP PUSH1 0x0 PUSH20 0xFFFFFFFFFFFFFFFFFFFFFFFFFFFFFFFFFFFFFFFF AND DUP3 PUSH20 0xFFFFFFFFFFFFFFFFFFFFFFFFFFFFFFFFFFFFFFFF AND EQ ISZERO JUMPDEST ISZERO PUSH2 0x2917 JUMPI PUSH1 0x0 PUSH2 0x27F3 DUP5 PUSH2 0x1F44 JUMP JUMPDEST SWAP1 POP PUSH1 0x0 PUSH20 0xFFFFFFFFFFFFFFFFFFFFFFFFFFFFFFFFFFFFFFFF AND DUP4 PUSH20 0xFFFFFFFFFFFFFFFFFFFFFFFFFFFFFFFFFFFFFFFF AND EQ ISZERO DUP1 ISZERO PUSH2 0x285E JUMPI POP DUP3 PUSH20 0xFFFFFFFFFFFFFFFFFFFFFFFFFFFFFFFFFFFFFFFF AND DUP2 PUSH20 0xFFFFFFFFFFFFFFFFFFFFFFFFFFFFFFFFFFFFFFFF AND EQ ISZERO JUMPDEST DUP1 ISZERO PUSH2 0x2871 JUMPI POP PUSH2 0x286F DUP2 DUP5 PUSH2 0x1CC1 JUMP JUMPDEST ISZERO JUMPDEST ISZERO PUSH2 0x28B3 JUMPI DUP3 PUSH1 0x40 MLOAD PUSH32 0xA9FBF51F00000000000000000000000000000000000000000000000000000000 DUP2 MSTORE PUSH1 0x4 ADD PUSH2 0x28AA SWAP2 SWAP1 PUSH2 0x351C JUMP JUMPDEST PUSH1 0x40 MLOAD DUP1 SWAP2 SUB SWAP1 REVERT JUMPDEST DUP2 ISZERO PUSH2 0x2915 JUMPI DUP4 DUP6 PUSH20 0xFFFFFFFFFFFFFFFFFFFFFFFFFFFFFFFFFFFFFFFF AND DUP3 PUSH20 0xFFFFFFFFFFFFFFFFFFFFFFFFFFFFFFFFFFFFFFFF AND PUSH32 0x8C5BE1E5EBEC7D5BD14F71427D1E84F3DD0314C0F7B2291E5B200AC8C7C3B925 PUSH1 0x40 MLOAD PUSH1 0x40 MLOAD DUP1 SWAP2 SUB SWAP1 LOG4 JUMPDEST POP JUMPDEST DUP4 PUSH1 0x4 PUSH1 0x0 DUP6 DUP2 MSTORE PUSH1 0x20 ADD SWAP1 DUP2 MSTORE PUSH1 0x20 ADD PUSH1 0x0 KECCAK256 PUSH1 0x0 PUSH2 0x100 EXP DUP2 SLOAD DUP2 PUSH20 0xFFFFFFFFFFFFFFFFFFFFFFFFFFFFFFFFFFFFFFFF MUL NOT AND SWAP1 DUP4 PUSH20 0xFFFFFFFFFFFFFFFFFFFFFFFFFFFFFFFFFFFFFFFF AND MUL OR SWAP1 SSTORE POP POP POP POP POP JUMP JUMPDEST PUSH1 0x0 DUP1 PUSH2 0x297B DUP5 PUSH2 0x276D JUMP JUMPDEST SWAP1 POP PUSH1 0x0 PUSH20 0xFFFFFFFFFFFFFFFFFFFFFFFFFFFFFFFFFFFFFFFF AND DUP4 PUSH20 0xFFFFFFFFFFFFFFFFFFFFFFFFFFFFFFFFFFFFFFFF AND EQ PUSH2 0x29BD JUMPI PUSH2 0x29BC DUP2 DUP5 DUP7 PUSH2 0x2FFE JUMP JUMPDEST JUMPDEST PUSH1 0x0 PUSH20 0xFFFFFFFFFFFFFFFFFFFFFFFFFFFFFFFFFFFFFFFF AND DUP2 PUSH20 0xFFFFFFFFFFFFFFFFFFFFFFFFFFFFFFFFFFFFFFFF AND EQ PUSH2 0x2A4E JUMPI PUSH2 0x29FF PUSH1 0x0 DUP6 PUSH1 0x0 DUP1 PUSH2 0x27AA JUMP JUMPDEST PUSH1 0x1 PUSH1 0x3 PUSH1 0x0 DUP4 PUSH20 0xFFFFFFFFFFFFFFFFFFFFFFFFFFFFFFFFFFFFFFFF AND PUSH20 0xFFFFFFFFFFFFFFFFFFFFFFFFFFFFFFFFFFFFFFFF AND DUP2 MSTORE PUSH1 0x20 ADD SWAP1 DUP2 MSTORE PUSH1 0x20 ADD PUSH1 0x0 KECCAK256 PUSH1 0x0 DUP3 DUP3 SLOAD SUB SWAP3 POP POP DUP2 SWAP1 SSTORE POP JUMPDEST PUSH1 0x0 PUSH20 0xFFFFFFFFFFFFFFFFFFFFFFFFFFFFFFFFFFFFFFFF AND DUP6 PUSH20 0xFFFFFFFFFFFFFFFFFFFFFFFFFFFFFFFFFFFFFFFF AND EQ PUSH2 0x2AD1 JUMPI PUSH1 0x1 PUSH1 0x3 PUSH1 0x0 DUP8 PUSH20 0xFFFFFFFFFFFFFFFFFFFFFFFFFFFFFFFFFFFFFFFF AND PUSH20 0xFFFFFFFFFFFFFFFFFFFFFFFFFFFFFFFFFFFFFFFF AND DUP2 MSTORE PUSH1 0x20 ADD SWAP1 DUP2 MSTORE PUSH1 0x20 ADD PUSH1 0x0 KECCAK256 PUSH1 0x0 DUP3 DUP3 SLOAD ADD SWAP3 POP POP DUP2 SWAP1 SSTORE POP JUMPDEST DUP5 PUSH1 0x2 PUSH1 0x0 DUP7 DUP2 MSTORE PUSH1 0x20 ADD SWAP1 DUP2 MSTORE PUSH1 0x20 ADD PUSH1 0x0 KECCAK256 PUSH1 0x0 PUSH2 0x100 EXP DUP2 SLOAD DUP2 PUSH20 0xFFFFFFFFFFFFFFFFFFFFFFFFFFFFFFFFFFFFFFFF MUL NOT AND SWAP1 DUP4 PUSH20 0xFFFFFFFFFFFFFFFFFFFFFFFFFFFFFFFFFFFFFFFF AND MUL OR SWAP1 SSTORE POP DUP4 DUP6 PUSH20 0xFFFFFFFFFFFFFFFFFFFFFFFFFFFFFFFFFFFFFFFF AND DUP3 PUSH20 0xFFFFFFFFFFFFFFFFFFFFFFFFFFFFFFFFFFFFFFFF AND PUSH32 0xDDF252AD1BE2C89B69C2B068FC378DAA952BA7F163C4A11628F55A4DF523B3EF PUSH1 0x40 MLOAD PUSH1 0x40 MLOAD DUP1 SWAP2 SUB SWAP1 LOG4 DUP1 SWAP2 POP POP SWAP4 SWAP3 POP POP POP JUMP JUMPDEST PUSH1 0x8 DUP1 SLOAD SWAP1 POP PUSH1 0x9 PUSH1 0x0 DUP4 DUP2 MSTORE PUSH1 0x20 ADD SWAP1 DUP2 MSTORE PUSH1 0x20 ADD PUSH1 0x0 KECCAK256 DUP2 SWAP1 SSTORE POP PUSH1 0x8 DUP2 SWAP1 DUP1 PUSH1 0x1 DUP2 SLOAD ADD DUP1 DUP3 SSTORE DUP1 SWAP2 POP POP PUSH1 0x1 SWAP1 SUB SWAP1 PUSH1 0x0 MSTORE PUSH1 0x20 PUSH1 0x0 KECCAK256 ADD PUSH1 0x0 SWAP1 SWAP2 SWAP1 SWAP2 SWAP1 SWAP2 POP SSTORE POP JUMP JUMPDEST PUSH1 0x0 PUSH2 0x2BDD DUP4 PUSH2 0x126C JUMP JUMPDEST SWAP1 POP PUSH1 0x0 PUSH1 0x7 PUSH1 0x0 DUP5 DUP2 MSTORE PUSH1 0x20 ADD SWAP1 DUP2 MSTORE PUSH1 0x20 ADD PUSH1 0x0 KECCAK256 SLOAD SWAP1 POP DUP2 DUP2 EQ PUSH2 0x2CC2 JUMPI PUSH1 0x0 PUSH1 0x6 PUSH1 0x0 DUP7 PUSH20 0xFFFFFFFFFFFFFFFFFFFFFFFFFFFFFFFFFFFFFFFF AND PUSH20 0xFFFFFFFFFFFFFFFFFFFFFFFFFFFFFFFFFFFFFFFF AND DUP2 MSTORE PUSH1 0x20 ADD SWAP1 DUP2 MSTORE PUSH1 0x20 ADD PUSH1 0x0 KECCAK256 PUSH1 0x0 DUP5 DUP2 MSTORE PUSH1 0x20 ADD SWAP1 DUP2 MSTORE PUSH1 0x20 ADD PUSH1 0x0 KECCAK256 SLOAD SWAP1 POP DUP1 PUSH1 0x6 PUSH1 0x0 DUP8 PUSH20 0xFFFFFFFFFFFFFFFFFFFFFFFFFFFFFFFFFFFFFFFF AND PUSH20 0xFFFFFFFFFFFFFFFFFFFFFFFFFFFFFFFFFFFFFFFF AND DUP2 MSTORE PUSH1 0x20 ADD SWAP1 DUP2 MSTORE PUSH1 0x20 ADD PUSH1 0x0 KECCAK256 PUSH1 0x0 DUP5 DUP2 MSTORE PUSH1 0x20 ADD SWAP1 DUP2 MSTORE PUSH1 0x20 ADD PUSH1 0x0 KECCAK256 DUP2 SWAP1 SSTORE POP DUP2 PUSH1 0x7 PUSH1 0x0 DUP4 DUP2 MSTORE PUSH1 0x20 ADD SWAP1 DUP2 MSTORE PUSH1 0x20 ADD PUSH1 0x0 KECCAK256 DUP2 SWAP1 SSTORE POP POP JUMPDEST PUSH1 0x7 PUSH1 0x0 DUP5 DUP2 MSTORE PUSH1 0x20 ADD SWAP1 DUP2 MSTORE PUSH1 0x20 ADD PUSH1 0x0 KECCAK256 PUSH1 0x0 SWAP1 SSTORE PUSH1 0x6 PUSH1 0x0 DUP6 PUSH20 0xFFFFFFFFFFFFFFFFFFFFFFFFFFFFFFFFFFFFFFFF AND PUSH20 0xFFFFFFFFFFFFFFFFFFFFFFFFFFFFFFFFFFFFFFFF AND DUP2 MSTORE PUSH1 0x20 ADD SWAP1 DUP2 MSTORE PUSH1 0x20 ADD PUSH1 0x0 KECCAK256 PUSH1 0x0 DUP4 DUP2 MSTORE PUSH1 0x20 ADD SWAP1 DUP2 MSTORE PUSH1 0x20 ADD PUSH1 0x0 KECCAK256 PUSH1 0x0 SWAP1 SSTORE POP POP POP POP JUMP JUMPDEST PUSH1 0x0 PUSH1 0x1 PUSH1 0x8 DUP1 SLOAD SWAP1 POP PUSH2 0x2D47 SWAP2 SWAP1 PUSH2 0x46CF JUMP JUMPDEST SWAP1 POP PUSH1 0x0 PUSH1 0x9 PUSH1 0x0 DUP5 DUP2 MSTORE PUSH1 0x20 ADD SWAP1 DUP2 MSTORE PUSH1 0x20 ADD PUSH1 0x0 KECCAK256 SLOAD SWAP1 POP PUSH1 0x0 PUSH1 0x8 DUP4 DUP2 SLOAD DUP2 LT PUSH2 0x2D77 JUMPI PUSH2 0x2D76 PUSH2 0x3C82 JUMP JUMPDEST JUMPDEST SWAP1 PUSH1 0x0 MSTORE PUSH1 0x20 PUSH1 0x0 KECCAK256 ADD SLOAD SWAP1 POP DUP1 PUSH1 0x8 DUP4 DUP2 SLOAD DUP2 LT PUSH2 0x2D99 JUMPI PUSH2 0x2D98 PUSH2 0x3C82 JUMP JUMPDEST JUMPDEST SWAP1 PUSH1 0x0 MSTORE PUSH1 0x20 PUSH1 0x0 KECCAK256 ADD DUP2 SWAP1 SSTORE POP DUP2 PUSH1 0x9 PUSH1 0x0 DUP4 DUP2 MSTORE PUSH1 0x20 ADD SWAP1 DUP2 MSTORE PUSH1 0x20 ADD PUSH1 0x0 KECCAK256 DUP2 SWAP1 SSTORE POP PUSH1 0x9 PUSH1 0x0 DUP6 DUP2 MSTORE PUSH1 0x20 ADD SWAP1 DUP2 MSTORE PUSH1 0x20 ADD PUSH1 0x0 KECCAK256 PUSH1 0x0 SWAP1 SSTORE PUSH1 0x8 DUP1 SLOAD DUP1 PUSH2 0x2DE8 JUMPI PUSH2 0x2DE7 PUSH2 0x4703 JUMP JUMPDEST JUMPDEST PUSH1 0x1 SWAP1 SUB DUP2 DUP2 SWAP1 PUSH1 0x0 MSTORE PUSH1 0x20 PUSH1 0x0 KECCAK256 ADD PUSH1 0x0 SWAP1 SSTORE SWAP1 SSTORE POP POP POP POP JUMP JUMPDEST PUSH1 0x0 PUSH1 0x1 PUSH2 0x2E11 DUP5 PUSH2 0x126C JUMP JUMPDEST PUSH2 0x2E1B SWAP2 SWAP1 PUSH2 0x46CF JUMP JUMPDEST SWAP1 POP DUP2 PUSH1 0x6 PUSH1 0x0 DUP6 PUSH20 0xFFFFFFFFFFFFFFFFFFFFFFFFFFFFFFFFFFFFFFFF AND PUSH20 0xFFFFFFFFFFFFFFFFFFFFFFFFFFFFFFFFFFFFFFFF AND DUP2 MSTORE PUSH1 0x20 ADD SWAP1 DUP2 MSTORE PUSH1 0x20 ADD PUSH1 0x0 KECCAK256 PUSH1 0x0 DUP4 DUP2 MSTORE PUSH1 0x20 ADD SWAP1 DUP2 MSTORE PUSH1 0x20 ADD PUSH1 0x0 KECCAK256 DUP2 SWAP1 SSTORE POP DUP1 PUSH1 0x7 PUSH1 0x0 DUP5 DUP2 MSTORE PUSH1 0x20 ADD SWAP1 DUP2 MSTORE PUSH1 0x20 ADD PUSH1 0x0 KECCAK256 DUP2 SWAP1 SSTORE POP POP POP POP JUMP JUMPDEST PUSH2 0x2E99 DUP4 DUP4 PUSH2 0x30C2 JUMP JUMPDEST PUSH2 0x2EA6 PUSH1 0x0 DUP5 DUP5 DUP5 PUSH2 0x23EC JUMP JUMPDEST POP POP POP JUMP JUMPDEST PUSH1 0x0 DUP1 PUSH1 0x0 SWAP1 POP PUSH27 0x184F03E93FF9F4DAA797ED6E38ED64BF6A1F010000000000000000 DUP4 LT PUSH2 0x2F09 JUMPI PUSH27 0x184F03E93FF9F4DAA797ED6E38ED64BF6A1F010000000000000000 DUP4 DUP2 PUSH2 0x2EFF JUMPI PUSH2 0x2EFE PUSH2 0x3D22 JUMP JUMPDEST JUMPDEST DIV SWAP3 POP PUSH1 0x40 DUP2 ADD SWAP1 POP JUMPDEST PUSH14 0x4EE2D6D415B85ACEF8100000000 DUP4 LT PUSH2 0x2F46 JUMPI PUSH14 0x4EE2D6D415B85ACEF8100000000 DUP4 DUP2 PUSH2 0x2F3C JUMPI PUSH2 0x2F3B PUSH2 0x3D22 JUMP JUMPDEST JUMPDEST DIV SWAP3 POP PUSH1 0x20 DUP2 ADD SWAP1 POP JUMPDEST PUSH7 0x2386F26FC10000 DUP4 LT PUSH2 0x2F75 JUMPI PUSH7 0x2386F26FC10000 DUP4 DUP2 PUSH2 0x2F6B JUMPI PUSH2 0x2F6A PUSH2 0x3D22 JUMP JUMPDEST JUMPDEST DIV SWAP3 POP PUSH1 0x10 DUP2 ADD SWAP1 POP JUMPDEST PUSH4 0x5F5E100 DUP4 LT PUSH2 0x2F9E JUMPI PUSH4 0x5F5E100 DUP4 DUP2 PUSH2 0x2F94 JUMPI PUSH2 0x2F93 PUSH2 0x3D22 JUMP JUMPDEST JUMPDEST DIV SWAP3 POP PUSH1 0x8 DUP2 ADD SWAP1 POP JUMPDEST PUSH2 0x2710 DUP4 LT PUSH2 0x2FC3 JUMPI PUSH2 0x2710 DUP4 DUP2 PUSH2 0x2FB9 JUMPI PUSH2 0x2FB8 PUSH2 0x3D22 JUMP JUMPDEST JUMPDEST DIV SWAP3 POP PUSH1 0x4 DUP2 ADD SWAP1 POP JUMPDEST PUSH1 0x64 DUP4 LT PUSH2 0x2FE6 JUMPI PUSH1 0x64 DUP4 DUP2 PUSH2 0x2FDC JUMPI PUSH2 0x2FDB PUSH2 0x3D22 JUMP JUMPDEST JUMPDEST DIV SWAP3 POP PUSH1 0x2 DUP2 ADD SWAP1 POP JUMPDEST PUSH1 0xA DUP4 LT PUSH2 0x2FF5 JUMPI PUSH1 0x1 DUP2 ADD SWAP1 POP JUMPDEST DUP1 SWAP2 POP POP SWAP2 SWAP1 POP JUMP JUMPDEST PUSH2 0x3009 DUP4 DUP4 DUP4 PUSH2 0x31BB JUMP JUMPDEST PUSH2 0x30BD JUMPI PUSH1 0x0 PUSH20 0xFFFFFFFFFFFFFFFFFFFFFFFFFFFFFFFFFFFFFFFF AND DUP4 PUSH20 0xFFFFFFFFFFFFFFFFFFFFFFFFFFFFFFFFFFFFFFFF AND SUB PUSH2 0x307E JUMPI DUP1 PUSH1 0x40 MLOAD PUSH32 0x7E27328900000000000000000000000000000000000000000000000000000000 DUP2 MSTORE PUSH1 0x4 ADD PUSH2 0x3075 SWAP2 SWAP1 PUSH2 0x36A5 JUMP JUMPDEST PUSH1 0x40 MLOAD DUP1 SWAP2 SUB SWAP1 REVERT JUMPDEST DUP2 DUP2 PUSH1 0x40 MLOAD PUSH32 0x177E802F00000000000000000000000000000000000000000000000000000000 DUP2 MSTORE PUSH1 0x4 ADD PUSH2 0x30B4 SWAP3 SWAP2 SWAP1 PUSH2 0x3C59 JUMP JUMPDEST PUSH1 0x40 MLOAD DUP1 SWAP2 SUB SWAP1 REVERT JUMPDEST POP POP POP JUMP JUMPDEST PUSH1 0x0 PUSH20 0xFFFFFFFFFFFFFFFFFFFFFFFFFFFFFFFFFFFFFFFF AND DUP3 PUSH20 0xFFFFFFFFFFFFFFFFFFFFFFFFFFFFFFFFFFFFFFFF AND SUB PUSH2 0x3134 JUMPI PUSH1 0x0 PUSH1 0x40 MLOAD PUSH32 0x64A0AE9200000000000000000000000000000000000000000000000000000000 DUP2 MSTORE PUSH1 0x4 ADD PUSH2 0x312B SWAP2 SWAP1 PUSH2 0x351C JUMP JUMPDEST PUSH1 0x40 MLOAD DUP1 SWAP2 SUB SWAP1 REVERT JUMPDEST PUSH1 0x0 PUSH2 0x3142 DUP4 DUP4 PUSH1 0x0 PUSH2 0x2023 JUMP JUMPDEST SWAP1 POP PUSH1 0x0 PUSH20 0xFFFFFFFFFFFFFFFFFFFFFFFFFFFFFFFFFFFFFFFF AND DUP2 PUSH20 0xFFFFFFFFFFFFFFFFFFFFFFFFFFFFFFFFFFFFFFFF AND EQ PUSH2 0x31B6 JUMPI PUSH1 0x0 PUSH1 0x40 MLOAD PUSH32 0x73C6AC6E00000000000000000000000000000000000000000000000000000000 DUP2 MSTORE PUSH1 0x4 ADD PUSH2 0x31AD SWAP2 SWAP1 PUSH2 0x351C JUMP JUMPDEST PUSH1 0x40 MLOAD DUP1 SWAP2 SUB SWAP1 REVERT JUMPDEST POP POP POP JUMP JUMPDEST PUSH1 0x0 DUP1 PUSH20 0xFFFFFFFFFFFFFFFFFFFFFFFFFFFFFFFFFFFFFFFF AND DUP4 PUSH20 0xFFFFFFFFFFFFFFFFFFFFFFFFFFFFFFFFFFFFFFFF AND EQ ISZERO DUP1 ISZERO PUSH2 0x3273 JUMPI POP DUP3 PUSH20 0xFFFFFFFFFFFFFFFFFFFFFFFFFFFFFFFFFFFFFFFF AND DUP5 PUSH20 0xFFFFFFFFFFFFFFFFFFFFFFFFFFFFFFFFFFFFFFFF AND EQ DUP1 PUSH2 0x3234 JUMPI POP PUSH2 0x3233 DUP5 DUP5 PUSH2 0x1CC1 JUMP JUMPDEST JUMPDEST DUP1 PUSH2 0x3272 JUMPI POP DUP3 PUSH20 0xFFFFFFFFFFFFFFFFFFFFFFFFFFFFFFFFFFFFFFFF AND PUSH2 0x325A DUP4 PUSH2 0x1FCC JUMP JUMPDEST PUSH20 0xFFFFFFFFFFFFFFFFFFFFFFFFFFFFFFFFFFFFFFFF AND EQ JUMPDEST JUMPDEST SWAP1 POP SWAP4 SWAP3 POP POP POP JUMP JUMPDEST PUSH1 0x40 MLOAD DUP1 PUSH1 0x60 ADD PUSH1 0x40 MSTORE DUP1 PUSH1 0x3 SWAP1 PUSH1 0x20 DUP3 MUL DUP1 CALLDATASIZE DUP4 CALLDATACOPY DUP1 DUP3 ADD SWAP2 POP POP SWAP1 POP POP SWAP1 JUMP JUMPDEST PUSH1 0x0 PUSH1 0x40 MLOAD SWAP1 POP SWAP1 JUMP JUMPDEST PUSH1 0x0 DUP1 REVERT JUMPDEST PUSH1 0x0 DUP1 REVERT JUMPDEST PUSH1 0x0 PUSH32 0xFFFFFFFF00000000000000000000000000000000000000000000000000000000 DUP3 AND SWAP1 POP SWAP2 SWAP1 POP JUMP JUMPDEST PUSH2 0x32E7 DUP2 PUSH2 0x32B2 JUMP JUMPDEST DUP2 EQ PUSH2 0x32F2 JUMPI PUSH1 0x0 DUP1 REVERT JUMPDEST POP JUMP JUMPDEST PUSH1 0x0 DUP2 CALLDATALOAD SWAP1 POP PUSH2 0x3304 DUP2 PUSH2 0x32DE JUMP JUMPDEST SWAP3 SWAP2 POP POP JUMP JUMPDEST PUSH1 0x0 PUSH1 0x20 DUP3 DUP5 SUB SLT ISZERO PUSH2 0x3320 JUMPI PUSH2 0x331F PUSH2 0x32A8 JUMP JUMPDEST JUMPDEST PUSH1 0x0 PUSH2 0x332E DUP5 DUP3 DUP6 ADD PUSH2 0x32F5 JUMP JUMPDEST SWAP2 POP POP SWAP3 SWAP2 POP POP JUMP JUMPDEST PUSH1 0x0 DUP2 ISZERO ISZERO SWAP1 POP SWAP2 SWAP1 POP JUMP JUMPDEST PUSH2 0x334C DUP2 PUSH2 0x3337 JUMP JUMPDEST DUP3 MSTORE POP POP JUMP JUMPDEST PUSH1 0x0 PUSH1 0x20 DUP3 ADD SWAP1 POP PUSH2 0x3367 PUSH1 0x0 DUP4 ADD DUP5 PUSH2 0x3343 JUMP JUMPDEST SWAP3 SWAP2 POP POP JUMP JUMPDEST PUSH2 0x3376 DUP2 PUSH2 0x3337 JUMP JUMPDEST DUP2 EQ PUSH2 0x3381 JUMPI PUSH1 0x0 DUP1 REVERT JUMPDEST POP JUMP JUMPDEST PUSH1 0x0 DUP2 CALLDATALOAD SWAP1 POP PUSH2 0x3393 DUP2 PUSH2 0x336D JUMP JUMPDEST SWAP3 SWAP2 POP POP JUMP JUMPDEST PUSH1 0x0 PUSH1 0x20 DUP3 DUP5 SUB SLT ISZERO PUSH2 0x33AF JUMPI PUSH2 0x33AE PUSH2 0x32A8 JUMP JUMPDEST JUMPDEST PUSH1 0x0 PUSH2 0x33BD DUP5 DUP3 DUP6 ADD PUSH2 0x3384 JUMP JUMPDEST SWAP2 POP POP SWAP3 SWAP2 POP POP JUMP JUMPDEST PUSH1 0x0 DUP2 MLOAD SWAP1 POP SWAP2 SWAP1 POP JUMP JUMPDEST PUSH1 0x0 DUP3 DUP3 MSTORE PUSH1 0x20 DUP3 ADD SWAP1 POP SWAP3 SWAP2 POP POP JUMP JUMPDEST PUSH1 0x0 JUMPDEST DUP4 DUP2 LT ISZERO PUSH2 0x3400 JUMPI DUP1 DUP3 ADD MLOAD DUP2 DUP5 ADD MSTORE PUSH1 0x20 DUP2 ADD SWAP1 POP PUSH2 0x33E5 JUMP JUMPDEST PUSH1 0x0 DUP5 DUP5 ADD MSTORE POP POP POP POP JUMP JUMPDEST PUSH1 0x0 PUSH1 0x1F NOT PUSH1 0x1F DUP4 ADD AND SWAP1 POP SWAP2 SWAP1 POP JUMP JUMPDEST PUSH1 0x0 PUSH2 0x3428 DUP3 PUSH2 0x33C6 JUMP JUMPDEST PUSH2 0x3432 DUP2 DUP6 PUSH2 0x33D1 JUMP JUMPDEST SWAP4 POP PUSH2 0x3442 DUP2 DUP6 PUSH1 0x20 DUP7 ADD PUSH2 0x33E2 JUMP JUMPDEST PUSH2 0x344B DUP2 PUSH2 0x340C JUMP JUMPDEST DUP5 ADD SWAP2 POP POP SWAP3 SWAP2 POP POP JUMP JUMPDEST PUSH1 0x0 PUSH1 0x20 DUP3 ADD SWAP1 POP DUP2 DUP2 SUB PUSH1 0x0 DUP4 ADD MSTORE PUSH2 0x3470 DUP2 DUP5 PUSH2 0x341D JUMP JUMPDEST SWAP1 POP SWAP3 SWAP2 POP POP JUMP JUMPDEST PUSH1 0x0 DUP2 SWAP1 POP SWAP2 SWAP1 POP JUMP JUMPDEST PUSH2 0x348B DUP2 PUSH2 0x3478 JUMP JUMPDEST DUP2 EQ PUSH2 0x3496 JUMPI PUSH1 0x0 DUP1 REVERT JUMPDEST POP JUMP JUMPDEST PUSH1 0x0 DUP2 CALLDATALOAD SWAP1 POP PUSH2 0x34A8 DUP2 PUSH2 0x3482 JUMP JUMPDEST SWAP3 SWAP2 POP POP JUMP JUMPDEST PUSH1 0x0 PUSH1 0x20 DUP3 DUP5 SUB SLT ISZERO PUSH2 0x34C4 JUMPI PUSH2 0x34C3 PUSH2 0x32A8 JUMP JUMPDEST JUMPDEST PUSH1 0x0 PUSH2 0x34D2 DUP5 DUP3 DUP6 ADD PUSH2 0x3499 JUMP JUMPDEST SWAP2 POP POP SWAP3 SWAP2 POP POP JUMP JUMPDEST PUSH1 0x0 PUSH20 0xFFFFFFFFFFFFFFFFFFFFFFFFFFFFFFFFFFFFFFFF DUP3 AND SWAP1 POP SWAP2 SWAP1 POP JUMP JUMPDEST PUSH1 0x0 PUSH2 0x3506 DUP3 PUSH2 0x34DB JUMP JUMPDEST SWAP1 POP SWAP2 SWAP1 POP JUMP JUMPDEST PUSH2 0x3516 DUP2 PUSH2 0x34FB JUMP JUMPDEST DUP3 MSTORE POP POP JUMP JUMPDEST PUSH1 0x0 PUSH1 0x20 DUP3 ADD SWAP1 POP PUSH2 0x3531 PUSH1 0x0 DUP4 ADD DUP5 PUSH2 0x350D JUMP JUMPDEST SWAP3 SWAP2 POP POP JUMP JUMPDEST PUSH2 0x3540 DUP2 PUSH2 0x34FB JUMP JUMPDEST DUP2 EQ PUSH2 0x354B JUMPI PUSH1 0x0 DUP1 REVERT JUMPDEST POP JUMP JUMPDEST PUSH1 0x0 DUP2 CALLDATALOAD SWAP1 POP PUSH2 0x355D DUP2 PUSH2 0x3537 JUMP JUMPDEST SWAP3 SWAP2 POP POP JUMP JUMPDEST PUSH1 0x0 DUP1 PUSH1 0x40 DUP4 DUP6 SUB SLT ISZERO PUSH2 0x357A JUMPI PUSH2 0x3579 PUSH2 0x32A8 JUMP JUMPDEST JUMPDEST PUSH1 0x0 PUSH2 0x3588 DUP6 DUP3 DUP7 ADD PUSH2 0x354E JUMP JUMPDEST SWAP3 POP POP PUSH1 0x20 PUSH2 0x3599 DUP6 DUP3 DUP7 ADD PUSH2 0x3499 JUMP JUMPDEST SWAP2 POP POP SWAP3 POP SWAP3 SWAP1 POP JUMP JUMPDEST PUSH1 0x0 PUSH1 0x3 SWAP1 POP SWAP2 SWAP1 POP JUMP JUMPDEST PUSH1 0x0 DUP2 SWAP1 POP SWAP3 SWAP2 POP POP JUMP JUMPDEST PUSH1 0x0 DUP2 SWAP1 POP SWAP2 SWAP1 POP JUMP JUMPDEST PUSH2 0x35CC DUP2 PUSH2 0x3337 JUMP JUMPDEST DUP3 MSTORE POP POP JUMP JUMPDEST PUSH1 0x0 PUSH2 0x35DE DUP4 DUP4 PUSH2 0x35C3 JUMP JUMPDEST PUSH1 0x20 DUP4 ADD SWAP1 POP SWAP3 SWAP2 POP POP JUMP JUMPDEST PUSH1 0x0 PUSH1 0x20 DUP3 ADD SWAP1 POP SWAP2 SWAP1 POP JUMP JUMPDEST PUSH2 0x3600 DUP2 PUSH2 0x35A3 JUMP JUMPDEST PUSH2 0x360A DUP2 DUP5 PUSH2 0x35AE JUMP JUMPDEST SWAP3 POP PUSH2 0x3615 DUP3 PUSH2 0x35B9 JUMP JUMPDEST DUP1 PUSH1 0x0 JUMPDEST DUP4 DUP2 LT ISZERO PUSH2 0x3646 JUMPI DUP2 MLOAD PUSH2 0x362D DUP8 DUP3 PUSH2 0x35D2 JUMP JUMPDEST SWAP7 POP PUSH2 0x3638 DUP4 PUSH2 0x35EA JUMP JUMPDEST SWAP3 POP POP PUSH1 0x1 DUP2 ADD SWAP1 POP PUSH2 0x3619 JUMP JUMPDEST POP POP POP POP POP POP JUMP JUMPDEST PUSH1 0x0 PUSH1 0x60 DUP3 ADD SWAP1 POP PUSH2 0x3663 PUSH1 0x0 DUP4 ADD DUP5 PUSH2 0x35F7 JUMP JUMPDEST SWAP3 SWAP2 POP POP JUMP JUMPDEST PUSH1 0x0 PUSH1 0x20 DUP3 DUP5 SUB SLT ISZERO PUSH2 0x367F JUMPI PUSH2 0x367E PUSH2 0x32A8 JUMP JUMPDEST JUMPDEST PUSH1 0x0 PUSH2 0x368D DUP5 DUP3 DUP6 ADD PUSH2 0x354E JUMP JUMPDEST SWAP2 POP POP SWAP3 SWAP2 POP POP JUMP JUMPDEST PUSH2 0x369F DUP2 PUSH2 0x3478 JUMP JUMPDEST DUP3 MSTORE POP POP JUMP JUMPDEST PUSH1 0x0 PUSH1 0x20 DUP3 ADD SWAP1 POP PUSH2 0x36BA PUSH1 0x0 DUP4 ADD DUP5 PUSH2 0x3696 JUMP JUMPDEST SWAP3 SWAP2 POP POP JUMP JUMPDEST PUSH1 0x0 DUP1 PUSH1 0x0 PUSH1 0x60 DUP5 DUP7 SUB SLT ISZERO PUSH2 0x36D9 JUMPI PUSH2 0x36D8 PUSH2 0x32A8 JUMP JUMPDEST JUMPDEST PUSH1 0x0 PUSH2 0x36E7 DUP7 DUP3 DUP8 ADD PUSH2 0x354E JUMP JUMPDEST SWAP4 POP POP PUSH1 0x20 PUSH2 0x36F8 DUP7 DUP3 DUP8 ADD PUSH2 0x354E JUMP JUMPDEST SWAP3 POP POP PUSH1 0x40 PUSH2 0x3709 DUP7 DUP3 DUP8 ADD PUSH2 0x3499 JUMP JUMPDEST SWAP2 POP POP SWAP3 POP SWAP3 POP SWAP3 JUMP JUMPDEST PUSH1 0x0 DUP1 REVERT JUMPDEST PUSH1 0x0 DUP1 REVERT JUMPDEST PUSH1 0x0 DUP1 REVERT JUMPDEST PUSH1 0x0 DUP1 DUP4 PUSH1 0x1F DUP5 ADD SLT PUSH2 0x3738 JUMPI PUSH2 0x3737 PUSH2 0x3713 JUMP JUMPDEST JUMPDEST DUP3 CALLDATALOAD SWAP1 POP PUSH8 0xFFFFFFFFFFFFFFFF DUP2 GT ISZERO PUSH2 0x3755 JUMPI PUSH2 0x3754 PUSH2 0x3718 JUMP JUMPDEST JUMPDEST PUSH1 0x20 DUP4 ADD SWAP2 POP DUP4 PUSH1 0x20 DUP3 MUL DUP4 ADD GT ISZERO PUSH2 0x3771 JUMPI PUSH2 0x3770 PUSH2 0x371D JUMP JUMPDEST JUMPDEST SWAP3 POP SWAP3 SWAP1 POP JUMP JUMPDEST PUSH1 0x0 DUP1 PUSH1 0x20 DUP4 DUP6 SUB SLT ISZERO PUSH2 0x378F JUMPI PUSH2 0x378E PUSH2 0x32A8 JUMP JUMPDEST JUMPDEST PUSH1 0x0 DUP4 ADD CALLDATALOAD PUSH8 0xFFFFFFFFFFFFFFFF DUP2 GT ISZERO PUSH2 0x37AD JUMPI PUSH2 0x37AC PUSH2 0x32AD JUMP JUMPDEST JUMPDEST PUSH2 0x37B9 DUP6 DUP3 DUP7 ADD PUSH2 0x3722 JUMP JUMPDEST SWAP3 POP SWAP3 POP POP SWAP3 POP SWAP3 SWAP1 POP JUMP JUMPDEST PUSH1 0x0 DUP2 MLOAD SWAP1 POP SWAP2 SWAP1 POP JUMP JUMPDEST PUSH1 0x0 DUP3 DUP3 MSTORE PUSH1 0x20 DUP3 ADD SWAP1 POP SWAP3 SWAP2 POP POP JUMP JUMPDEST PUSH1 0x0 DUP2 SWAP1 POP PUSH1 0x20 DUP3 ADD SWAP1 POP SWAP2 SWAP1 POP JUMP JUMPDEST PUSH2 0x37FA DUP2 PUSH2 0x3478 JUMP JUMPDEST DUP3 MSTORE POP POP JUMP JUMPDEST PUSH1 0x0 PUSH2 0x380C DUP4 DUP4 PUSH2 0x37F1 JUMP JUMPDEST PUSH1 0x20 DUP4 ADD SWAP1 POP SWAP3 SWAP2 POP POP JUMP JUMPDEST PUSH1 0x0 PUSH1 0x20 DUP3 ADD SWAP1 POP SWAP2 SWAP1 POP JUMP JUMPDEST PUSH1 0x0 PUSH2 0x3830 DUP3 PUSH2 0x37C5 JUMP JUMPDEST PUSH2 0x383A DUP2 DUP6 PUSH2 0x37D0 JUMP JUMPDEST SWAP4 POP PUSH2 0x3845 DUP4 PUSH2 0x37E1 JUMP JUMPDEST DUP1 PUSH1 0x0 JUMPDEST DUP4 DUP2 LT ISZERO PUSH2 0x3876 JUMPI DUP2 MLOAD PUSH2 0x385D DUP9 DUP3 PUSH2 0x3800 JUMP JUMPDEST SWAP8 POP PUSH2 0x3868 DUP4 PUSH2 0x3818 JUMP JUMPDEST SWAP3 POP POP PUSH1 0x1 DUP2 ADD SWAP1 POP PUSH2 0x3849 JUMP JUMPDEST POP DUP6 SWAP4 POP POP POP POP SWAP3 SWAP2 POP POP JUMP JUMPDEST PUSH1 0x0 PUSH1 0x20 DUP3 ADD SWAP1 POP DUP2 DUP2 SUB PUSH1 0x0 DUP4 ADD MSTORE PUSH2 0x389D DUP2 DUP5 PUSH2 0x3825 JUMP JUMPDEST SWAP1 POP SWAP3 SWAP2 POP POP JUMP JUMPDEST PUSH1 0x0 DUP1 REVERT JUMPDEST PUSH32 0x4E487B7100000000000000000000000000000000000000000000000000000000 PUSH1 0x0 MSTORE PUSH1 0x41 PUSH1 0x4 MSTORE PUSH1 0x24 PUSH1 0x0 REVERT JUMPDEST PUSH2 0x38E2 DUP3 PUSH2 0x340C JUMP JUMPDEST DUP2 ADD DUP2 DUP2 LT PUSH8 0xFFFFFFFFFFFFFFFF DUP3 GT OR ISZERO PUSH2 0x3901 JUMPI PUSH2 0x3900 PUSH2 0x38AA JUMP JUMPDEST JUMPDEST DUP1 PUSH1 0x40 MSTORE POP POP POP JUMP JUMPDEST PUSH1 0x0 PUSH2 0x3914 PUSH2 0x329E JUMP JUMPDEST SWAP1 POP PUSH2 0x3920 DUP3 DUP3 PUSH2 0x38D9 JUMP JUMPDEST SWAP2 SWAP1 POP JUMP JUMPDEST PUSH1 0x0 PUSH8 0xFFFFFFFFFFFFFFFF DUP3 GT ISZERO PUSH2 0x3940 JUMPI PUSH2 0x393F PUSH2 0x38AA JUMP JUMPDEST JUMPDEST PUSH2 0x3949 DUP3 PUSH2 0x340C JUMP JUMPDEST SWAP1 POP PUSH1 0x20 DUP2 ADD SWAP1 POP SWAP2 SWAP1 POP JUMP JUMPDEST DUP3 DUP2 DUP4 CALLDATACOPY PUSH1 0x0 DUP4 DUP4 ADD MSTORE POP POP POP JUMP JUMPDEST PUSH1 0x0 PUSH2 0x3978 PUSH2 0x3973 DUP5 PUSH2 0x3925 JUMP JUMPDEST PUSH2 0x390A JUMP JUMPDEST SWAP1 POP DUP3 DUP2 MSTORE PUSH1 0x20 DUP2 ADD DUP5 DUP5 DUP5 ADD GT ISZERO PUSH2 0x3994 JUMPI PUSH2 0x3993 PUSH2 0x38A5 JUMP JUMPDEST JUMPDEST PUSH2 0x399F DUP5 DUP3 DUP6 PUSH2 0x3956 JUMP JUMPDEST POP SWAP4 SWAP3 POP POP POP JUMP JUMPDEST PUSH1 0x0 DUP3 PUSH1 0x1F DUP4 ADD SLT PUSH2 0x39BC JUMPI PUSH2 0x39BB PUSH2 0x3713 JUMP JUMPDEST JUMPDEST DUP2 CALLDATALOAD PUSH2 0x39CC DUP5 DUP3 PUSH1 0x20 DUP7 ADD PUSH2 0x3965 JUMP JUMPDEST SWAP2 POP POP SWAP3 SWAP2 POP POP JUMP JUMPDEST PUSH1 0x0 PUSH1 0x20 DUP3 DUP5 SUB SLT ISZERO PUSH2 0x39EB JUMPI PUSH2 0x39EA PUSH2 0x32A8 JUMP JUMPDEST JUMPDEST PUSH1 0x0 DUP3 ADD CALLDATALOAD PUSH8 0xFFFFFFFFFFFFFFFF DUP2 GT ISZERO PUSH2 0x3A09 JUMPI PUSH2 0x3A08 PUSH2 0x32AD JUMP JUMPDEST JUMPDEST PUSH2 0x3A15 DUP5 DUP3 DUP6 ADD PUSH2 0x39A7 JUMP JUMPDEST SWAP2 POP POP SWAP3 SWAP2 POP POP JUMP JUMPDEST PUSH1 0x0 DUP1 PUSH1 0x40 DUP4 DUP6 SUB SLT ISZERO PUSH2 0x3A35 JUMPI PUSH2 0x3A34 PUSH2 0x32A8 JUMP JUMPDEST JUMPDEST PUSH1 0x0 PUSH2 0x3A43 DUP6 DUP3 DUP7 ADD PUSH2 0x354E JUMP JUMPDEST SWAP3 POP POP PUSH1 0x20 PUSH2 0x3A54 DUP6 DUP3 DUP7 ADD PUSH2 0x3384 JUMP JUMPDEST SWAP2 POP POP SWAP3 POP SWAP3 SWAP1 POP JUMP JUMPDEST PUSH1 0x0 PUSH8 0xFFFFFFFFFFFFFFFF DUP3 GT ISZERO PUSH2 0x3A79 JUMPI PUSH2 0x3A78 PUSH2 0x38AA JUMP JUMPDEST JUMPDEST PUSH2 0x3A82 DUP3 PUSH2 0x340C JUMP JUMPDEST SWAP1 POP PUSH1 0x20 DUP2 ADD SWAP1 POP SWAP2 SWAP1 POP JUMP JUMPDEST PUSH1 0x0 PUSH2 0x3AA2 PUSH2 0x3A9D DUP5 PUSH2 0x3A5E JUMP JUMPDEST PUSH2 0x390A JUMP JUMPDEST SWAP1 POP DUP3 DUP2 MSTORE PUSH1 0x20 DUP2 ADD DUP5 DUP5 DUP5 ADD GT ISZERO PUSH2 0x3ABE JUMPI PUSH2 0x3ABD PUSH2 0x38A5 JUMP JUMPDEST JUMPDEST PUSH2 0x3AC9 DUP5 DUP3 DUP6 PUSH2 0x3956 JUMP JUMPDEST POP SWAP4 SWAP3 POP POP POP JUMP JUMPDEST PUSH1 0x0 DUP3 PUSH1 0x1F DUP4 ADD SLT PUSH2 0x3AE6 JUMPI PUSH2 0x3AE5 PUSH2 0x3713 JUMP JUMPDEST JUMPDEST DUP2 CALLDATALOAD PUSH2 0x3AF6 DUP5 DUP3 PUSH1 0x20 DUP7 ADD PUSH2 0x3A8F JUMP JUMPDEST SWAP2 POP POP SWAP3 SWAP2 POP POP JUMP JUMPDEST PUSH1 0x0 DUP1 PUSH1 0x0 DUP1 PUSH1 0x80 DUP6 DUP8 SUB SLT ISZERO PUSH2 0x3B19 JUMPI PUSH2 0x3B18 PUSH2 0x32A8 JUMP JUMPDEST JUMPDEST PUSH1 0x0 PUSH2 0x3B27 DUP8 DUP3 DUP9 ADD PUSH2 0x354E JUMP JUMPDEST SWAP5 POP POP PUSH1 0x20 PUSH2 0x3B38 DUP8 DUP3 DUP9 ADD PUSH2 0x354E JUMP JUMPDEST SWAP4 POP POP PUSH1 0x40 PUSH2 0x3B49 DUP8 DUP3 DUP9 ADD PUSH2 0x3499 JUMP JUMPDEST SWAP3 POP POP PUSH1 0x60 DUP6 ADD CALLDATALOAD PUSH8 0xFFFFFFFFFFFFFFFF DUP2 GT ISZERO PUSH2 0x3B6A JUMPI PUSH2 0x3B69 PUSH2 0x32AD JUMP JUMPDEST JUMPDEST PUSH2 0x3B76 DUP8 DUP3 DUP9 ADD PUSH2 0x3AD1 JUMP JUMPDEST SWAP2 POP POP SWAP3 SWAP6 SWAP2 SWAP5 POP SWAP3 POP JUMP JUMPDEST PUSH1 0x0 DUP1 PUSH1 0x40 DUP4 DUP6 SUB SLT ISZERO PUSH2 0x3B99 JUMPI PUSH2 0x3B98 PUSH2 0x32A8 JUMP JUMPDEST JUMPDEST PUSH1 0x0 PUSH2 0x3BA7 DUP6 DUP3 DUP7 ADD PUSH2 0x354E JUMP JUMPDEST SWAP3 POP POP PUSH1 0x20 PUSH2 0x3BB8 DUP6 DUP3 DUP7 ADD PUSH2 0x354E JUMP JUMPDEST SWAP2 POP POP SWAP3 POP SWAP3 SWAP1 POP JUMP JUMPDEST PUSH32 0x4E487B7100000000000000000000000000000000000000000000000000000000 PUSH1 0x0 MSTORE PUSH1 0x22 PUSH1 0x4 MSTORE PUSH1 0x24 PUSH1 0x0 REVERT JUMPDEST PUSH1 0x0 PUSH1 0x2 DUP3 DIV SWAP1 POP PUSH1 0x1 DUP3 AND DUP1 PUSH2 0x3C09 JUMPI PUSH1 0x7F DUP3 AND SWAP2 POP JUMPDEST PUSH1 0x20 DUP3 LT DUP2 SUB PUSH2 0x3C1C JUMPI PUSH2 0x3C1B PUSH2 0x3BC2 JUMP JUMPDEST JUMPDEST POP SWAP2 SWAP1 POP JUMP JUMPDEST PUSH1 0x0 PUSH1 0x60 DUP3 ADD SWAP1 POP PUSH2 0x3C37 PUSH1 0x0 DUP4 ADD DUP7 PUSH2 0x350D JUMP JUMPDEST PUSH2 0x3C44 PUSH1 0x20 DUP4 ADD DUP6 PUSH2 0x3696 JUMP JUMPDEST PUSH2 0x3C51 PUSH1 0x40 DUP4 ADD DUP5 PUSH2 0x350D JUMP JUMPDEST SWAP5 SWAP4 POP POP POP POP JUMP JUMPDEST PUSH1 0x0 PUSH1 0x40 DUP3 ADD SWAP1 POP PUSH2 0x3C6E PUSH1 0x0 DUP4 ADD DUP6 PUSH2 0x350D JUMP JUMPDEST PUSH2 0x3C7B PUSH1 0x20 DUP4 ADD DUP5 PUSH2 0x3696 JUMP JUMPDEST SWAP4 SWAP3 POP POP POP JUMP JUMPDEST PUSH32 0x4E487B7100000000000000000000000000000000000000000000000000000000 PUSH1 0x0 MSTORE PUSH1 0x32 PUSH1 0x4 MSTORE PUSH1 0x24 PUSH1 0x0 REVERT JUMPDEST PUSH32 0x4E487B7100000000000000000000000000000000000000000000000000000000 PUSH1 0x0 MSTORE PUSH1 0x11 PUSH1 0x4 MSTORE PUSH1 0x24 PUSH1 0x0 REVERT JUMPDEST PUSH1 0x0 PUSH2 0x3CEB DUP3 PUSH2 0x3478 JUMP JUMPDEST SWAP2 POP PUSH2 0x3CF6 DUP4 PUSH2 0x3478 JUMP JUMPDEST SWAP3 POP DUP3 DUP3 MUL PUSH2 0x3D04 DUP2 PUSH2 0x3478 JUMP JUMPDEST SWAP2 POP DUP3 DUP3 DIV DUP5 EQ DUP4 ISZERO OR PUSH2 0x3D1B JUMPI PUSH2 0x3D1A PUSH2 0x3CB1 JUMP JUMPDEST JUMPDEST POP SWAP3 SWAP2 POP POP JUMP JUMPDEST PUSH32 0x4E487B7100000000000000000000000000000000000000000000000000000000 PUSH1 0x0 MSTORE PUSH1 0x12 PUSH1 0x4 MSTORE PUSH1 0x24 PUSH1 0x0 REVERT JUMPDEST PUSH1 0x0 PUSH2 0x3D5C DUP3 PUSH2 0x3478 JUMP JUMPDEST SWAP2 POP PUSH2 0x3D67 DUP4 PUSH2 0x3478 JUMP JUMPDEST SWAP3 POP DUP3 PUSH2 0x3D77 JUMPI PUSH2 0x3D76 PUSH2 0x3D22 JUMP JUMPDEST JUMPDEST DUP3 DUP3 DIV SWAP1 POP SWAP3 SWAP2 POP POP JUMP JUMPDEST PUSH1 0x0 DUP2 SWAP1 POP SWAP3 SWAP2 POP POP JUMP JUMPDEST POP JUMP JUMPDEST PUSH1 0x0 PUSH2 0x3D9D PUSH1 0x0 DUP4 PUSH2 0x3D82 JUMP JUMPDEST SWAP2 POP PUSH2 0x3DA8 DUP3 PUSH2 0x3D8D JUMP JUMPDEST PUSH1 0x0 DUP3 ADD SWAP1 POP SWAP2 SWAP1 POP JUMP JUMPDEST PUSH1 0x0 PUSH2 0x3DBE DUP3 PUSH2 0x3D90 JUMP JUMPDEST SWAP2 POP DUP2 SWAP1 POP SWAP2 SWAP1 POP JUMP JUMPDEST PUSH1 0x0 DUP2 SWAP1 POP DUP2 PUSH1 0x0 MSTORE PUSH1 0x20 PUSH1 0x0 KECCAK256 SWAP1 POP SWAP2 SWAP1 POP JUMP JUMPDEST PUSH1 0x0 PUSH1 0x20 PUSH1 0x1F DUP4 ADD DIV SWAP1 POP SWAP2 SWAP1 POP JUMP JUMPDEST PUSH1 0x0 DUP3 DUP3 SHL SWAP1 POP SWAP3 SWAP2 POP POP JUMP JUMPDEST PUSH1 0x0 PUSH1 0x8 DUP4 MUL PUSH2 0x3E2A PUSH32 0xFFFFFFFFFFFFFFFFFFFFFFFFFFFFFFFFFFFFFFFFFFFFFFFFFFFFFFFFFFFFFFFF DUP3 PUSH2 0x3DED JUMP JUMPDEST PUSH2 0x3E34 DUP7 DUP4 PUSH2 0x3DED JUMP JUMPDEST SWAP6 POP DUP1 NOT DUP5 AND SWAP4 POP DUP1 DUP7 AND DUP5 OR SWAP3 POP POP POP SWAP4 SWAP3 POP POP POP JUMP JUMPDEST PUSH1 0x0 DUP2 SWAP1 POP SWAP2 SWAP1 POP JUMP JUMPDEST PUSH1 0x0 PUSH2 0x3E71 PUSH2 0x3E6C PUSH2 0x3E67 DUP5 PUSH2 0x3478 JUMP JUMPDEST PUSH2 0x3E4C JUMP JUMPDEST PUSH2 0x3478 JUMP JUMPDEST SWAP1 POP SWAP2 SWAP1 POP JUMP JUMPDEST PUSH1 0x0 DUP2 SWAP1 POP SWAP2 SWAP1 POP JUMP JUMPDEST PUSH2 0x3E8B DUP4 PUSH2 0x3E56 JUMP JUMPDEST PUSH2 0x3E9F PUSH2 0x3E97 DUP3 PUSH2 0x3E78 JUMP JUMPDEST DUP5 DUP5 SLOAD PUSH2 0x3DFA JUMP JUMPDEST DUP3 SSTORE POP POP POP POP JUMP JUMPDEST PUSH1 0x0 SWAP1 JUMP JUMPDEST PUSH2 0x3EB4 PUSH2 0x3EA7 JUMP JUMPDEST PUSH2 0x3EBF DUP2 DUP5 DUP5 PUSH2 0x3E82 JUMP JUMPDEST POP POP POP JUMP JUMPDEST JUMPDEST DUP2 DUP2 LT ISZERO PUSH2 0x3EE3 JUMPI PUSH2 0x3ED8 PUSH1 0x0 DUP3 PUSH2 0x3EAC JUMP JUMPDEST PUSH1 0x1 DUP2 ADD SWAP1 POP PUSH2 0x3EC5 JUMP JUMPDEST POP POP JUMP JUMPDEST PUSH1 0x1F DUP3 GT ISZERO PUSH2 0x3F28 JUMPI PUSH2 0x3EF9 DUP2 PUSH2 0x3DC8 JUMP JUMPDEST PUSH2 0x3F02 DUP5 PUSH2 0x3DDD JUMP JUMPDEST DUP2 ADD PUSH1 0x20 DUP6 LT ISZERO PUSH2 0x3F11 JUMPI DUP2 SWAP1 POP JUMPDEST PUSH2 0x3F25 PUSH2 0x3F1D DUP6 PUSH2 0x3DDD JUMP JUMPDEST DUP4 ADD DUP3 PUSH2 0x3EC4 JUMP JUMPDEST POP POP JUMPDEST POP POP POP JUMP JUMPDEST PUSH1 0x0 DUP3 DUP3 SHR SWAP1 POP SWAP3 SWAP2 POP POP JUMP JUMPDEST PUSH1 0x0 PUSH2 0x3F4B PUSH1 0x0 NOT DUP5 PUSH1 0x8 MUL PUSH2 0x3F2D JUMP JUMPDEST NOT DUP1 DUP4 AND SWAP2 POP POP SWAP3 SWAP2 POP POP JUMP JUMPDEST PUSH1 0x0 PUSH2 0x3F64 DUP4 DUP4 PUSH2 0x3F3A JUMP JUMPDEST SWAP2 POP DUP3 PUSH1 0x2 MUL DUP3 OR SWAP1 POP SWAP3 SWAP2 POP POP JUMP JUMPDEST PUSH2 0x3F7D DUP3 PUSH2 0x33C6 JUMP JUMPDEST PUSH8 0xFFFFFFFFFFFFFFFF DUP2 GT ISZERO PUSH2 0x3F96 JUMPI PUSH2 0x3F95 PUSH2 0x38AA JUMP JUMPDEST JUMPDEST PUSH2 0x3FA0 DUP3 SLOAD PUSH2 0x3BF1 JUMP JUMPDEST PUSH2 0x3FAB DUP3 DUP3 DUP6 PUSH2 0x3EE7 JUMP JUMPDEST PUSH1 0x0 PUSH1 0x20 SWAP1 POP PUSH1 0x1F DUP4 GT PUSH1 0x1 DUP2 EQ PUSH2 0x3FDE JUMPI PUSH1 0x0 DUP5 ISZERO PUSH2 0x3FCC JUMPI DUP3 DUP8 ADD MLOAD SWAP1 POP JUMPDEST PUSH2 0x3FD6 DUP6 DUP3 PUSH2 0x3F58 JUMP JUMPDEST DUP7 SSTORE POP PUSH2 0x403E JUMP JUMPDEST PUSH1 0x1F NOT DUP5 AND PUSH2 0x3FEC DUP7 PUSH2 0x3DC8 JUMP JUMPDEST PUSH1 0x0 JUMPDEST DUP3 DUP2 LT ISZERO PUSH2 0x4014 JUMPI DUP5 DUP10 ADD MLOAD DUP3 SSTORE PUSH1 0x1 DUP3 ADD SWAP2 POP PUSH1 0x20 DUP6 ADD SWAP5 POP PUSH1 0x20 DUP2 ADD SWAP1 POP PUSH2 0x3FEF JUMP JUMPDEST DUP7 DUP4 LT ISZERO PUSH2 0x4031 JUMPI DUP5 DUP10 ADD MLOAD PUSH2 0x402D PUSH1 0x1F DUP10 AND DUP3 PUSH2 0x3F3A JUMP JUMPDEST DUP4 SSTORE POP JUMPDEST PUSH1 0x1 PUSH1 0x2 DUP9 MUL ADD DUP9 SSTORE POP POP POP JUMPDEST POP POP POP POP POP POP JUMP JUMPDEST PUSH1 0x0 PUSH2 0x4051 DUP3 PUSH2 0x3478 JUMP JUMPDEST SWAP2 POP PUSH2 0x405C DUP4 PUSH2 0x3478 JUMP JUMPDEST SWAP3 POP DUP3 DUP3 ADD SWAP1 POP DUP1 DUP3 GT ISZERO PUSH2 0x4074 JUMPI PUSH2 0x4073 PUSH2 0x3CB1 JUMP JUMPDEST JUMPDEST SWAP3 SWAP2 POP POP JUMP JUMPDEST PUSH32 0x4D696E74696E672069732063757272656E746C79207061757365640000000000 PUSH1 0x0 DUP3 ADD MSTORE POP JUMP JUMPDEST PUSH1 0x0 PUSH2 0x40B0 PUSH1 0x1B DUP4 PUSH2 0x33D1 JUMP JUMPDEST SWAP2 POP PUSH2 0x40BB DUP3 PUSH2 0x407A JUMP JUMPDEST PUSH1 0x20 DUP3 ADD SWAP1 POP SWAP2 SWAP1 POP JUMP JUMPDEST PUSH1 0x0 PUSH1 0x20 DUP3 ADD SWAP1 POP DUP2 DUP2 SUB PUSH1 0x0 DUP4 ADD MSTORE PUSH2 0x40DF DUP2 PUSH2 0x40A3 JUMP JUMPDEST SWAP1 POP SWAP2 SWAP1 POP JUMP JUMPDEST PUSH32 0x4D696E7420616D6F756E74206D757374206265206D6F7265207468616E207A65 PUSH1 0x0 DUP3 ADD MSTORE PUSH32 0x726F000000000000000000000000000000000000000000000000000000000000 PUSH1 0x20 DUP3 ADD MSTORE POP JUMP JUMPDEST PUSH1 0x0 PUSH2 0x4142 PUSH1 0x22 DUP4 PUSH2 0x33D1 JUMP JUMPDEST SWAP2 POP PUSH2 0x414D DUP3 PUSH2 0x40E6 JUMP JUMPDEST PUSH1 0x40 DUP3 ADD SWAP1 POP SWAP2 SWAP1 POP JUMP JUMPDEST PUSH1 0x0 PUSH1 0x20 DUP3 ADD SWAP1 POP DUP2 DUP2 SUB PUSH1 0x0 DUP4 ADD MSTORE PUSH2 0x4171 DUP2 PUSH2 0x4135 JUMP JUMPDEST SWAP1 POP SWAP2 SWAP1 POP JUMP JUMPDEST PUSH32 0x4D617820737570706C7920726561636865640000000000000000000000000000 PUSH1 0x0 DUP3 ADD MSTORE POP JUMP JUMPDEST PUSH1 0x0 PUSH2 0x41AE PUSH1 0x12 DUP4 PUSH2 0x33D1 JUMP JUMPDEST SWAP2 POP PUSH2 0x41B9 DUP3 PUSH2 0x4178 JUMP JUMPDEST PUSH1 0x20 DUP3 ADD SWAP1 POP SWAP2 SWAP1 POP JUMP JUMPDEST PUSH1 0x0 PUSH1 0x20 DUP3 ADD SWAP1 POP DUP2 DUP2 SUB PUSH1 0x0 DUP4 ADD MSTORE PUSH2 0x41DD DUP2 PUSH2 0x41A1 JUMP JUMPDEST SWAP1 POP SWAP2 SWAP1 POP JUMP JUMPDEST PUSH32 0x496E73756666696369656E742066756E64730000000000000000000000000000 PUSH1 0x0 DUP3 ADD MSTORE POP JUMP JUMPDEST PUSH1 0x0 PUSH2 0x421A PUSH1 0x12 DUP4 PUSH2 0x33D1 JUMP JUMPDEST SWAP2 POP PUSH2 0x4225 DUP3 PUSH2 0x41E4 JUMP JUMPDEST PUSH1 0x20 DUP3 ADD SWAP1 POP SWAP2 SWAP1 POP JUMP JUMPDEST PUSH1 0x0 PUSH1 0x20 DUP3 ADD SWAP1 POP DUP2 DUP2 SUB PUSH1 0x0 DUP4 ADD MSTORE PUSH2 0x4249 DUP2 PUSH2 0x420D JUMP JUMPDEST SWAP1 POP SWAP2 SWAP1 POP JUMP JUMPDEST PUSH32 0x4D696E74696E67206E6F74207374617274656400000000000000000000000000 PUSH1 0x0 DUP3 ADD MSTORE POP JUMP JUMPDEST PUSH1 0x0 PUSH2 0x4286 PUSH1 0x13 DUP4 PUSH2 0x33D1 JUMP JUMPDEST SWAP2 POP PUSH2 0x4291 DUP3 PUSH2 0x4250 JUMP JUMPDEST PUSH1 0x20 DUP3 ADD SWAP1 POP SWAP2 SWAP1 POP JUMP JUMPDEST PUSH1 0x0 PUSH1 0x20 DUP3 ADD SWAP1 POP DUP2 DUP2 SUB PUSH1 0x0 DUP4 ADD MSTORE PUSH2 0x42B5 DUP2 PUSH2 0x4279 JUMP JUMPDEST SWAP1 POP SWAP2 SWAP1 POP JUMP JUMPDEST PUSH32 0x596F7520617265206E6F742077686974656C6973746564000000000000000000 PUSH1 0x0 DUP3 ADD MSTORE POP JUMP JUMPDEST PUSH1 0x0 PUSH2 0x42F2 PUSH1 0x17 DUP4 PUSH2 0x33D1 JUMP JUMPDEST SWAP2 POP PUSH2 0x42FD DUP3 PUSH2 0x42BC JUMP JUMPDEST PUSH1 0x20 DUP3 ADD SWAP1 POP SWAP2 SWAP1 POP JUMP JUMPDEST PUSH1 0x0 PUSH1 0x20 DUP3 ADD SWAP1 POP DUP2 DUP2 SUB PUSH1 0x0 DUP4 ADD MSTORE PUSH2 0x4321 DUP2 PUSH2 0x42E5 JUMP JUMPDEST SWAP1 POP SWAP2 SWAP1 POP JUMP JUMPDEST PUSH32 0x574C204D696E74696E67206C696D697420657863656564656400000000000000 PUSH1 0x0 DUP3 ADD MSTORE POP JUMP JUMPDEST PUSH1 0x0 PUSH2 0x435E PUSH1 0x19 DUP4 PUSH2 0x33D1 JUMP JUMPDEST SWAP2 POP PUSH2 0x4369 DUP3 PUSH2 0x4328 JUMP JUMPDEST PUSH1 0x20 DUP3 ADD SWAP1 POP SWAP2 SWAP1 POP JUMP JUMPDEST PUSH1 0x0 PUSH1 0x20 DUP3 ADD SWAP1 POP DUP2 DUP2 SUB PUSH1 0x0 DUP4 ADD MSTORE PUSH2 0x438D DUP2 PUSH2 0x4351 JUMP JUMPDEST SWAP1 POP SWAP2 SWAP1 POP JUMP JUMPDEST PUSH32 0x596F7520617265206E6F7420696E2046434653206C6973740000000000000000 PUSH1 0x0 DUP3 ADD MSTORE POP JUMP JUMPDEST PUSH1 0x0 PUSH2 0x43CA PUSH1 0x18 DUP4 PUSH2 0x33D1 JUMP JUMPDEST SWAP2 POP PUSH2 0x43D5 DUP3 PUSH2 0x4394 JUMP JUMPDEST PUSH1 0x20 DUP3 ADD SWAP1 POP SWAP2 SWAP1 POP JUMP JUMPDEST PUSH1 0x0 PUSH1 0x20 DUP3 ADD SWAP1 POP DUP2 DUP2 SUB PUSH1 0x0 DUP4 ADD MSTORE PUSH2 0x43F9 DUP2 PUSH2 0x43BD JUMP JUMPDEST SWAP1 POP SWAP2 SWAP1 POP JUMP JUMPDEST PUSH32 0x46434653204D696E74696E67206C696D69742065786365656465640000000000 PUSH1 0x0 DUP3 ADD MSTORE POP JUMP JUMPDEST PUSH1 0x0 PUSH2 0x4436 PUSH1 0x1B DUP4 PUSH2 0x33D1 JUMP JUMPDEST SWAP2 POP PUSH2 0x4441 DUP3 PUSH2 0x4400 JUMP JUMPDEST PUSH1 0x20 DUP3 ADD SWAP1 POP SWAP2 SWAP1 POP JUMP JUMPDEST PUSH1 0x0 PUSH1 0x20 DUP3 ADD SWAP1 POP DUP2 DUP2 SUB PUSH1 0x0 DUP4 ADD MSTORE PUSH2 0x4465 DUP2 PUSH2 0x4429 JUMP JUMPDEST SWAP1 POP SWAP2 SWAP1 POP JUMP JUMPDEST PUSH32 0x507562204D696E74696E67206C696D6974206578636565646564000000000000 PUSH1 0x0 DUP3 ADD MSTORE POP JUMP JUMPDEST PUSH1 0x0 PUSH2 0x44A2 PUSH1 0x1A DUP4 PUSH2 0x33D1 JUMP JUMPDEST SWAP2 POP PUSH2 0x44AD DUP3 PUSH2 0x446C JUMP JUMPDEST PUSH1 0x20 DUP3 ADD SWAP1 POP SWAP2 SWAP1 POP JUMP JUMPDEST PUSH1 0x0 PUSH1 0x20 DUP3 ADD SWAP1 POP DUP2 DUP2 SUB PUSH1 0x0 DUP4 ADD MSTORE PUSH2 0x44D1 DUP2 PUSH2 0x4495 JUMP JUMPDEST SWAP1 POP SWAP2 SWAP1 POP JUMP JUMPDEST PUSH1 0x0 PUSH2 0x44E3 DUP3 PUSH2 0x3478 JUMP JUMPDEST SWAP2 POP PUSH32 0xFFFFFFFFFFFFFFFFFFFFFFFFFFFFFFFFFFFFFFFFFFFFFFFFFFFFFFFFFFFFFFFF DUP3 SUB PUSH2 0x4515 JUMPI PUSH2 0x4514 PUSH2 0x3CB1 JUMP JUMPDEST JUMPDEST PUSH1 0x1 DUP3 ADD SWAP1 POP SWAP2 SWAP1 POP JUMP JUMPDEST PUSH1 0x0 DUP2 SWAP1 POP SWAP3 SWAP2 POP POP JUMP JUMPDEST PUSH1 0x0 PUSH2 0x4536 DUP3 PUSH2 0x33C6 JUMP JUMPDEST PUSH2 0x4540 DUP2 DUP6 PUSH2 0x4520 JUMP JUMPDEST SWAP4 POP PUSH2 0x4550 DUP2 DUP6 PUSH1 0x20 DUP7 ADD PUSH2 0x33E2 JUMP JUMPDEST DUP1 DUP5 ADD SWAP2 POP POP SWAP3 SWAP2 POP POP JUMP JUMPDEST PUSH1 0x0 PUSH2 0x4568 DUP3 DUP6 PUSH2 0x452B JUMP JUMPDEST SWAP2 POP PUSH2 0x4574 DUP3 DUP5 PUSH2 0x452B JUMP JUMPDEST SWAP2 POP DUP2 SWAP1 POP SWAP4 SWAP3 POP POP POP JUMP JUMPDEST PUSH32 0x5265656E7472616E637947756172643A207265656E7472616E742063616C6C00 PUSH1 0x0 DUP3 ADD MSTORE POP JUMP JUMPDEST PUSH1 0x0 PUSH2 0x45B6 PUSH1 0x1F DUP4 PUSH2 0x33D1 JUMP JUMPDEST SWAP2 POP PUSH2 0x45C1 DUP3 PUSH2 0x4580 JUMP JUMPDEST PUSH1 0x20 DUP3 ADD SWAP1 POP SWAP2 SWAP1 POP JUMP JUMPDEST PUSH1 0x0 PUSH1 0x20 DUP3 ADD SWAP1 POP DUP2 DUP2 SUB PUSH1 0x0 DUP4 ADD MSTORE PUSH2 0x45E5 DUP2 PUSH2 0x45A9 JUMP JUMPDEST SWAP1 POP SWAP2 SWAP1 POP JUMP JUMPDEST PUSH1 0x0 DUP2 MLOAD SWAP1 POP SWAP2 SWAP1 POP JUMP JUMPDEST PUSH1 0x0 DUP3 DUP3 MSTORE PUSH1 0x20 DUP3 ADD SWAP1 POP SWAP3 SWAP2 POP POP JUMP JUMPDEST PUSH1 0x0 PUSH2 0x4613 DUP3 PUSH2 0x45EC JUMP JUMPDEST PUSH2 0x461D DUP2 DUP6 PUSH2 0x45F7 JUMP JUMPDEST SWAP4 POP PUSH2 0x462D DUP2 DUP6 PUSH1 0x20 DUP7 ADD PUSH2 0x33E2 JUMP JUMPDEST PUSH2 0x4636 DUP2 PUSH2 0x340C JUMP JUMPDEST DUP5 ADD SWAP2 POP POP SWAP3 SWAP2 POP POP JUMP JUMPDEST PUSH1 0x0 PUSH1 0x80 DUP3 ADD SWAP1 POP PUSH2 0x4656 PUSH1 0x0 DUP4 ADD DUP8 PUSH2 0x350D JUMP JUMPDEST PUSH2 0x4663 PUSH1 0x20 DUP4 ADD DUP7 PUSH2 0x350D JUMP JUMPDEST PUSH2 0x4670 PUSH1 0x40 DUP4 ADD DUP6 PUSH2 0x3696 JUMP JUMPDEST DUP2 DUP2 SUB PUSH1 0x60 DUP4 ADD MSTORE PUSH2 0x4682 DUP2 DUP5 PUSH2 0x4608 JUMP JUMPDEST SWAP1 POP SWAP6 SWAP5 POP POP POP POP POP JUMP JUMPDEST PUSH1 0x0 DUP2 MLOAD SWAP1 POP PUSH2 0x469C DUP2 PUSH2 0x32DE JUMP JUMPDEST SWAP3 SWAP2 POP POP JUMP JUMPDEST PUSH1 0x0 PUSH1 0x20 DUP3 DUP5 SUB SLT ISZERO PUSH2 0x46B8 JUMPI PUSH2 0x46B7 PUSH2 0x32A8 JUMP JUMPDEST JUMPDEST PUSH1 0x0 PUSH2 0x46C6 DUP5 DUP3 DUP6 ADD PUSH2 0x468D JUMP JUMPDEST SWAP2 POP POP SWAP3 SWAP2 POP POP JUMP JUMPDEST PUSH1 0x0 PUSH2 0x46DA DUP3 PUSH2 0x3478 JUMP JUMPDEST SWAP2 POP PUSH2 0x46E5 DUP4 PUSH2 0x3478 JUMP JUMPDEST SWAP3 POP DUP3 DUP3 SUB SWAP1 POP DUP2 DUP2 GT ISZERO PUSH2 0x46FD JUMPI PUSH2 0x46FC PUSH2 0x3CB1 JUMP JUMPDEST JUMPDEST SWAP3 SWAP2 POP POP JUMP JUMPDEST PUSH32 0x4E487B7100000000000000000000000000000000000000000000000000000000 PUSH1 0x0 MSTORE PUSH1 0x31 PUSH1 0x4 MSTORE PUSH1 0x24 PUSH1 0x0 REVERT INVALID LOG2 PUSH5 0x6970667358 0x22 SLT KECCAK256 0xD 0x22 BLOBBASEFEE OR 0xC8 0xC 0xB8 PUSH16 0x58DA39151831D56F66D3DC034CC56D42 LOG3 0x4F 0xB5 0xAC 0xF6 EQ PREVRANDAO 0xE PUSH5 0x736F6C6343 STOP ADDMOD XOR STOP CALLER "},"methodIdentifiers":{"FCFSLimit()":"ac2f396e","FCFSMint(address)":"c896d7d8","FSCSMinted(address)":"b60f7f58","addToFCFS(address[])":"cc0895cf","addToWhitelist(address[])":"7f649783","approve(address,uint256)":"095ea7b3","balanceOf(address)":"70a08231","changeStartTime(uint256)":"8aa5b2c3","cost()":"13faede6","fcfsEndTime()":"c39887f5","getApproved(uint256)":"081812fc","getSalePhases()":"0a93268b","isApprovedForAll(address,address)":"e985e9c5","maxSupply()":"d5abeb01","mint(uint256)":"a0712d68","name()":"06fdde03","owner()":"8da5cb5b","ownerOf(uint256)":"6352211e","pause(bool)":"02329a29","paused()":"5c975abb","publicLimit()":"a4331d2d","publicMinted(address)":"1015805b","removeFromFCFS(address[])":"3823bb55","removeFromWhitelist(address[])":"548db174","renounceOwnership()":"715018a6","safeTransferFrom(address,address,uint256)":"42842e0e","safeTransferFrom(address,address,uint256,bytes)":"b88d4fde","setApprovalForAll(address,bool)":"a22cb465","setBaseURI(string)":"55f804b3","setCost(uint256)":"44a0d68a","supportsInterface(bytes4)":"01ffc9a7","symbol()":"95d89b41","tokenByIndex(uint256)":"4f6ccce7","tokenOfOwnerByIndex(address,uint256)":"2f745c59","tokenURI(uint256)":"c87b56dd","totalSupply()":"18160ddd","transferFrom(address,address,uint256)":"23b872dd","transferOwnership(address)":"f2fde38b","walletOfOwner(address)":"438b6300","whitelist(address)":"9b19251a","whitelistLimit()":"302150e5","whitelistMinted(address)":"98a8cffe","withdraw()":"3ccfd60b","wlEndTime()":"47a54148","wlStartTime()":"be9feb30"}}}}}