{
  "_format": "hh-sol-artifact-1",
  "contractName": "Multisigwallet",
  "sourceName": "contracts/Multisigwallet.sol",
  "abi": [
    {
      "inputs": [
        {
          "internalType": "string",
          "name": "_safeName",
          "type": "string"
        },
        {
          "internalType": "address[]",
          "name": "_owners",
          "type": "address[]"
        },
        {
          "internalType": "uint256",
          "name": "_numConfirmationRequired",
          "type": "uint256"
        }
      ],
      "stateMutability": "nonpayable",
      "type": "constructor"
    },
    {
      "anonymous": false,
      "inputs": [
        {
          "indexed": false,
          "internalType": "uint256",
          "name": "transactionId",
          "type": "uint256"
        }
      ],
      "name": "TransactionConfirmed",
      "type": "event"
    },
    {
      "anonymous": false,
      "inputs": [
        {
          "indexed": false,
          "internalType": "uint256",
          "name": "transactionId",
          "type": "uint256"
        }
      ],
      "name": "TransactionExecuted",
      "type": "event"
    },
    {
      "anonymous": false,
      "inputs": [
        {
          "indexed": false,
          "internalType": "uint256",
          "name": "transactionId",
          "type": "uint256"
        },
        {
          "indexed": false,
          "internalType": "address",
          "name": "sender",
          "type": "address"
        },
        {
          "indexed": false,
          "internalType": "address",
          "name": "receiver",
          "type": "address"
        },
        {
          "indexed": false,
          "internalType": "uint256",
          "name": "amount",
          "type": "uint256"
        }
      ],
      "name": "TransactionSubmitted",
      "type": "event"
    },
    {
      "inputs": [
        {
          "internalType": "uint256",
          "name": "_transactionId",
          "type": "uint256"
        }
      ],
      "name": "confirmTxn",
      "outputs": [],
      "stateMutability": "nonpayable",
      "type": "function"
    },
    {
      "inputs": [
        {
          "internalType": "uint256",
          "name": "_transactionId",
          "type": "uint256"
        }
      ],
      "name": "executeTransaction",
      "outputs": [],
      "stateMutability": "payable",
      "type": "function"
    },
    {
      "inputs": [
        {
          "internalType": "uint256",
          "name": "_transactionId",
          "type": "uint256"
        }
      ],
      "name": "isTransactionConfirmed",
      "outputs": [
        {
          "internalType": "bool",
          "name": "",
          "type": "bool"
        }
      ],
      "stateMutability": "view",
      "type": "function"
    },
    {
      "inputs": [],
      "name": "numConfirmationsRequired",
      "outputs": [
        {
          "internalType": "uint256",
          "name": "",
          "type": "uint256"
        }
      ],
      "stateMutability": "view",
      "type": "function"
    },
    {
      "inputs": [
        {
          "internalType": "uint256",
          "name": "",
          "type": "uint256"
        }
      ],
      "name": "owners",
      "outputs": [
        {
          "internalType": "address",
          "name": "",
          "type": "address"
        }
      ],
      "stateMutability": "view",
      "type": "function"
    },
    {
      "inputs": [],
      "name": "safeName",
      "outputs": [
        {
          "internalType": "string",
          "name": "",
          "type": "string"
        }
      ],
      "stateMutability": "view",
      "type": "function"
    },
    {
      "inputs": [
        {
          "internalType": "address",
          "name": "_to",
          "type": "address"
        }
      ],
      "name": "submitTxn",
      "outputs": [],
      "stateMutability": "payable",
      "type": "function"
    },
    {
      "inputs": [
        {
          "internalType": "uint256",
          "name": "",
          "type": "uint256"
        }
      ],
      "name": "transactions",
      "outputs": [
        {
          "internalType": "address",
          "name": "to",
          "type": "address"
        },
        {
          "internalType": "uint256",
          "name": "value",
          "type": "uint256"
        },
        {
          "internalType": "bool",
          "name": "executed",
          "type": "bool"
        }
      ],
      "stateMutability": "view",
      "type": "function"
    }
  ],
  "bytecode": "0x60806040523480156200001157600080fd5b5060405162001b1138038062001b1183398181016040528101906200003791906200049d565b60018251116200007e576040517f08c379a00000000000000000000000000000000000000000000000000000000081526004016200007590620005be565b60405180910390fd5b6000811180156200008f5750815181105b620000d1576040517f08c379a0000000000000000000000000000000000000000000000000000000008152600401620000c89062000656565b60405180910390fd5b60005b82518110156200016c576000838281518110620000f657620000f562000678565b5b60200260200101519080600181540180825580915050600190039060005260206000200160009091909190916101000a81548173ffffffffffffffffffffffffffffffffffffffff021916908373ffffffffffffffffffffffffffffffffffffffff1602179055508080600101915050620000d4565b50806001819055508260029081620001859190620008e8565b50505050620009cf565b6000604051905090565b600080fd5b600080fd5b600080fd5b600080fd5b6000601f19601f8301169050919050565b7f4e487b7100000000000000000000000000000000000000000000000000000000600052604160045260246000fd5b620001f882620001ad565b810181811067ffffffffffffffff821117156200021a5762000219620001be565b5b80604052505050565b60006200022f6200018f565b90506200023d8282620001ed565b919050565b600067ffffffffffffffff82111562000260576200025f620001be565b5b6200026b82620001ad565b9050602081019050919050565b60005b83811015620002985780820151818401526020810190506200027b565b60008484015250505050565b6000620002bb620002b58462000242565b62000223565b905082815260208101848484011115620002da57620002d9620001a8565b5b620002e784828562000278565b509392505050565b600082601f830112620003075762000306620001a3565b5b815162000319848260208601620002a4565b91505092915050565b600067ffffffffffffffff82111562000340576200033f620001be565b5b602082029050602081019050919050565b600080fd5b600073ffffffffffffffffffffffffffffffffffffffff82169050919050565b6000620003838262000356565b9050919050565b620003958162000376565b8114620003a157600080fd5b50565b600081519050620003b5816200038a565b92915050565b6000620003d2620003cc8462000322565b62000223565b90508083825260208201905060208402830185811115620003f857620003f762000351565b5b835b81811015620004255780620004108882620003a4565b845260208401935050602081019050620003fa565b5050509392505050565b600082601f830112620004475762000446620001a3565b5b815162000459848260208601620003bb565b91505092915050565b6000819050919050565b620004778162000462565b81146200048357600080fd5b50565b60008151905062000497816200046c565b92915050565b600080600060608486031215620004b957620004b862000199565b5b600084015167ffffffffffffffff811115620004da57620004d96200019e565b5b620004e886828701620002ef565b935050602084015167ffffffffffffffff8111156200050c576200050b6200019e565b5b6200051a868287016200042f565b92505060406200052d8682870162000486565b9150509250925092565b600082825260208201905092915050565b7f4f776e657273205265717569726564204d75737420426520477265737465722060008201527f5468616e20310000000000000000000000000000000000000000000000000000602082015250565b6000620005a660268362000537565b9150620005b38262000548565b604082019050919050565b60006020820190508181036000830152620005d98162000597565b9050919050565b7f4e756d626572206f6620636f6e6669726d6174696f6e7320657863656564732060008201527f6e756d626572206f66206f776e65727300000000000000000000000000000000602082015250565b60006200063e60308362000537565b91506200064b82620005e0565b604082019050919050565b6000602082019050818103600083015262000671816200062f565b9050919050565b7f4e487b7100000000000000000000000000000000000000000000000000000000600052603260045260246000fd5b600081519050919050565b7f4e487b7100000000000000000000000000000000000000000000000000000000600052602260045260246000fd5b60006002820490506001821680620006fa57607f821691505b60208210810362000710576200070f620006b2565b5b50919050565b60008190508160005260206000209050919050565b60006020601f8301049050919050565b600082821b905092915050565b6000600883026200077a7fffffffffffffffffffffffffffffffffffffffffffffffffffffffffffffffff826200073b565b6200078686836200073b565b95508019841693508086168417925050509392505050565b6000819050919050565b6000620007c9620007c3620007bd8462000462565b6200079e565b62000462565b9050919050565b6000819050919050565b620007e583620007a8565b620007fd620007f482620007d0565b84845462000748565b825550505050565b600090565b6200081462000805565b62000821818484620007da565b505050565b5b8181101562000849576200083d6000826200080a565b60018101905062000827565b5050565b601f8211156200089857620008628162000716565b6200086d846200072b565b810160208510156200087d578190505b620008956200088c856200072b565b83018262000826565b50505b505050565b600082821c905092915050565b6000620008bd600019846008026200089d565b1980831691505092915050565b6000620008d88383620008aa565b9150826002028217905092915050565b620008f382620006a7565b67ffffffffffffffff8111156200090f576200090e620001be565b5b6200091b8254620006e1565b620009288282856200084d565b600060209050601f8311600181146200096057600084156200094b578287015190505b620009578582620008ca565b865550620009c7565b601f198416620009708662000716565b60005b828110156200099a5784890151825560018201915060208501945060208101905062000973565b86831015620009ba5784890151620009b6601f891682620008aa565b8355505b6001600288020188555050505b505050505050565b61113280620009df6000396000f3fe60806040526004361061007b5760003560e01c80638eb6116b1161004e5780638eb6116b1461014e5780639ace38c21461016a578063d0549b85146101a9578063ee22610b146101d45761007b565b8063025e7c271461008057806309bcf3e8146100bd5780630b1cd2c0146100e65780634e08238214610123575b600080fd5b34801561008c57600080fd5b506100a760048036038101906100a29190610a46565b6101f0565b6040516100b49190610ab4565b60405180910390f35b3480156100c957600080fd5b506100e460048036038101906100df9190610a46565b61022f565b005b3480156100f257600080fd5b5061010d60048036038101906101089190610a46565b6103cf565b60405161011a9190610aea565b60405180910390f35b34801561012f57600080fd5b506101386104f8565b6040516101459190610b95565b60405180910390f35b61016860048036038101906101639190610be3565b610586565b005b34801561017657600080fd5b50610191600480360381019061018c9190610a46565b610755565b6040516101a093929190610c1f565b60405180910390f35b3480156101b557600080fd5b506101be6107bc565b6040516101cb9190610c56565b60405180910390f35b6101ee60048036038101906101e99190610a46565b6107c2565b005b6000818154811061020057600080fd5b906000526020600020016000915054906101000a900473ffffffffffffffffffffffffffffffffffffffff1681565b6004805490508110610276576040517f08c379a000000000000000000000000000000000000000000000000000000000815260040161026d90610cbd565b60405180910390fd5b6003600082815260200190815260200160002060003373ffffffffffffffffffffffffffffffffffffffff1673ffffffffffffffffffffffffffffffffffffffff16815260200190815260200160002060009054906101000a900460ff1615610314576040517f08c379a000000000000000000000000000000000000000000000000000000000815260040161030b90610d4f565b60405180910390fd5b60016003600083815260200190815260200160002060003373ffffffffffffffffffffffffffffffffffffffff1673ffffffffffffffffffffffffffffffffffffffff16815260200190815260200160002060006101000a81548160ff0219169083151502179055507fef524c298d730e7d5714dbe2fce9d4eca7de755a12628704719170afda39678b816040516103ac9190610c56565b60405180910390a16103bd816103cf565b156103cc576103cb816107c2565b5b50565b60006004805490508210610418576040517f08c379a000000000000000000000000000000000000000000000000000000000815260040161040f90610cbd565b60405180910390fd5b600080600090505b6000805490508110156104e95760036000858152602001908152602001600020600080838154811061045557610454610d6f565b5b9060005260206000200160009054906101000a900473ffffffffffffffffffffffffffffffffffffffff1673ffffffffffffffffffffffffffffffffffffffff1673ffffffffffffffffffffffffffffffffffffffff16815260200190815260200160002060009054906101000a900460ff16156104dc5781806104d890610dcd565b9250505b8080600101915050610420565b50600154811015915050919050565b6002805461050590610e44565b80601f016020809104026020016040519081016040528092919081815260200182805461053190610e44565b801561057e5780601f106105535761010080835404028352916020019161057e565b820191906000526020600020905b81548152906001019060200180831161056157829003601f168201915b505050505081565b600073ffffffffffffffffffffffffffffffffffffffff168173ffffffffffffffffffffffffffffffffffffffff16036105f5576040517f08c379a00000000000000000000000000000000000000000000000000000000081526004016105ec90610ec1565b60405180910390fd5b60003411610638576040517f08c379a000000000000000000000000000000000000000000000000000000000815260040161062f90610f53565b60405180910390fd5b60006004805490509050600460405180606001604052808473ffffffffffffffffffffffffffffffffffffffff16815260200134815260200160001515815250908060018154018082558091505060019003906000526020600020906003020160009091909190915060008201518160000160006101000a81548173ffffffffffffffffffffffffffffffffffffffff021916908373ffffffffffffffffffffffffffffffffffffffff1602179055506020820151816001015560408201518160020160006101000a81548160ff02191690831515021790555050507f753dcda37efe0bc3675e04e24d1fb08b70681f14675eed4b6e7978495caf2ca0813384346040516107499493929190610f73565b60405180910390a15050565b6004818154811061076557600080fd5b90600052602060002090600302016000915090508060000160009054906101000a900473ffffffffffffffffffffffffffffffffffffffff16908060010154908060020160009054906101000a900460ff16905083565b60015481565b6004805490508110610809576040517f08c379a000000000000000000000000000000000000000000000000000000000815260040161080090610cbd565b60405180910390fd5b6004818154811061081d5761081c610d6f565b5b906000526020600020906003020160020160009054906101000a900460ff161561087c576040517f08c379a000000000000000000000000000000000000000000000000000000000815260040161087390611004565b60405180910390fd5b60006004828154811061089257610891610d6f565b5b906000526020600020906003020160000160009054906101000a900473ffffffffffffffffffffffffffffffffffffffff1673ffffffffffffffffffffffffffffffffffffffff16600483815481106108ee576108ed610d6f565b5b90600052602060002090600302016001015460405161090c90611055565b60006040518083038185875af1925050503d8060008114610949576040519150601f19603f3d011682016040523d82523d6000602084013e61094e565b606091505b5050905060016004838154811061096857610967610d6f565b5b906000526020600020906003020160020160006101000a81548160ff021916908315150217905550806109d0576040517f08c379a00000000000000000000000000000000000000000000000000000000081526004016109c7906110dc565b60405180910390fd5b7f15ed165a284872ea7017f03df402a0cadfbfab588320ffaf83f160c2f82781c7826040516109ff9190610c56565b60405180910390a15050565b600080fd5b6000819050919050565b610a2381610a10565b8114610a2e57600080fd5b50565b600081359050610a4081610a1a565b92915050565b600060208284031215610a5c57610a5b610a0b565b5b6000610a6a84828501610a31565b91505092915050565b600073ffffffffffffffffffffffffffffffffffffffff82169050919050565b6000610a9e82610a73565b9050919050565b610aae81610a93565b82525050565b6000602082019050610ac96000830184610aa5565b92915050565b60008115159050919050565b610ae481610acf565b82525050565b6000602082019050610aff6000830184610adb565b92915050565b600081519050919050565b600082825260208201905092915050565b60005b83811015610b3f578082015181840152602081019050610b24565b60008484015250505050565b6000601f19601f8301169050919050565b6000610b6782610b05565b610b718185610b10565b9350610b81818560208601610b21565b610b8a81610b4b565b840191505092915050565b60006020820190508181036000830152610baf8184610b5c565b905092915050565b610bc081610a93565b8114610bcb57600080fd5b50565b600081359050610bdd81610bb7565b92915050565b600060208284031215610bf957610bf8610a0b565b5b6000610c0784828501610bce565b91505092915050565b610c1981610a10565b82525050565b6000606082019050610c346000830186610aa5565b610c416020830185610c10565b610c4e6040830184610adb565b949350505050565b6000602082019050610c6b6000830184610c10565b92915050565b7f496e76616c6964205472616e73616374696f6e20496400000000000000000000600082015250565b6000610ca7601683610b10565b9150610cb282610c71565b602082019050919050565b60006020820190508181036000830152610cd681610c9a565b9050919050565b7f5472616e73616374696f6e20497320416c726561647920436f6e6669726d656460008201527f204279204f776e65720000000000000000000000000000000000000000000000602082015250565b6000610d39602983610b10565b9150610d4482610cdd565b604082019050919050565b60006020820190508181036000830152610d6881610d2c565b9050919050565b7f4e487b7100000000000000000000000000000000000000000000000000000000600052603260045260246000fd5b7f4e487b7100000000000000000000000000000000000000000000000000000000600052601160045260246000fd5b6000610dd882610a10565b91507fffffffffffffffffffffffffffffffffffffffffffffffffffffffffffffffff8203610e0a57610e09610d9e565b5b600182019050919050565b7f4e487b7100000000000000000000000000000000000000000000000000000000600052602260045260246000fd5b60006002820490506001821680610e5c57607f821691505b602082108103610e6f57610e6e610e15565b5b50919050565b7f496e76616c696420726563656976657273206164647265737300000000000000600082015250565b6000610eab601983610b10565b9150610eb682610e75565b602082019050919050565b60006020820190508181036000830152610eda81610e9e565b9050919050565b7f5472616e7366657220416d6f756e74204d75737420426520677265617465722060008201527f7468616e207a65726f0000000000000000000000000000000000000000000000602082015250565b6000610f3d602983610b10565b9150610f4882610ee1565b604082019050919050565b60006020820190508181036000830152610f6c81610f30565b9050919050565b6000608082019050610f886000830187610c10565b610f956020830186610aa5565b610fa26040830185610aa5565b610faf6060830184610c10565b95945050505050565b7f5472616e73616374696f6e20697320616c726561647920657865637574656400600082015250565b6000610fee601f83610b10565b9150610ff982610fb8565b602082019050919050565b6000602082019050818103600083015261101d81610fe1565b9050919050565b600081905092915050565b50565b600061103f600083611024565b915061104a8261102f565b600082019050919050565b600061106082611032565b9150819050919050565b7f5472616e73616374696f6e206578656375746564205375636365737366756c6c60008201527f7900000000000000000000000000000000000000000000000000000000000000602082015250565b60006110c6602183610b10565b91506110d18261106a565b604082019050919050565b600060208201905081810360008301526110f5816110b9565b905091905056fea2646970667358221220fc45b312427204c7f5141a9f4cd145be8bbcea5c12f17cb60b31bf7c6f5cea2f64736f6c63430008180033",
  "linkReferences": {},
  "deployedLinkReferences": {}
}