{
  "_format": "hh-sol-artifact-1",
  "contractName": "Multisigwallet",
  "sourceName": "contracts/Punkshieldwallet.sol",
  "abi": [
    {
      "inputs": [
        {
          "internalType": "string",
          "name": "_safeName",
          "type": "string"
        },
        {
          "internalType": "address[]",
          "name": "_owners",
          "type": "address[]"
        },
        {
          "internalType": "uint256",
          "name": "_numConfirmationRequired",
          "type": "uint256"
        }
      ],
      "stateMutability": "nonpayable",
      "type": "constructor"
    },
    {
      "anonymous": false,
      "inputs": [
        {
          "indexed": false,
          "internalType": "uint256",
          "name": "transactionId",
          "type": "uint256"
        }
      ],
      "name": "TransactionConfirmed",
      "type": "event"
    },
    {
      "anonymous": false,
      "inputs": [
        {
          "indexed": false,
          "internalType": "uint256",
          "name": "transactionId",
          "type": "uint256"
        }
      ],
      "name": "TransactionExecuted",
      "type": "event"
    },
    {
      "anonymous": false,
      "inputs": [
        {
          "indexed": false,
          "internalType": "uint256",
          "name": "transactionId",
          "type": "uint256"
        },
        {
          "indexed": false,
          "internalType": "address",
          "name": "sender",
          "type": "address"
        },
        {
          "indexed": false,
          "internalType": "address",
          "name": "receiver",
          "type": "address"
        },
        {
          "indexed": false,
          "internalType": "uint256",
          "name": "amount",
          "type": "uint256"
        }
      ],
      "name": "TransactionSubmitted",
      "type": "event"
    },
    {
      "stateMutability": "payable",
      "type": "fallback"
    },
    {
      "inputs": [
        {
          "internalType": "address",
          "name": "_addr",
          "type": "address"
        }
      ],
      "name": "addOwner",
      "outputs": [],
      "stateMutability": "nonpayable",
      "type": "function"
    },
    {
      "inputs": [
        {
          "internalType": "uint256",
          "name": "_transactionId",
          "type": "uint256"
        }
      ],
      "name": "confirmTxn",
      "outputs": [],
      "stateMutability": "nonpayable",
      "type": "function"
    },
    {
      "inputs": [
        {
          "internalType": "uint256",
          "name": "_transactionId",
          "type": "uint256"
        }
      ],
      "name": "executeTransaction",
      "outputs": [],
      "stateMutability": "payable",
      "type": "function"
    },
    {
      "inputs": [],
      "name": "getBalance",
      "outputs": [
        {
          "internalType": "uint256",
          "name": "",
          "type": "uint256"
        }
      ],
      "stateMutability": "view",
      "type": "function"
    },
    {
      "inputs": [],
      "name": "getOwners",
      "outputs": [
        {
          "internalType": "address[]",
          "name": "",
          "type": "address[]"
        }
      ],
      "stateMutability": "view",
      "type": "function"
    },
    {
      "inputs": [],
      "name": "getTransactions",
      "outputs": [
        {
          "components": [
            {
              "internalType": "address",
              "name": "to",
              "type": "address"
            },
            {
              "internalType": "uint256",
              "name": "value",
              "type": "uint256"
            },
            {
              "internalType": "bool",
              "name": "executed",
              "type": "bool"
            }
          ],
          "internalType": "struct Multisigwallet.Transactions[]",
          "name": "",
          "type": "tuple[]"
        }
      ],
      "stateMutability": "view",
      "type": "function"
    },
    {
      "inputs": [
        {
          "internalType": "uint256",
          "name": "_transactionId",
          "type": "uint256"
        }
      ],
      "name": "isTransactionConfirmed",
      "outputs": [
        {
          "internalType": "bool",
          "name": "",
          "type": "bool"
        }
      ],
      "stateMutability": "view",
      "type": "function"
    },
    {
      "inputs": [],
      "name": "multiSigAddr",
      "outputs": [
        {
          "internalType": "address",
          "name": "",
          "type": "address"
        }
      ],
      "stateMutability": "view",
      "type": "function"
    },
    {
      "inputs": [],
      "name": "numConfirmationsRequired",
      "outputs": [
        {
          "internalType": "uint256",
          "name": "",
          "type": "uint256"
        }
      ],
      "stateMutability": "view",
      "type": "function"
    },
    {
      "inputs": [
        {
          "internalType": "uint256",
          "name": "",
          "type": "uint256"
        }
      ],
      "name": "owners",
      "outputs": [
        {
          "internalType": "address",
          "name": "",
          "type": "address"
        }
      ],
      "stateMutability": "view",
      "type": "function"
    },
    {
      "inputs": [
        {
          "internalType": "uint256",
          "name": "_index",
          "type": "uint256"
        }
      ],
      "name": "removeOwner",
      "outputs": [
        {
          "internalType": "bool",
          "name": "",
          "type": "bool"
        }
      ],
      "stateMutability": "nonpayable",
      "type": "function"
    },
    {
      "inputs": [],
      "name": "safeName",
      "outputs": [
        {
          "internalType": "string",
          "name": "",
          "type": "string"
        }
      ],
      "stateMutability": "view",
      "type": "function"
    },
    {
      "inputs": [
        {
          "internalType": "uint256",
          "name": "_confirm",
          "type": "uint256"
        }
      ],
      "name": "setConfirmation",
      "outputs": [
        {
          "internalType": "bool",
          "name": "",
          "type": "bool"
        }
      ],
      "stateMutability": "nonpayable",
      "type": "function"
    },
    {
      "inputs": [
        {
          "internalType": "string",
          "name": "_newName",
          "type": "string"
        }
      ],
      "name": "setName",
      "outputs": [
        {
          "internalType": "bool",
          "name": "",
          "type": "bool"
        }
      ],
      "stateMutability": "nonpayable",
      "type": "function"
    },
    {
      "inputs": [
        {
          "internalType": "address",
          "name": "_to",
          "type": "address"
        }
      ],
      "name": "submitTxn",
      "outputs": [],
      "stateMutability": "payable",
      "type": "function"
    },
    {
      "inputs": [
        {
          "internalType": "uint256",
          "name": "",
          "type": "uint256"
        }
      ],
      "name": "transactions",
      "outputs": [
        {
          "internalType": "address",
          "name": "to",
          "type": "address"
        },
        {
          "internalType": "uint256",
          "name": "value",
          "type": "uint256"
        },
        {
          "internalType": "bool",
          "name": "executed",
          "type": "bool"
        }
      ],
      "stateMutability": "view",
      "type": "function"
    },
    {
      "inputs": [
        {
          "internalType": "uint256",
          "name": "_amount",
          "type": "uint256"
        },
        {
          "internalType": "address",
          "name": "_to",
          "type": "address"
        }
      ],
      "name": "withdraw",
      "outputs": [
        {
          "internalType": "bool",
          "name": "",
          "type": "bool"
        }
      ],
      "stateMutability": "payable",
      "type": "function"
    },
    {
      "stateMutability": "payable",
      "type": "receive"
    }
  ],
  "bytecode": "0x60806040523480156200001157600080fd5b5060405162002dba38038062002dba8339818101604052810190620000379190620004d3565b6001825110156200007f576040517f08c379a00000000000000000000000000000000000000000000000000000000081526004016200007690620005f4565b60405180910390fd5b8151811115620000c6576040517f08c379a0000000000000000000000000000000000000000000000000000000008152600401620000bd906200068c565b60405180910390fd5b60005b825181101562000161576000838281518110620000eb57620000ea620006ae565b5b60200260200101519080600181540180825580915050600190039060005260206000200160009091909190916101000a81548173ffffffffffffffffffffffffffffffffffffffff021916908373ffffffffffffffffffffffffffffffffffffffff1602179055508080600101915050620000c9565b508060018190555082600290816200017a91906200091e565b5030600360006101000a81548173ffffffffffffffffffffffffffffffffffffffff021916908373ffffffffffffffffffffffffffffffffffffffff16021790555050505062000a05565b6000604051905090565b600080fd5b600080fd5b600080fd5b600080fd5b6000601f19601f8301169050919050565b7f4e487b7100000000000000000000000000000000000000000000000000000000600052604160045260246000fd5b6200022e82620001e3565b810181811067ffffffffffffffff8211171562000250576200024f620001f4565b5b80604052505050565b600062000265620001c5565b905062000273828262000223565b919050565b600067ffffffffffffffff821115620002965762000295620001f4565b5b620002a182620001e3565b9050602081019050919050565b60005b83811015620002ce578082015181840152602081019050620002b1565b60008484015250505050565b6000620002f1620002eb8462000278565b62000259565b90508281526020810184848401111562000310576200030f620001de565b5b6200031d848285620002ae565b509392505050565b600082601f8301126200033d576200033c620001d9565b5b81516200034f848260208601620002da565b91505092915050565b600067ffffffffffffffff821115620003765762000375620001f4565b5b602082029050602081019050919050565b600080fd5b600073ffffffffffffffffffffffffffffffffffffffff82169050919050565b6000620003b9826200038c565b9050919050565b620003cb81620003ac565b8114620003d757600080fd5b50565b600081519050620003eb81620003c0565b92915050565b600062000408620004028462000358565b62000259565b905080838252602082019050602084028301858111156200042e576200042d62000387565b5b835b818110156200045b5780620004468882620003da565b84526020840193505060208101905062000430565b5050509392505050565b600082601f8301126200047d576200047c620001d9565b5b81516200048f848260208601620003f1565b91505092915050565b6000819050919050565b620004ad8162000498565b8114620004b957600080fd5b50565b600081519050620004cd81620004a2565b92915050565b600080600060608486031215620004ef57620004ee620001cf565b5b600084015167ffffffffffffffff81111562000510576200050f620001d4565b5b6200051e8682870162000325565b935050602084015167ffffffffffffffff811115620005425762000541620001d4565b5b620005508682870162000465565b92505060406200056386828701620004bc565b9150509250925092565b600082825260208201905092915050565b7f4f776e657273205265717569726564204d75737420426520477265737465722060008201527f5468616e20310000000000000000000000000000000000000000000000000000602082015250565b6000620005dc6026836200056d565b9150620005e9826200057e565b604082019050919050565b600060208201905081810360008301526200060f81620005cd565b9050919050565b7f4e756d626572206f6620636f6e6669726d6174696f6e7320657863656564732060008201527f6e756d626572206f66206f776e65727300000000000000000000000000000000602082015250565b6000620006746030836200056d565b9150620006818262000616565b604082019050919050565b60006020820190508181036000830152620006a78162000665565b9050919050565b7f4e487b7100000000000000000000000000000000000000000000000000000000600052603260045260246000fd5b600081519050919050565b7f4e487b7100000000000000000000000000000000000000000000000000000000600052602260045260246000fd5b600060028204905060018216806200073057607f821691505b602082108103620007465762000745620006e8565b5b50919050565b60008190508160005260206000209050919050565b60006020601f8301049050919050565b600082821b905092915050565b600060088302620007b07fffffffffffffffffffffffffffffffffffffffffffffffffffffffffffffffff8262000771565b620007bc868362000771565b95508019841693508086168417925050509392505050565b6000819050919050565b6000620007ff620007f9620007f38462000498565b620007d4565b62000498565b9050919050565b6000819050919050565b6200081b83620007de565b620008336200082a8262000806565b8484546200077e565b825550505050565b600090565b6200084a6200083b565b6200085781848462000810565b505050565b5b818110156200087f576200087360008262000840565b6001810190506200085d565b5050565b601f821115620008ce5762000898816200074c565b620008a38462000761565b81016020851015620008b3578190505b620008cb620008c28562000761565b8301826200085c565b50505b505050565b600082821c905092915050565b6000620008f360001984600802620008d3565b1980831691505092915050565b60006200090e8383620008e0565b9150826002028217905092915050565b6200092982620006dd565b67ffffffffffffffff811115620009455762000944620001f4565b5b62000951825462000717565b6200095e82828562000883565b600060209050601f83116001811462000996576000841562000981578287015190505b6200098d858262000900565b865550620009fd565b601f198416620009a6866200074c565b60005b82811015620009d057848901518255600182019150602085019450602081019050620009a9565b86831015620009f05784890151620009ec601f891682620008e0565b8355505b6001600288020188555050505b505050505050565b6123a58062000a156000396000f3fe6080604052600436106101015760003560e01c80637065cb4811610095578063a0e67e2b11610064578063a0e67e2b1461034a578063c47f002714610375578063d0549b85146103b2578063e3ca2028146103dd578063ee22610b1461041a57610108565b80637065cb481461029b57806383920e90146102c45780638eb6116b146102ef5780639ace38c21461030b57610108565b806312065fe0116100d157806312065fe0146101dd578063183e9565146102085780634e082382146102335780636b9194881461025e57610108565b8062f714ce1461010a578063025e7c271461013a57806309bcf3e8146101775780630b1cd2c0146101a057610108565b3661010857005b005b610124600480360381019061011f9190611344565b610436565b604051610131919061139f565b60405180910390f35b34801561014657600080fd5b50610161600480360381019061015c91906113ba565b610629565b60405161016e91906113f6565b60405180910390f35b34801561018357600080fd5b5061019e600480360381019061019991906113ba565b610668565b005b3480156101ac57600080fd5b506101c760048036038101906101c291906113ba565b610808565b6040516101d4919061139f565b60405180910390f35b3480156101e957600080fd5b506101f2610931565b6040516101ff9190611420565b60405180910390f35b34801561021457600080fd5b5061021d610939565b60405161022a91906113f6565b60405180910390f35b34801561023f57600080fd5b5061024861095f565b60405161025591906114cb565b60405180910390f35b34801561026a57600080fd5b50610285600480360381019061028091906113ba565b6109ed565b604051610292919061139f565b60405180910390f35b3480156102a757600080fd5b506102c260048036038101906102bd91906114ed565b610a7f565b005b3480156102d057600080fd5b506102d9610b9b565b6040516102e69190611638565b60405180910390f35b610309600480360381019061030491906114ed565b610c75565b005b34801561031757600080fd5b50610332600480360381019061032d91906113ba565b610e44565b6040516103419392919061165a565b60405180910390f35b34801561035657600080fd5b5061035f610eab565b60405161036c9190611740565b60405180910390f35b34801561038157600080fd5b5061039c60048036038101906103979190611897565b610f39565b6040516103a9919061139f565b60405180910390f35b3480156103be57600080fd5b506103c7610f54565b6040516103d49190611420565b60405180910390f35b3480156103e957600080fd5b5061040460048036038101906103ff91906113ba565b610f5a565b604051610411919061139f565b60405180910390f35b610434600480360381019061042f91906113ba565b610fb2565b005b60006104406111fb565b61047f576040517f08c379a00000000000000000000000000000000000000000000000000000000081526004016104769061192c565b60405180910390fd5b600047116104c2576040517f08c379a00000000000000000000000000000000000000000000000000000000081526004016104b990611998565b60405180910390fd5b478310610504576040517f08c379a00000000000000000000000000000000000000000000000000000000081526004016104fb90611a04565b60405180910390fd5b600073ffffffffffffffffffffffffffffffffffffffff168273ffffffffffffffffffffffffffffffffffffffff1603610573576040517f08c379a000000000000000000000000000000000000000000000000000000000815260040161056a90611a70565b60405180910390fd5b60008273ffffffffffffffffffffffffffffffffffffffff168460405161059990611ac1565b60006040518083038185875af1925050503d80600081146105d6576040519150601f19603f3d011682016040523d82523d6000602084013e6105db565b606091505b505090508061061f576040517f08c379a000000000000000000000000000000000000000000000000000000000815260040161061690611b22565b60405180910390fd5b8091505092915050565b6000818154811061063957600080fd5b906000526020600020016000915054906101000a900473ffffffffffffffffffffffffffffffffffffffff1681565b60058054905081106106af576040517f08c379a00000000000000000000000000000000000000000000000000000000081526004016106a690611b8e565b60405180910390fd5b6004600082815260200190815260200160002060003373ffffffffffffffffffffffffffffffffffffffff1673ffffffffffffffffffffffffffffffffffffffff16815260200190815260200160002060009054906101000a900460ff161561074d576040517f08c379a000000000000000000000000000000000000000000000000000000000815260040161074490611c20565b60405180910390fd5b60016004600083815260200190815260200160002060003373ffffffffffffffffffffffffffffffffffffffff1673ffffffffffffffffffffffffffffffffffffffff16815260200190815260200160002060006101000a81548160ff0219169083151502179055507fef524c298d730e7d5714dbe2fce9d4eca7de755a12628704719170afda39678b816040516107e59190611420565b60405180910390a16107f681610808565b156108055761080481610fb2565b5b50565b60006005805490508210610851576040517f08c379a000000000000000000000000000000000000000000000000000000000815260040161084890611b8e565b60405180910390fd5b600080600090505b6000805490508110156109225760046000858152602001908152602001600020600080838154811061088e5761088d611c40565b5b9060005260206000200160009054906101000a900473ffffffffffffffffffffffffffffffffffffffff1673ffffffffffffffffffffffffffffffffffffffff1673ffffffffffffffffffffffffffffffffffffffff16815260200190815260200160002060009054906101000a900460ff161561091557818061091190611c9e565b9250505b8080600101915050610859565b50600154811015915050919050565b600047905090565b600360009054906101000a900473ffffffffffffffffffffffffffffffffffffffff1681565b6002805461096c90611d15565b80601f016020809104026020016040519081016040528092919081815260200182805461099890611d15565b80156109e55780601f106109ba576101008083540402835291602001916109e5565b820191906000526020600020905b8154815290600101906020018083116109c857829003601f168201915b505050505081565b600080805490508210610a35576040517f08c379a0000000000000000000000000000000000000000000000000000000008152600401610a2c90611d92565b60405180910390fd5b60008281548110610a4957610a48611c40565b5b9060005260206000200160006101000a81549073ffffffffffffffffffffffffffffffffffffffff021916905560019050919050565b610a876111fb565b610ac6576040517f08c379a0000000000000000000000000000000000000000000000000000000008152600401610abd9061192c565b60405180910390fd5b600073ffffffffffffffffffffffffffffffffffffffff168173ffffffffffffffffffffffffffffffffffffffff1603610b35576040517f08c379a0000000000000000000000000000000000000000000000000000000008152600401610b2c90611dfe565b60405180910390fd5b6000819080600181540180825580915050600190039060005260206000200160009091909190916101000a81548173ffffffffffffffffffffffffffffffffffffffff021916908373ffffffffffffffffffffffffffffffffffffffff16021790555050565b60606005805480602002602001604051908101604052809291908181526020016000905b82821015610c6c57838290600052602060002090600302016040518060600160405290816000820160009054906101000a900473ffffffffffffffffffffffffffffffffffffffff1673ffffffffffffffffffffffffffffffffffffffff1673ffffffffffffffffffffffffffffffffffffffff168152602001600182015481526020016002820160009054906101000a900460ff16151515158152505081526020019060010190610bbf565b50505050905090565b600073ffffffffffffffffffffffffffffffffffffffff168173ffffffffffffffffffffffffffffffffffffffff1603610ce4576040517f08c379a0000000000000000000000000000000000000000000000000000000008152600401610cdb90611e6a565b60405180910390fd5b60003411610d27576040517f08c379a0000000000000000000000000000000000000000000000000000000008152600401610d1e90611efc565b60405180910390fd5b60006005805490509050600560405180606001604052808473ffffffffffffffffffffffffffffffffffffffff16815260200134815260200160001515815250908060018154018082558091505060019003906000526020600020906003020160009091909190915060008201518160000160006101000a81548173ffffffffffffffffffffffffffffffffffffffff021916908373ffffffffffffffffffffffffffffffffffffffff1602179055506020820151816001015560408201518160020160006101000a81548160ff02191690831515021790555050507f753dcda37efe0bc3675e04e24d1fb08b70681f14675eed4b6e7978495caf2ca081338434604051610e389493929190611f1c565b60405180910390a15050565b60058181548110610e5457600080fd5b90600052602060002090600302016000915090508060000160009054906101000a900473ffffffffffffffffffffffffffffffffffffffff16908060010154908060020160009054906101000a900460ff16905083565b60606000805480602002602001604051908101604052809291908181526020018280548015610f2f57602002820191906000526020600020905b8160009054906101000a900473ffffffffffffffffffffffffffffffffffffffff1673ffffffffffffffffffffffffffffffffffffffff1681526020019060010190808311610ee5575b5050505050905090565b60008160029081610f4a919061210d565b5060019050919050565b60015481565b600080805490508210610fa2576040517f08c379a0000000000000000000000000000000000000000000000000000000008152600401610f9990612251565b60405180910390fd5b8160018190555060019050919050565b6005805490508110610ff9576040517f08c379a0000000000000000000000000000000000000000000000000000000008152600401610ff090611b8e565b60405180910390fd5b6005818154811061100d5761100c611c40565b5b906000526020600020906003020160020160009054906101000a900460ff161561106c576040517f08c379a0000000000000000000000000000000000000000000000000000000008152600401611063906122bd565b60405180910390fd5b60006005828154811061108257611081611c40565b5b906000526020600020906003020160000160009054906101000a900473ffffffffffffffffffffffffffffffffffffffff1673ffffffffffffffffffffffffffffffffffffffff16600583815481106110de576110dd611c40565b5b9060005260206000209060030201600101546040516110fc90611ac1565b60006040518083038185875af1925050503d8060008114611139576040519150601f19603f3d011682016040523d82523d6000602084013e61113e565b606091505b5050905060016005838154811061115857611157611c40565b5b906000526020600020906003020160020160006101000a81548160ff021916908315150217905550806111c0576040517f08c379a00000000000000000000000000000000000000000000000000000000081526004016111b79061234f565b60405180910390fd5b7f15ed165a284872ea7017f03df402a0cadfbfab588320ffaf83f160c2f82781c7826040516111ef9190611420565b60405180910390a15050565b600080600090505b6000805490508111611294576000818154811061122357611222611c40565b5b9060005260206000200160009054906101000a900473ffffffffffffffffffffffffffffffffffffffff1673ffffffffffffffffffffffffffffffffffffffff163373ffffffffffffffffffffffffffffffffffffffff16031561129457808061128c90611c9e565b915050611203565b506001905090565b6000604051905090565b600080fd5b600080fd5b6000819050919050565b6112c3816112b0565b81146112ce57600080fd5b50565b6000813590506112e0816112ba565b92915050565b600073ffffffffffffffffffffffffffffffffffffffff82169050919050565b6000611311826112e6565b9050919050565b61132181611306565b811461132c57600080fd5b50565b60008135905061133e81611318565b92915050565b6000806040838503121561135b5761135a6112a6565b5b6000611369858286016112d1565b925050602061137a8582860161132f565b9150509250929050565b60008115159050919050565b61139981611384565b82525050565b60006020820190506113b46000830184611390565b92915050565b6000602082840312156113d0576113cf6112a6565b5b60006113de848285016112d1565b91505092915050565b6113f081611306565b82525050565b600060208201905061140b60008301846113e7565b92915050565b61141a816112b0565b82525050565b60006020820190506114356000830184611411565b92915050565b600081519050919050565b600082825260208201905092915050565b60005b8381101561147557808201518184015260208101905061145a565b60008484015250505050565b6000601f19601f8301169050919050565b600061149d8261143b565b6114a78185611446565b93506114b7818560208601611457565b6114c081611481565b840191505092915050565b600060208201905081810360008301526114e58184611492565b905092915050565b600060208284031215611503576115026112a6565b5b60006115118482850161132f565b91505092915050565b600081519050919050565b600082825260208201905092915050565b6000819050602082019050919050565b61154f81611306565b82525050565b61155e816112b0565b82525050565b61156d81611384565b82525050565b6060820160008201516115896000850182611546565b50602082015161159c6020850182611555565b5060408201516115af6040850182611564565b50505050565b60006115c18383611573565b60608301905092915050565b6000602082019050919050565b60006115e58261151a565b6115ef8185611525565b93506115fa83611536565b8060005b8381101561162b57815161161288826115b5565b975061161d836115cd565b9250506001810190506115fe565b5085935050505092915050565b6000602082019050818103600083015261165281846115da565b905092915050565b600060608201905061166f60008301866113e7565b61167c6020830185611411565b6116896040830184611390565b949350505050565b600081519050919050565b600082825260208201905092915050565b6000819050602082019050919050565b60006116c98383611546565b60208301905092915050565b6000602082019050919050565b60006116ed82611691565b6116f7818561169c565b9350611702836116ad565b8060005b8381101561173357815161171a88826116bd565b9750611725836116d5565b925050600181019050611706565b5085935050505092915050565b6000602082019050818103600083015261175a81846116e2565b905092915050565b600080fd5b600080fd5b7f4e487b7100000000000000000000000000000000000000000000000000000000600052604160045260246000fd5b6117a482611481565b810181811067ffffffffffffffff821117156117c3576117c261176c565b5b80604052505050565b60006117d661129c565b90506117e2828261179b565b919050565b600067ffffffffffffffff8211156118025761180161176c565b5b61180b82611481565b9050602081019050919050565b82818337600083830152505050565b600061183a611835846117e7565b6117cc565b90508281526020810184848401111561185657611855611767565b5b611861848285611818565b509392505050565b600082601f83011261187e5761187d611762565b5b813561188e848260208601611827565b91505092915050565b6000602082840312156118ad576118ac6112a6565b5b600082013567ffffffffffffffff8111156118cb576118ca6112ab565b5b6118d784828501611869565b91505092915050565b7f596f7520617265206e6f7420616d6f6e6720746865206f776e65727300000000600082015250565b6000611916601c83611446565b9150611921826118e0565b602082019050919050565b6000602082019050818103600083015261194581611909565b9050919050565b7f596f752068617665207a72656f2062616c616e63650000000000000000000000600082015250565b6000611982601583611446565b915061198d8261194c565b602082019050919050565b600060208201905081810360008301526119b181611975565b9050919050565b7f43616e6e6f742073656e64206d6f7265207468616e2062616c616e6365000000600082015250565b60006119ee601d83611446565b91506119f9826119b8565b602082019050919050565b60006020820190508181036000830152611a1d816119e1565b9050919050565b7f43616e6e6f742073656e6420746f207a65726f20616464726573730000000000600082015250565b6000611a5a601b83611446565b9150611a6582611a24565b602082019050919050565b60006020820190508181036000830152611a8981611a4d565b9050919050565b600081905092915050565b50565b6000611aab600083611a90565b9150611ab682611a9b565b600082019050919050565b6000611acc82611a9e565b9150819050919050565b7f5472616e73666572204661696c65640000000000000000000000000000000000600082015250565b6000611b0c600f83611446565b9150611b1782611ad6565b602082019050919050565b60006020820190508181036000830152611b3b81611aff565b9050919050565b7f496e76616c6964205472616e73616374696f6e20496400000000000000000000600082015250565b6000611b78601683611446565b9150611b8382611b42565b602082019050919050565b60006020820190508181036000830152611ba781611b6b565b9050919050565b7f5472616e73616374696f6e20497320416c726561647920436f6e6669726d656460008201527f204279204f776e65720000000000000000000000000000000000000000000000602082015250565b6000611c0a602983611446565b9150611c1582611bae565b604082019050919050565b60006020820190508181036000830152611c3981611bfd565b9050919050565b7f4e487b7100000000000000000000000000000000000000000000000000000000600052603260045260246000fd5b7f4e487b7100000000000000000000000000000000000000000000000000000000600052601160045260246000fd5b6000611ca9826112b0565b91507fffffffffffffffffffffffffffffffffffffffffffffffffffffffffffffffff8203611cdb57611cda611c6f565b5b600182019050919050565b7f4e487b7100000000000000000000000000000000000000000000000000000000600052602260045260246000fd5b60006002820490506001821680611d2d57607f821691505b602082108103611d4057611d3f611ce6565b5b50919050565b7f696e646578206f7574206f6620626f756e640000000000000000000000000000600082015250565b6000611d7c601283611446565b9150611d8782611d46565b602082019050919050565b60006020820190508181036000830152611dab81611d6f565b9050919050565b7f43616e6e6f7420616464207a65726f2061646472657373206173206f776e6572600082015250565b6000611de8602083611446565b9150611df382611db2565b602082019050919050565b60006020820190508181036000830152611e1781611ddb565b9050919050565b7f496e76616c696420726563656976657273206164647265737300000000000000600082015250565b6000611e54601983611446565b9150611e5f82611e1e565b602082019050919050565b60006020820190508181036000830152611e8381611e47565b9050919050565b7f5472616e7366657220416d6f756e74204d75737420426520677265617465722060008201527f7468616e207a65726f0000000000000000000000000000000000000000000000602082015250565b6000611ee6602983611446565b9150611ef182611e8a565b604082019050919050565b60006020820190508181036000830152611f1581611ed9565b9050919050565b6000608082019050611f316000830187611411565b611f3e60208301866113e7565b611f4b60408301856113e7565b611f586060830184611411565b95945050505050565b60008190508160005260206000209050919050565b60006020601f8301049050919050565b600082821b905092915050565b600060088302611fc37fffffffffffffffffffffffffffffffffffffffffffffffffffffffffffffffff82611f86565b611fcd8683611f86565b95508019841693508086168417925050509392505050565b6000819050919050565b600061200a612005612000846112b0565b611fe5565b6112b0565b9050919050565b6000819050919050565b61202483611fef565b61203861203082612011565b848454611f93565b825550505050565b600090565b61204d612040565b61205881848461201b565b505050565b5b8181101561207c57612071600082612045565b60018101905061205e565b5050565b601f8211156120c15761209281611f61565b61209b84611f76565b810160208510156120aa578190505b6120be6120b685611f76565b83018261205d565b50505b505050565b600082821c905092915050565b60006120e4600019846008026120c6565b1980831691505092915050565b60006120fd83836120d3565b9150826002028217905092915050565b6121168261143b565b67ffffffffffffffff81111561212f5761212e61176c565b5b6121398254611d15565b612144828285612080565b600060209050601f8311600181146121775760008415612165578287015190505b61216f85826120f1565b8655506121d7565b601f19841661218586611f61565b60005b828110156121ad57848901518255600182019150602085019450602081019050612188565b868310156121ca57848901516121c6601f8916826120d3565b8355505b6001600288020188555050505b505050505050565b7f4e756d626572206f6620636f6e6669726d6174696f6e2073686f756c6420626560008201527f206c657373207468616e206f776e657273000000000000000000000000000000602082015250565b600061223b603183611446565b9150612246826121df565b604082019050919050565b6000602082019050818103600083015261226a8161222e565b9050919050565b7f5472616e73616374696f6e20697320616c726561647920657865637574656400600082015250565b60006122a7601f83611446565b91506122b282612271565b602082019050919050565b600060208201905081810360008301526122d68161229a565b9050919050565b7f5472616e73616374696f6e206578656375746564205375636365737366756c6c60008201527f7900000000000000000000000000000000000000000000000000000000000000602082015250565b6000612339602183611446565b9150612344826122dd565b604082019050919050565b600060208201905081810360008301526123688161232c565b905091905056fea2646970667358221220ef26d643e8cea24c945df49ffbfc241944b902d4722655ef172894ac4da2a42e64736f6c63430008180033",
  "linkReferences": {},
  "deployedLinkReferences": {}
}