{
  "_format": "hh-sol-artifact-1",
  "contractName": "MintPunks",
  "sourceName": "contracts/MintPunks.sol",
  "abi": [
    {
      "inputs": [
        {
          "internalType": "string",
          "name": "_name",
          "type": "string"
        },
        {
          "internalType": "string",
          "name": "_symbol",
          "type": "string"
        },
        {
          "internalType": "string",
          "name": "_initBaseURI",
          "type": "string"
        },
        {
          "internalType": "uint256",
          "name": "_limit",
          "type": "uint256"
        },
        {
          "internalType": "uint256",
          "name": "_pubLimit",
          "type": "uint256"
        },
        {
          "internalType": "uint256",
          "name": "_FCFSLimit",
          "type": "uint256"
        },
        {
          "internalType": "uint256",
          "name": "_wlStartTime",
          "type": "uint256"
        }
      ],
      "stateMutability": "nonpayable",
      "type": "constructor"
    },
    {
      "inputs": [],
      "name": "ERC721EnumerableForbiddenBatchMint",
      "type": "error"
    },
    {
      "inputs": [
        {
          "internalType": "address",
          "name": "sender",
          "type": "address"
        },
        {
          "internalType": "uint256",
          "name": "tokenId",
          "type": "uint256"
        },
        {
          "internalType": "address",
          "name": "owner",
          "type": "address"
        }
      ],
      "name": "ERC721IncorrectOwner",
      "type": "error"
    },
    {
      "inputs": [
        {
          "internalType": "address",
          "name": "operator",
          "type": "address"
        },
        {
          "internalType": "uint256",
          "name": "tokenId",
          "type": "uint256"
        }
      ],
      "name": "ERC721InsufficientApproval",
      "type": "error"
    },
    {
      "inputs": [
        {
          "internalType": "address",
          "name": "approver",
          "type": "address"
        }
      ],
      "name": "ERC721InvalidApprover",
      "type": "error"
    },
    {
      "inputs": [
        {
          "internalType": "address",
          "name": "operator",
          "type": "address"
        }
      ],
      "name": "ERC721InvalidOperator",
      "type": "error"
    },
    {
      "inputs": [
        {
          "internalType": "address",
          "name": "owner",
          "type": "address"
        }
      ],
      "name": "ERC721InvalidOwner",
      "type": "error"
    },
    {
      "inputs": [
        {
          "internalType": "address",
          "name": "receiver",
          "type": "address"
        }
      ],
      "name": "ERC721InvalidReceiver",
      "type": "error"
    },
    {
      "inputs": [
        {
          "internalType": "address",
          "name": "sender",
          "type": "address"
        }
      ],
      "name": "ERC721InvalidSender",
      "type": "error"
    },
    {
      "inputs": [
        {
          "internalType": "uint256",
          "name": "tokenId",
          "type": "uint256"
        }
      ],
      "name": "ERC721NonexistentToken",
      "type": "error"
    },
    {
      "inputs": [
        {
          "internalType": "address",
          "name": "owner",
          "type": "address"
        },
        {
          "internalType": "uint256",
          "name": "index",
          "type": "uint256"
        }
      ],
      "name": "ERC721OutOfBoundsIndex",
      "type": "error"
    },
    {
      "inputs": [
        {
          "internalType": "address",
          "name": "owner",
          "type": "address"
        }
      ],
      "name": "OwnableInvalidOwner",
      "type": "error"
    },
    {
      "inputs": [
        {
          "internalType": "address",
          "name": "account",
          "type": "address"
        }
      ],
      "name": "OwnableUnauthorizedAccount",
      "type": "error"
    },
    {
      "anonymous": false,
      "inputs": [
        {
          "indexed": true,
          "internalType": "address",
          "name": "owner",
          "type": "address"
        },
        {
          "indexed": true,
          "internalType": "address",
          "name": "approved",
          "type": "address"
        },
        {
          "indexed": true,
          "internalType": "uint256",
          "name": "tokenId",
          "type": "uint256"
        }
      ],
      "name": "Approval",
      "type": "event"
    },
    {
      "anonymous": false,
      "inputs": [
        {
          "indexed": true,
          "internalType": "address",
          "name": "owner",
          "type": "address"
        },
        {
          "indexed": true,
          "internalType": "address",
          "name": "operator",
          "type": "address"
        },
        {
          "indexed": false,
          "internalType": "bool",
          "name": "approved",
          "type": "bool"
        }
      ],
      "name": "ApprovalForAll",
      "type": "event"
    },
    {
      "anonymous": false,
      "inputs": [
        {
          "indexed": true,
          "internalType": "address",
          "name": "previousOwner",
          "type": "address"
        },
        {
          "indexed": true,
          "internalType": "address",
          "name": "newOwner",
          "type": "address"
        }
      ],
      "name": "OwnershipTransferred",
      "type": "event"
    },
    {
      "anonymous": false,
      "inputs": [
        {
          "indexed": true,
          "internalType": "address",
          "name": "from",
          "type": "address"
        },
        {
          "indexed": true,
          "internalType": "address",
          "name": "to",
          "type": "address"
        },
        {
          "indexed": true,
          "internalType": "uint256",
          "name": "tokenId",
          "type": "uint256"
        }
      ],
      "name": "Transfer",
      "type": "event"
    },
    {
      "inputs": [],
      "name": "FCFSLimit",
      "outputs": [
        {
          "internalType": "uint256",
          "name": "",
          "type": "uint256"
        }
      ],
      "stateMutability": "view",
      "type": "function"
    },
    {
      "inputs": [
        {
          "internalType": "address",
          "name": "",
          "type": "address"
        }
      ],
      "name": "FCFSMint",
      "outputs": [
        {
          "internalType": "bool",
          "name": "",
          "type": "bool"
        }
      ],
      "stateMutability": "view",
      "type": "function"
    },
    {
      "inputs": [
        {
          "internalType": "address",
          "name": "",
          "type": "address"
        }
      ],
      "name": "FSCSMinted",
      "outputs": [
        {
          "internalType": "uint256",
          "name": "",
          "type": "uint256"
        }
      ],
      "stateMutability": "view",
      "type": "function"
    },
    {
      "inputs": [
        {
          "internalType": "address[]",
          "name": "_addresses",
          "type": "address[]"
        }
      ],
      "name": "addToFCFS",
      "outputs": [],
      "stateMutability": "nonpayable",
      "type": "function"
    },
    {
      "inputs": [
        {
          "internalType": "address[]",
          "name": "_addresses",
          "type": "address[]"
        }
      ],
      "name": "addToWhitelist",
      "outputs": [],
      "stateMutability": "nonpayable",
      "type": "function"
    },
    {
      "inputs": [
        {
          "internalType": "address",
          "name": "to",
          "type": "address"
        },
        {
          "internalType": "uint256",
          "name": "tokenId",
          "type": "uint256"
        }
      ],
      "name": "approve",
      "outputs": [],
      "stateMutability": "nonpayable",
      "type": "function"
    },
    {
      "inputs": [
        {
          "internalType": "address",
          "name": "owner",
          "type": "address"
        }
      ],
      "name": "balanceOf",
      "outputs": [
        {
          "internalType": "uint256",
          "name": "",
          "type": "uint256"
        }
      ],
      "stateMutability": "view",
      "type": "function"
    },
    {
      "inputs": [
        {
          "internalType": "uint256",
          "name": "_newTime",
          "type": "uint256"
        }
      ],
      "name": "changeStartTime",
      "outputs": [],
      "stateMutability": "nonpayable",
      "type": "function"
    },
    {
      "inputs": [],
      "name": "cost",
      "outputs": [
        {
          "internalType": "uint256",
          "name": "",
          "type": "uint256"
        }
      ],
      "stateMutability": "view",
      "type": "function"
    },
    {
      "inputs": [],
      "name": "fcfsEndTime",
      "outputs": [
        {
          "internalType": "uint256",
          "name": "",
          "type": "uint256"
        }
      ],
      "stateMutability": "view",
      "type": "function"
    },
    {
      "inputs": [
        {
          "internalType": "uint256",
          "name": "tokenId",
          "type": "uint256"
        }
      ],
      "name": "getApproved",
      "outputs": [
        {
          "internalType": "address",
          "name": "",
          "type": "address"
        }
      ],
      "stateMutability": "view",
      "type": "function"
    },
    {
      "inputs": [],
      "name": "getSalePhases",
      "outputs": [
        {
          "internalType": "bool[3]",
          "name": "",
          "type": "bool[3]"
        }
      ],
      "stateMutability": "view",
      "type": "function"
    },
    {
      "inputs": [
        {
          "internalType": "address",
          "name": "owner",
          "type": "address"
        },
        {
          "internalType": "address",
          "name": "operator",
          "type": "address"
        }
      ],
      "name": "isApprovedForAll",
      "outputs": [
        {
          "internalType": "bool",
          "name": "",
          "type": "bool"
        }
      ],
      "stateMutability": "view",
      "type": "function"
    },
    {
      "inputs": [],
      "name": "maxSupply",
      "outputs": [
        {
          "internalType": "uint256",
          "name": "",
          "type": "uint256"
        }
      ],
      "stateMutability": "view",
      "type": "function"
    },
    {
      "inputs": [
        {
          "internalType": "uint256",
          "name": "_mintAmount",
          "type": "uint256"
        }
      ],
      "name": "mint",
      "outputs": [],
      "stateMutability": "payable",
      "type": "function"
    },
    {
      "inputs": [],
      "name": "name",
      "outputs": [
        {
          "internalType": "string",
          "name": "",
          "type": "string"
        }
      ],
      "stateMutability": "view",
      "type": "function"
    },
    {
      "inputs": [],
      "name": "owner",
      "outputs": [
        {
          "internalType": "address",
          "name": "",
          "type": "address"
        }
      ],
      "stateMutability": "view",
      "type": "function"
    },
    {
      "inputs": [
        {
          "internalType": "uint256",
          "name": "tokenId",
          "type": "uint256"
        }
      ],
      "name": "ownerOf",
      "outputs": [
        {
          "internalType": "address",
          "name": "",
          "type": "address"
        }
      ],
      "stateMutability": "view",
      "type": "function"
    },
    {
      "inputs": [
        {
          "internalType": "bool",
          "name": "_state",
          "type": "bool"
        }
      ],
      "name": "pause",
      "outputs": [],
      "stateMutability": "nonpayable",
      "type": "function"
    },
    {
      "inputs": [],
      "name": "paused",
      "outputs": [
        {
          "internalType": "bool",
          "name": "",
          "type": "bool"
        }
      ],
      "stateMutability": "view",
      "type": "function"
    },
    {
      "inputs": [],
      "name": "publicLimit",
      "outputs": [
        {
          "internalType": "uint256",
          "name": "",
          "type": "uint256"
        }
      ],
      "stateMutability": "view",
      "type": "function"
    },
    {
      "inputs": [
        {
          "internalType": "address",
          "name": "",
          "type": "address"
        }
      ],
      "name": "publicMinted",
      "outputs": [
        {
          "internalType": "uint256",
          "name": "",
          "type": "uint256"
        }
      ],
      "stateMutability": "view",
      "type": "function"
    },
    {
      "inputs": [
        {
          "internalType": "address[]",
          "name": "_addresses",
          "type": "address[]"
        }
      ],
      "name": "removeFromFCFS",
      "outputs": [],
      "stateMutability": "nonpayable",
      "type": "function"
    },
    {
      "inputs": [
        {
          "internalType": "address[]",
          "name": "_addresses",
          "type": "address[]"
        }
      ],
      "name": "removeFromWhitelist",
      "outputs": [],
      "stateMutability": "nonpayable",
      "type": "function"
    },
    {
      "inputs": [],
      "name": "renounceOwnership",
      "outputs": [],
      "stateMutability": "nonpayable",
      "type": "function"
    },
    {
      "inputs": [
        {
          "internalType": "address",
          "name": "from",
          "type": "address"
        },
        {
          "internalType": "address",
          "name": "to",
          "type": "address"
        },
        {
          "internalType": "uint256",
          "name": "tokenId",
          "type": "uint256"
        }
      ],
      "name": "safeTransferFrom",
      "outputs": [],
      "stateMutability": "nonpayable",
      "type": "function"
    },
    {
      "inputs": [
        {
          "internalType": "address",
          "name": "from",
          "type": "address"
        },
        {
          "internalType": "address",
          "name": "to",
          "type": "address"
        },
        {
          "internalType": "uint256",
          "name": "tokenId",
          "type": "uint256"
        },
        {
          "internalType": "bytes",
          "name": "data",
          "type": "bytes"
        }
      ],
      "name": "safeTransferFrom",
      "outputs": [],
      "stateMutability": "nonpayable",
      "type": "function"
    },
    {
      "inputs": [
        {
          "internalType": "address",
          "name": "operator",
          "type": "address"
        },
        {
          "internalType": "bool",
          "name": "approved",
          "type": "bool"
        }
      ],
      "name": "setApprovalForAll",
      "outputs": [],
      "stateMutability": "nonpayable",
      "type": "function"
    },
    {
      "inputs": [
        {
          "internalType": "string",
          "name": "_newBaseURI",
          "type": "string"
        }
      ],
      "name": "setBaseURI",
      "outputs": [],
      "stateMutability": "nonpayable",
      "type": "function"
    },
    {
      "inputs": [
        {
          "internalType": "uint256",
          "name": "_newCost",
          "type": "uint256"
        }
      ],
      "name": "setCost",
      "outputs": [],
      "stateMutability": "nonpayable",
      "type": "function"
    },
    {
      "inputs": [
        {
          "internalType": "bytes4",
          "name": "interfaceId",
          "type": "bytes4"
        }
      ],
      "name": "supportsInterface",
      "outputs": [
        {
          "internalType": "bool",
          "name": "",
          "type": "bool"
        }
      ],
      "stateMutability": "view",
      "type": "function"
    },
    {
      "inputs": [],
      "name": "symbol",
      "outputs": [
        {
          "internalType": "string",
          "name": "",
          "type": "string"
        }
      ],
      "stateMutability": "view",
      "type": "function"
    },
    {
      "inputs": [
        {
          "internalType": "uint256",
          "name": "index",
          "type": "uint256"
        }
      ],
      "name": "tokenByIndex",
      "outputs": [
        {
          "internalType": "uint256",
          "name": "",
          "type": "uint256"
        }
      ],
      "stateMutability": "view",
      "type": "function"
    },
    {
      "inputs": [
        {
          "internalType": "address",
          "name": "owner",
          "type": "address"
        },
        {
          "internalType": "uint256",
          "name": "index",
          "type": "uint256"
        }
      ],
      "name": "tokenOfOwnerByIndex",
      "outputs": [
        {
          "internalType": "uint256",
          "name": "",
          "type": "uint256"
        }
      ],
      "stateMutability": "view",
      "type": "function"
    },
    {
      "inputs": [
        {
          "internalType": "uint256",
          "name": "tokenId",
          "type": "uint256"
        }
      ],
      "name": "tokenURI",
      "outputs": [
        {
          "internalType": "string",
          "name": "",
          "type": "string"
        }
      ],
      "stateMutability": "view",
      "type": "function"
    },
    {
      "inputs": [],
      "name": "totalSupply",
      "outputs": [
        {
          "internalType": "uint256",
          "name": "",
          "type": "uint256"
        }
      ],
      "stateMutability": "view",
      "type": "function"
    },
    {
      "inputs": [
        {
          "internalType": "address",
          "name": "from",
          "type": "address"
        },
        {
          "internalType": "address",
          "name": "to",
          "type": "address"
        },
        {
          "internalType": "uint256",
          "name": "tokenId",
          "type": "uint256"
        }
      ],
      "name": "transferFrom",
      "outputs": [],
      "stateMutability": "nonpayable",
      "type": "function"
    },
    {
      "inputs": [
        {
          "internalType": "address",
          "name": "newOwner",
          "type": "address"
        }
      ],
      "name": "transferOwnership",
      "outputs": [],
      "stateMutability": "nonpayable",
      "type": "function"
    },
    {
      "inputs": [
        {
          "internalType": "address",
          "name": "_owner",
          "type": "address"
        }
      ],
      "name": "walletOfOwner",
      "outputs": [
        {
          "internalType": "uint256[]",
          "name": "",
          "type": "uint256[]"
        }
      ],
      "stateMutability": "view",
      "type": "function"
    },
    {
      "inputs": [
        {
          "internalType": "address",
          "name": "",
          "type": "address"
        }
      ],
      "name": "whitelist",
      "outputs": [
        {
          "internalType": "bool",
          "name": "",
          "type": "bool"
        }
      ],
      "stateMutability": "view",
      "type": "function"
    },
    {
      "inputs": [],
      "name": "whitelistLimit",
      "outputs": [
        {
          "internalType": "uint256",
          "name": "",
          "type": "uint256"
        }
      ],
      "stateMutability": "view",
      "type": "function"
    },
    {
      "inputs": [
        {
          "internalType": "address",
          "name": "",
          "type": "address"
        }
      ],
      "name": "whitelistMinted",
      "outputs": [
        {
          "internalType": "uint256",
          "name": "",
          "type": "uint256"
        }
      ],
      "stateMutability": "view",
      "type": "function"
    },
    {
      "inputs": [],
      "name": "withdraw",
      "outputs": [],
      "stateMutability": "payable",
      "type": "function"
    },
    {
      "inputs": [],
      "name": "wlEndTime",
      "outputs": [
        {
          "internalType": "uint256",
          "name": "",
          "type": "uint256"
        }
      ],
      "stateMutability": "view",
      "type": "function"
    },
    {
      "inputs": [],
      "name": "wlStartTime",
      "outputs": [
        {
          "internalType": "uint256",
          "name": "",
          "type": "uint256"
        }
      ],
      "stateMutability": "view",
      "type": "function"
    },
    {
      "stateMutability": "payable",
      "type": "receive"
    }
  ],
  "bytecode": "0x60806040526000600d60006101000a81548160ff0219169083151502179055506602c567e6ecc0006011556127106012553480156200003d57600080fd5b506040516200527c3803806200527c833981810160405281019062000063919062000557565b3387878160009081620000779190620008a8565b508060019081620000899190620008a8565b505050600073ffffffffffffffffffffffffffffffffffffffff168173ffffffffffffffffffffffffffffffffffffffff1603620001015760006040517f1e4fbdf7000000000000000000000000000000000000000000000000000000008152600401620000f89190620009d4565b60405180910390fd5b6200011281620001ca60201b60201c565b506001600b8190555042811162000160576040517f08c379a0000000000000000000000000000000000000000000000000000000008152600401620001579062000a78565b60405180910390fd5b83601381905550826014819055508160158190555080600e81905550615460600e546200018e919062000ac9565b600f81905550615460600f54620001a6919062000ac9565b601081905550620001bd856200029060201b60201c565b5050505050505062000b04565b6000600a60009054906101000a900473ffffffffffffffffffffffffffffffffffffffff16905081600a60006101000a81548173ffffffffffffffffffffffffffffffffffffffff021916908373ffffffffffffffffffffffffffffffffffffffff1602179055508173ffffffffffffffffffffffffffffffffffffffff168173ffffffffffffffffffffffffffffffffffffffff167f8be0079c531659141344cd1fd0a4f28419497f9722a3daafe3b4186f6b6457e060405160405180910390a35050565b620002a0620002b560201b60201c565b80600c9081620002b19190620008a8565b5050565b620002c56200035760201b60201c565b73ffffffffffffffffffffffffffffffffffffffff16620002eb6200035f60201b60201c565b73ffffffffffffffffffffffffffffffffffffffff16146200035557620003176200035760201b60201c565b6040517f118cdaa70000000000000000000000000000000000000000000000000000000081526004016200034c9190620009d4565b60405180910390fd5b565b600033905090565b6000600a60009054906101000a900473ffffffffffffffffffffffffffffffffffffffff16905090565b6000604051905090565b600080fd5b600080fd5b600080fd5b600080fd5b6000601f19601f8301169050919050565b7f4e487b7100000000000000000000000000000000000000000000000000000000600052604160045260246000fd5b620003f282620003a7565b810181811067ffffffffffffffff82111715620004145762000413620003b8565b5b80604052505050565b60006200042962000389565b9050620004378282620003e7565b919050565b600067ffffffffffffffff8211156200045a5762000459620003b8565b5b6200046582620003a7565b9050602081019050919050565b60005b838110156200049257808201518184015260208101905062000475565b60008484015250505050565b6000620004b5620004af846200043c565b6200041d565b905082815260208101848484011115620004d457620004d3620003a2565b5b620004e184828562000472565b509392505050565b600082601f8301126200050157620005006200039d565b5b8151620005138482602086016200049e565b91505092915050565b6000819050919050565b62000531816200051c565b81146200053d57600080fd5b50565b600081519050620005518162000526565b92915050565b600080600080600080600060e0888a03121562000579576200057862000393565b5b600088015167ffffffffffffffff8111156200059a576200059962000398565b5b620005a88a828b01620004e9565b975050602088015167ffffffffffffffff811115620005cc57620005cb62000398565b5b620005da8a828b01620004e9565b965050604088015167ffffffffffffffff811115620005fe57620005fd62000398565b5b6200060c8a828b01620004e9565b95505060606200061f8a828b0162000540565b9450506080620006328a828b0162000540565b93505060a0620006458a828b0162000540565b92505060c0620006588a828b0162000540565b91505092959891949750929550565b600081519050919050565b7f4e487b7100000000000000000000000000000000000000000000000000000000600052602260045260246000fd5b60006002820490506001821680620006ba57607f821691505b602082108103620006d057620006cf62000672565b5b50919050565b60008190508160005260206000209050919050565b60006020601f8301049050919050565b600082821b905092915050565b6000600883026200073a7fffffffffffffffffffffffffffffffffffffffffffffffffffffffffffffffff82620006fb565b620007468683620006fb565b95508019841693508086168417925050509392505050565b6000819050919050565b600062000789620007836200077d846200051c565b6200075e565b6200051c565b9050919050565b6000819050919050565b620007a58362000768565b620007bd620007b48262000790565b84845462000708565b825550505050565b600090565b620007d4620007c5565b620007e18184846200079a565b505050565b5b818110156200080957620007fd600082620007ca565b600181019050620007e7565b5050565b601f82111562000858576200082281620006d6565b6200082d84620006eb565b810160208510156200083d578190505b620008556200084c85620006eb565b830182620007e6565b50505b505050565b600082821c905092915050565b60006200087d600019846008026200085d565b1980831691505092915050565b60006200089883836200086a565b9150826002028217905092915050565b620008b38262000667565b67ffffffffffffffff811115620008cf57620008ce620003b8565b5b620008db8254620006a1565b620008e88282856200080d565b600060209050601f8311600181146200092057600084156200090b578287015190505b6200091785826200088a565b86555062000987565b601f1984166200093086620006d6565b60005b828110156200095a5784890151825560018201915060208501945060208101905062000933565b868310156200097a578489015162000976601f8916826200086a565b8355505b6001600288020188555050505b505050505050565b600073ffffffffffffffffffffffffffffffffffffffff82169050919050565b6000620009bc826200098f565b9050919050565b620009ce81620009af565b82525050565b6000602082019050620009eb6000830184620009c3565b92915050565b600082825260208201905092915050565b7f57686974656c6973742073746172742074696d65206973206c6573732074686160008201527f742063757272656e742054696d657374616d7000000000000000000000000000602082015250565b600062000a60603383620009f1565b915062000a6d8262000a02565b604082019050919050565b6000602082019050818103600083015262000a938162000a51565b9050919050565b7f4e487b7100000000000000000000000000000000000000000000000000000000600052601160045260246000fd5b600062000ad6826200051c565b915062000ae3836200051c565b925082820190508082111562000afe5762000afd62000a9a565b5b92915050565b6147688062000b146000396000f3fe6080604052600436106102765760003560e01c80636352211e1161014f578063a4331d2d116100c1578063c87b56dd1161007a578063c87b56dd14610979578063c896d7d8146109b6578063cc0895cf146109f3578063d5abeb0114610a1c578063e985e9c514610a47578063f2fde38b14610a845761027d565b8063a4331d2d14610867578063ac2f396e14610892578063b60f7f58146108bd578063b88d4fde146108fa578063be9feb3014610923578063c39887f51461094e5761027d565b80638da5cb5b116101135780638da5cb5b1461075257806395d89b411461077d57806398a8cffe146107a85780639b19251a146107e5578063a0712d6814610822578063a22cb4651461083e5761027d565b80636352211e1461066f57806370a08231146106ac578063715018a6146106e95780637f649783146107005780638aa5b2c3146107295761027d565b8063302150e5116101e857806344a0d68a116101ac57806344a0d68a1461056157806347a541481461058a5780634f6ccce7146105b5578063548db174146105f257806355f804b31461061b5780635c975abb146106445761027d565b8063302150e51461049d5780633823bb55146104c85780633ccfd60b146104f157806342842e0e146104fb578063438b6300146105245761027d565b80630a93268b1161023a5780630a93268b146103795780631015805b146103a457806313faede6146103e157806318160ddd1461040c57806323b872dd146104375780632f745c59146104605761027d565b806301ffc9a71461028257806302329a29146102bf57806306fdde03146102e8578063081812fc14610313578063095ea7b3146103505761027d565b3661027d57005b600080fd5b34801561028e57600080fd5b506102a960048036038101906102a4919061330a565b610aad565b6040516102b69190613352565b60405180910390f35b3480156102cb57600080fd5b506102e660048036038101906102e19190613399565b610b27565b005b3480156102f457600080fd5b506102fd610b4c565b60405161030a9190613456565b60405180910390f35b34801561031f57600080fd5b5061033a600480360381019061033591906134ae565b610bde565b604051610347919061351c565b60405180910390f35b34801561035c57600080fd5b5061037760048036038101906103729190613563565b610bfa565b005b34801561038557600080fd5b5061038e610c10565b60405161039b919061364e565b60405180910390f35b3480156103b057600080fd5b506103cb60048036038101906103c69190613669565b610c7f565b6040516103d891906136a5565b60405180910390f35b3480156103ed57600080fd5b506103f6610c97565b60405161040391906136a5565b60405180910390f35b34801561041857600080fd5b50610421610c9d565b60405161042e91906136a5565b60405180910390f35b34801561044357600080fd5b5061045e600480360381019061045991906136c0565b610caa565b005b34801561046c57600080fd5b5061048760048036038101906104829190613563565b610dac565b60405161049491906136a5565b60405180910390f35b3480156104a957600080fd5b506104b2610e55565b6040516104bf91906136a5565b60405180910390f35b3480156104d457600080fd5b506104ef60048036038101906104ea9190613778565b610e5b565b005b6104f9610f00565b005b34801561050757600080fd5b50610522600480360381019061051d91906136c0565b611031565b005b34801561053057600080fd5b5061054b60048036038101906105469190613669565b611051565b6040516105589190613883565b60405180910390f35b34801561056d57600080fd5b50610588600480360381019061058391906134ae565b6110f9565b005b34801561059657600080fd5b5061059f61110b565b6040516105ac91906136a5565b60405180910390f35b3480156105c157600080fd5b506105dc60048036038101906105d791906134ae565b611111565b6040516105e991906136a5565b60405180910390f35b3480156105fe57600080fd5b5061061960048036038101906106149190613778565b611187565b005b34801561062757600080fd5b50610642600480360381019061063d91906139d5565b61122c565b005b34801561065057600080fd5b50610659611247565b6040516106669190613352565b60405180910390f35b34801561067b57600080fd5b50610696600480360381019061069191906134ae565b61125a565b6040516106a3919061351c565b60405180910390f35b3480156106b857600080fd5b506106d360048036038101906106ce9190613669565b61126c565b6040516106e091906136a5565b60405180910390f35b3480156106f557600080fd5b506106fe611326565b005b34801561070c57600080fd5b5061072760048036038101906107229190613778565b61133a565b005b34801561073557600080fd5b50610750600480360381019061074b91906134ae565b6113df565b005b34801561075e57600080fd5b5061076761141d565b604051610774919061351c565b60405180910390f35b34801561078957600080fd5b50610792611447565b60405161079f9190613456565b60405180910390f35b3480156107b457600080fd5b506107cf60048036038101906107ca9190613669565b6114d9565b6040516107dc91906136a5565b60405180910390f35b3480156107f157600080fd5b5061080c60048036038101906108079190613669565b6114f1565b6040516108199190613352565b60405180910390f35b61083c600480360381019061083791906134ae565b611511565b005b34801561084a57600080fd5b5061086560048036038101906108609190613a1e565b611b2a565b005b34801561087357600080fd5b5061087c611b40565b60405161088991906136a5565b60405180910390f35b34801561089e57600080fd5b506108a7611b46565b6040516108b491906136a5565b60405180910390f35b3480156108c957600080fd5b506108e460048036038101906108df9190613669565b611b4c565b6040516108f191906136a5565b60405180910390f35b34801561090657600080fd5b50610921600480360381019061091c9190613aff565b611b64565b005b34801561092f57600080fd5b50610938611b81565b60405161094591906136a5565b60405180910390f35b34801561095a57600080fd5b50610963611b87565b60405161097091906136a5565b60405180910390f35b34801561098557600080fd5b506109a0600480360381019061099b91906134ae565b611b8d565b6040516109ad9190613456565b60405180910390f35b3480156109c257600080fd5b506109dd60048036038101906109d89190613669565b611bf6565b6040516109ea9190613352565b60405180910390f35b3480156109ff57600080fd5b50610a1a6004803603810190610a159190613778565b611c16565b005b348015610a2857600080fd5b50610a31611cbb565b604051610a3e91906136a5565b60405180910390f35b348015610a5357600080fd5b50610a6e6004803603810190610a699190613b82565b611cc1565b604051610a7b9190613352565b60405180910390f35b348015610a9057600080fd5b50610aab6004803603810190610aa69190613669565b611d55565b005b60007f780e9d63000000000000000000000000000000000000000000000000000000007bffffffffffffffffffffffffffffffffffffffffffffffffffffffff1916827bffffffffffffffffffffffffffffffffffffffffffffffffffffffff19161480610b205750610b1f82611ddb565b5b9050919050565b610b2f611ebd565b80600d60006101000a81548160ff02191690831515021790555050565b606060008054610b5b90613bf1565b80601f0160208091040260200160405190810160405280929190818152602001828054610b8790613bf1565b8015610bd45780601f10610ba957610100808354040283529160200191610bd4565b820191906000526020600020905b815481529060010190602001808311610bb757829003601f168201915b5050505050905090565b6000610be982611f44565b50610bf382611fcc565b9050919050565b610c0c8282610c07612009565b612011565b5050565b610c1861327c565b6000600e544210158015610c2e5750600f544211155b90506000600f5442118015610c4557506010544211155b9050600060105442119050604051806060016040528084151515158152602001831515151581526020018215151515815250935050505090565b60186020528060005260406000206000915090505481565b60115481565b6000600880549050905090565b600073ffffffffffffffffffffffffffffffffffffffff168273ffffffffffffffffffffffffffffffffffffffff1603610d1c5760006040517f64a0ae92000000000000000000000000000000000000000000000000000000008152600401610d13919061351c565b60405180910390fd5b6000610d308383610d2b612009565b612023565b90508373ffffffffffffffffffffffffffffffffffffffff168173ffffffffffffffffffffffffffffffffffffffff1614610da6578382826040517f64283d7b000000000000000000000000000000000000000000000000000000008152600401610d9d93929190613c22565b60405180910390fd5b50505050565b6000610db78361126c565b8210610dfc5782826040517fa57d13dc000000000000000000000000000000000000000000000000000000008152600401610df3929190613c59565b60405180910390fd5b600660008473ffffffffffffffffffffffffffffffffffffffff1673ffffffffffffffffffffffffffffffffffffffff168152602001908152602001600020600083815260200190815260200160002054905092915050565b60135481565b610e63611ebd565b60005b82829050811015610efb57600060176000858585818110610e8a57610e89613c82565b5b9050602002016020810190610e9f9190613669565b73ffffffffffffffffffffffffffffffffffffffff1673ffffffffffffffffffffffffffffffffffffffff16815260200190815260200160002060006101000a81548160ff021916908315150217905550806001019050610e66565b505050565b610f08611ebd565b60004790506000739581a8b08621139288196c24f8a3580b3a21b24073ffffffffffffffffffffffffffffffffffffffff166064601e84610f499190613ce0565b610f539190613d51565b604051610f5f90613db3565b60006040518083038185875af1925050503d8060008114610f9c576040519150601f19603f3d011682016040523d82523d6000602084013e610fa1565b606091505b5050905080610faf57600080fd5b6000610fb961141d565b73ffffffffffffffffffffffffffffffffffffffff1647604051610fdc90613db3565b60006040518083038185875af1925050503d8060008114611019576040519150601f19603f3d011682016040523d82523d6000602084013e61101e565b606091505b505090508061102c57600080fd5b505050565b61104c83838360405180602001604052806000815250611b64565b505050565b6060600061105e8361126c565b905060008167ffffffffffffffff81111561107c5761107b6138aa565b5b6040519080825280602002602001820160405280156110aa5781602001602082028036833780820191505090505b50905060005b828110156110ee576110c28582610dac565b8282815181106110d5576110d4613c82565b5b60200260200101818152505080806001019150506110b0565b508092505050919050565b611101611ebd565b8060118190555050565b600f5481565b600061111b610c9d565b8210611161576000826040517fa57d13dc000000000000000000000000000000000000000000000000000000008152600401611158929190613c59565b60405180910390fd5b6008828154811061117557611174613c82565b5b90600052602060002001549050919050565b61118f611ebd565b60005b82829050811015611227576000601660008585858181106111b6576111b5613c82565b5b90506020020160208101906111cb9190613669565b73ffffffffffffffffffffffffffffffffffffffff1673ffffffffffffffffffffffffffffffffffffffff16815260200190815260200160002060006101000a81548160ff021916908315150217905550806001019050611192565b505050565b611234611ebd565b80600c90816112439190613f74565b5050565b600d60009054906101000a900460ff1681565b600061126582611f44565b9050919050565b60008073ffffffffffffffffffffffffffffffffffffffff168273ffffffffffffffffffffffffffffffffffffffff16036112df5760006040517f89c62b640000000000000000000000000000000000000000000000000000000081526004016112d6919061351c565b60405180910390fd5b600360008373ffffffffffffffffffffffffffffffffffffffff1673ffffffffffffffffffffffffffffffffffffffff168152602001908152602001600020549050919050565b61132e611ebd565b6113386000612140565b565b611342611ebd565b60005b828290508110156113da5760016016600085858581811061136957611368613c82565b5b905060200201602081019061137e9190613669565b73ffffffffffffffffffffffffffffffffffffffff1673ffffffffffffffffffffffffffffffffffffffff16815260200190815260200160002060006101000a81548160ff021916908315150217905550806001019050611345565b505050565b6113e7611ebd565b80600e81905550615460600e546113fe9190614046565b600f81905550615460600f546114149190614046565b60108190555050565b6000600a60009054906101000a900473ffffffffffffffffffffffffffffffffffffffff16905090565b60606001805461145690613bf1565b80601f016020809104026020016040519081016040528092919081815260200182805461148290613bf1565b80156114cf5780601f106114a4576101008083540402835291602001916114cf565b820191906000526020600020905b8154815290600101906020018083116114b257829003601f168201915b5050505050905090565b60196020528060005260406000206000915090505481565b60166020528060005260406000206000915054906101000a900460ff1681565b611519612206565b6000611523610c9d565b9050600d60009054906101000a900460ff1615611575576040517f08c379a000000000000000000000000000000000000000000000000000000000815260040161156c906140c6565b60405180910390fd5b600082116115b8576040517f08c379a00000000000000000000000000000000000000000000000000000000081526004016115af90614158565b60405180910390fd5b60125482826115c79190614046565b1115611608576040517f08c379a00000000000000000000000000000000000000000000000000000000081526004016115ff906141c4565b60405180910390fd5b61161061141d565b73ffffffffffffffffffffffffffffffffffffffff163373ffffffffffffffffffffffffffffffffffffffff1614611ae757816011546116509190613ce0565b341015611692576040517f08c379a000000000000000000000000000000000000000000000000000000000815260040161168990614230565b60405180910390fd5b600e544210156116d7576040517f08c379a00000000000000000000000000000000000000000000000000000000081526004016116ce9061429c565b60405180910390fd5b600e5442101580156116eb5750600f544211155b1561186657601660003373ffffffffffffffffffffffffffffffffffffffff1673ffffffffffffffffffffffffffffffffffffffff16815260200190815260200160002060009054906101000a900460ff1661177c576040517f08c379a000000000000000000000000000000000000000000000000000000000815260040161177390614308565b60405180910390fd5b60135482601960003373ffffffffffffffffffffffffffffffffffffffff1673ffffffffffffffffffffffffffffffffffffffff168152602001908152602001600020546117ca9190614046565b111561180b576040517f08c379a000000000000000000000000000000000000000000000000000000000815260040161180290614374565b60405180910390fd5b81601960003373ffffffffffffffffffffffffffffffffffffffff1673ffffffffffffffffffffffffffffffffffffffff168152602001908152602001600020600082825461185a9190614046565b92505081905550611ae6565b600f544211801561187957506010544211155b156119f457601760003373ffffffffffffffffffffffffffffffffffffffff1673ffffffffffffffffffffffffffffffffffffffff16815260200190815260200160002060009054906101000a900460ff1661190a576040517f08c379a0000000000000000000000000000000000000000000000000000000008152600401611901906143e0565b60405180910390fd5b60155482601a60003373ffffffffffffffffffffffffffffffffffffffff1673ffffffffffffffffffffffffffffffffffffffff168152602001908152602001600020546119589190614046565b1115611999576040517f08c379a00000000000000000000000000000000000000000000000000000000081526004016119909061444c565b60405180910390fd5b81601a60003373ffffffffffffffffffffffffffffffffffffffff1673ffffffffffffffffffffffffffffffffffffffff16815260200190815260200160002060008282546119e89190614046565b92505081905550611ae5565b601054421115611ae45760145482601860003373ffffffffffffffffffffffffffffffffffffffff1673ffffffffffffffffffffffffffffffffffffffff16815260200190815260200160002054611a4c9190614046565b1115611a8d576040517f08c379a0000000000000000000000000000000000000000000000000000000008152600401611a84906144b8565b60405180910390fd5b81601860003373ffffffffffffffffffffffffffffffffffffffff1673ffffffffffffffffffffffffffffffffffffffff1681526020019081526020016000206000828254611adc9190614046565b925050819055505b5b5b5b6000600190505b828111611b1d57611b0a338284611b059190614046565b612255565b8080611b15906144d8565b915050611aee565b5050611b27612273565b50565b611b3c611b35612009565b838361227d565b5050565b60145481565b60155481565b601a6020528060005260406000206000915090505481565b611b6f848484610caa565b611b7b848484846123ec565b50505050565b600e5481565b60105481565b6060611b9882611f44565b506000611ba36125a3565b90506000815111611bc35760405180602001604052806000815250611bee565b80611bcd84612635565b604051602001611bde92919061455c565b6040516020818303038152906040525b915050919050565b60176020528060005260406000206000915054906101000a900460ff1681565b611c1e611ebd565b60005b82829050811015611cb657600160176000858585818110611c4557611c44613c82565b5b9050602002016020810190611c5a9190613669565b73ffffffffffffffffffffffffffffffffffffffff1673ffffffffffffffffffffffffffffffffffffffff16815260200190815260200160002060006101000a81548160ff021916908315150217905550806001019050611c21565b505050565b60125481565b6000600560008473ffffffffffffffffffffffffffffffffffffffff1673ffffffffffffffffffffffffffffffffffffffff16815260200190815260200160002060008373ffffffffffffffffffffffffffffffffffffffff1673ffffffffffffffffffffffffffffffffffffffff16815260200190815260200160002060009054906101000a900460ff16905092915050565b611d5d611ebd565b600073ffffffffffffffffffffffffffffffffffffffff168173ffffffffffffffffffffffffffffffffffffffff1603611dcf5760006040517f1e4fbdf7000000000000000000000000000000000000000000000000000000008152600401611dc6919061351c565b60405180910390fd5b611dd881612140565b50565b60007f80ac58cd000000000000000000000000000000000000000000000000000000007bffffffffffffffffffffffffffffffffffffffffffffffffffffffff1916827bffffffffffffffffffffffffffffffffffffffffffffffffffffffff19161480611ea657507f5b5e139f000000000000000000000000000000000000000000000000000000007bffffffffffffffffffffffffffffffffffffffffffffffffffffffff1916827bffffffffffffffffffffffffffffffffffffffffffffffffffffffff1916145b80611eb65750611eb582612703565b5b9050919050565b611ec5612009565b73ffffffffffffffffffffffffffffffffffffffff16611ee361141d565b73ffffffffffffffffffffffffffffffffffffffff1614611f4257611f06612009565b6040517f118cdaa7000000000000000000000000000000000000000000000000000000008152600401611f39919061351c565b60405180910390fd5b565b600080611f508361276d565b9050600073ffffffffffffffffffffffffffffffffffffffff168173ffffffffffffffffffffffffffffffffffffffff1603611fc357826040517f7e273289000000000000000000000000000000000000000000000000000000008152600401611fba91906136a5565b60405180910390fd5b80915050919050565b60006004600083815260200190815260200160002060009054906101000a900473ffffffffffffffffffffffffffffffffffffffff169050919050565b600033905090565b61201e83838360016127aa565b505050565b60008061203185858561296f565b9050600073ffffffffffffffffffffffffffffffffffffffff168173ffffffffffffffffffffffffffffffffffffffff16036120755761207084612b89565b6120b4565b8473ffffffffffffffffffffffffffffffffffffffff168173ffffffffffffffffffffffffffffffffffffffff16146120b3576120b28185612bd2565b5b5b600073ffffffffffffffffffffffffffffffffffffffff168573ffffffffffffffffffffffffffffffffffffffff16036120f6576120f184612d33565b612135565b8473ffffffffffffffffffffffffffffffffffffffff168173ffffffffffffffffffffffffffffffffffffffff1614612134576121338585612e04565b5b5b809150509392505050565b6000600a60009054906101000a900473ffffffffffffffffffffffffffffffffffffffff16905081600a60006101000a81548173ffffffffffffffffffffffffffffffffffffffff021916908373ffffffffffffffffffffffffffffffffffffffff1602179055508173ffffffffffffffffffffffffffffffffffffffff168173ffffffffffffffffffffffffffffffffffffffff167f8be0079c531659141344cd1fd0a4f28419497f9722a3daafe3b4186f6b6457e060405160405180910390a35050565b6002600b540361224b576040517f08c379a0000000000000000000000000000000000000000000000000000000008152600401612242906145cc565b60405180910390fd5b6002600b81905550565b61226f828260405180602001604052806000815250612e8f565b5050565b6001600b81905550565b600073ffffffffffffffffffffffffffffffffffffffff168273ffffffffffffffffffffffffffffffffffffffff16036122ee57816040517f5b08ba180000000000000000000000000000000000000000000000000000000081526004016122e5919061351c565b60405180910390fd5b80600560008573ffffffffffffffffffffffffffffffffffffffff1673ffffffffffffffffffffffffffffffffffffffff16815260200190815260200160002060008473ffffffffffffffffffffffffffffffffffffffff1673ffffffffffffffffffffffffffffffffffffffff16815260200190815260200160002060006101000a81548160ff0219169083151502179055508173ffffffffffffffffffffffffffffffffffffffff168373ffffffffffffffffffffffffffffffffffffffff167f17307eab39ab6107e8899845ad3d59bd9653f200f220920489ca2b5937696c31836040516123df9190613352565b60405180910390a3505050565b60008373ffffffffffffffffffffffffffffffffffffffff163b111561259d578273ffffffffffffffffffffffffffffffffffffffff1663150b7a02612430612009565b8685856040518563ffffffff1660e01b81526004016124529493929190614641565b6020604051808303816000875af192505050801561248e57506040513d601f19601f8201168201806040525081019061248b91906146a2565b60015b612512573d80600081146124be576040519150601f19603f3d011682016040523d82523d6000602084013e6124c3565b606091505b50600081510361250a57836040517f64a0ae92000000000000000000000000000000000000000000000000000000008152600401612501919061351c565b60405180910390fd5b805181602001fd5b63150b7a0260e01b7bffffffffffffffffffffffffffffffffffffffffffffffffffffffff1916817bffffffffffffffffffffffffffffffffffffffffffffffffffffffff19161461259b57836040517f64a0ae92000000000000000000000000000000000000000000000000000000008152600401612592919061351c565b60405180910390fd5b505b50505050565b6060600c80546125b290613bf1565b80601f01602080910402602001604051908101604052809291908181526020018280546125de90613bf1565b801561262b5780601f106126005761010080835404028352916020019161262b565b820191906000526020600020905b81548152906001019060200180831161260e57829003601f168201915b5050505050905090565b60606000600161264484612eab565b01905060008167ffffffffffffffff811115612663576126626138aa565b5b6040519080825280601f01601f1916602001820160405280156126955781602001600182028036833780820191505090505b509050600082602001820190505b6001156126f8578080600190039150507f3031323334353637383961626364656600000000000000000000000000000000600a86061a8153600a85816126ec576126eb613d22565b5b049450600085036126a3575b819350505050919050565b60007f01ffc9a7000000000000000000000000000000000000000000000000000000007bffffffffffffffffffffffffffffffffffffffffffffffffffffffff1916827bffffffffffffffffffffffffffffffffffffffffffffffffffffffff1916149050919050565b60006002600083815260200190815260200160002060009054906101000a900473ffffffffffffffffffffffffffffffffffffffff169050919050565b80806127e35750600073ffffffffffffffffffffffffffffffffffffffff168273ffffffffffffffffffffffffffffffffffffffff1614155b156129175760006127f384611f44565b9050600073ffffffffffffffffffffffffffffffffffffffff168373ffffffffffffffffffffffffffffffffffffffff161415801561285e57508273ffffffffffffffffffffffffffffffffffffffff168173ffffffffffffffffffffffffffffffffffffffff1614155b8015612871575061286f8184611cc1565b155b156128b357826040517fa9fbf51f0000000000000000000000000000000000000000000000000000000081526004016128aa919061351c565b60405180910390fd5b811561291557838573ffffffffffffffffffffffffffffffffffffffff168273ffffffffffffffffffffffffffffffffffffffff167f8c5be1e5ebec7d5bd14f71427d1e84f3dd0314c0f7b2291e5b200ac8c7c3b92560405160405180910390a45b505b836004600085815260200190815260200160002060006101000a81548173ffffffffffffffffffffffffffffffffffffffff021916908373ffffffffffffffffffffffffffffffffffffffff16021790555050505050565b60008061297b8461276d565b9050600073ffffffffffffffffffffffffffffffffffffffff168373ffffffffffffffffffffffffffffffffffffffff16146129bd576129bc818486612ffe565b5b600073ffffffffffffffffffffffffffffffffffffffff168173ffffffffffffffffffffffffffffffffffffffff1614612a4e576129ff6000856000806127aa565b6001600360008373ffffffffffffffffffffffffffffffffffffffff1673ffffffffffffffffffffffffffffffffffffffff168152602001908152602001600020600082825403925050819055505b600073ffffffffffffffffffffffffffffffffffffffff168573ffffffffffffffffffffffffffffffffffffffff1614612ad1576001600360008773ffffffffffffffffffffffffffffffffffffffff1673ffffffffffffffffffffffffffffffffffffffff168152602001908152602001600020600082825401925050819055505b846002600086815260200190815260200160002060006101000a81548173ffffffffffffffffffffffffffffffffffffffff021916908373ffffffffffffffffffffffffffffffffffffffff160217905550838573ffffffffffffffffffffffffffffffffffffffff168273ffffffffffffffffffffffffffffffffffffffff167fddf252ad1be2c89b69c2b068fc378daa952ba7f163c4a11628f55a4df523b3ef60405160405180910390a4809150509392505050565b6008805490506009600083815260200190815260200160002081905550600881908060018154018082558091505060019003906000526020600020016000909190919091505550565b6000612bdd8361126c565b9050600060076000848152602001908152602001600020549050818114612cc2576000600660008673ffffffffffffffffffffffffffffffffffffffff1673ffffffffffffffffffffffffffffffffffffffff168152602001908152602001600020600084815260200190815260200160002054905080600660008773ffffffffffffffffffffffffffffffffffffffff1673ffffffffffffffffffffffffffffffffffffffff168152602001908152602001600020600084815260200190815260200160002081905550816007600083815260200190815260200160002081905550505b6007600084815260200190815260200160002060009055600660008573ffffffffffffffffffffffffffffffffffffffff1673ffffffffffffffffffffffffffffffffffffffff16815260200190815260200160002060008381526020019081526020016000206000905550505050565b60006001600880549050612d4791906146cf565b9050600060096000848152602001908152602001600020549050600060088381548110612d7757612d76613c82565b5b906000526020600020015490508060088381548110612d9957612d98613c82565b5b906000526020600020018190555081600960008381526020019081526020016000208190555060096000858152602001908152602001600020600090556008805480612de857612de7614703565b5b6001900381819060005260206000200160009055905550505050565b60006001612e118461126c565b612e1b91906146cf565b905081600660008573ffffffffffffffffffffffffffffffffffffffff1673ffffffffffffffffffffffffffffffffffffffff168152602001908152602001600020600083815260200190815260200160002081905550806007600084815260200190815260200160002081905550505050565b612e9983836130c2565b612ea660008484846123ec565b505050565b600080600090507a184f03e93ff9f4daa797ed6e38ed64bf6a1f0100000000000000008310612f09577a184f03e93ff9f4daa797ed6e38ed64bf6a1f0100000000000000008381612eff57612efe613d22565b5b0492506040810190505b6d04ee2d6d415b85acef81000000008310612f46576d04ee2d6d415b85acef81000000008381612f3c57612f3b613d22565b5b0492506020810190505b662386f26fc100008310612f7557662386f26fc100008381612f6b57612f6a613d22565b5b0492506010810190505b6305f5e1008310612f9e576305f5e1008381612f9457612f93613d22565b5b0492506008810190505b6127108310612fc3576127108381612fb957612fb8613d22565b5b0492506004810190505b60648310612fe65760648381612fdc57612fdb613d22565b5b0492506002810190505b600a8310612ff5576001810190505b80915050919050565b6130098383836131bb565b6130bd57600073ffffffffffffffffffffffffffffffffffffffff168373ffffffffffffffffffffffffffffffffffffffff160361307e57806040517f7e27328900000000000000000000000000000000000000000000000000000000815260040161307591906136a5565b60405180910390fd5b81816040517f177e802f0000000000000000000000000000000000000000000000000000000081526004016130b4929190613c59565b60405180910390fd5b505050565b600073ffffffffffffffffffffffffffffffffffffffff168273ffffffffffffffffffffffffffffffffffffffff16036131345760006040517f64a0ae9200000000000000000000000000000000000000000000000000000000815260040161312b919061351c565b60405180910390fd5b600061314283836000612023565b9050600073ffffffffffffffffffffffffffffffffffffffff168173ffffffffffffffffffffffffffffffffffffffff16146131b65760006040517f73c6ac6e0000000000000000000000000000000000000000000000000000000081526004016131ad919061351c565b60405180910390fd5b505050565b60008073ffffffffffffffffffffffffffffffffffffffff168373ffffffffffffffffffffffffffffffffffffffff161415801561327357508273ffffffffffffffffffffffffffffffffffffffff168473ffffffffffffffffffffffffffffffffffffffff16148061323457506132338484611cc1565b5b8061327257508273ffffffffffffffffffffffffffffffffffffffff1661325a83611fcc565b73ffffffffffffffffffffffffffffffffffffffff16145b5b90509392505050565b6040518060600160405280600390602082028036833780820191505090505090565b6000604051905090565b600080fd5b600080fd5b60007fffffffff0000000000000000000000000000000000000000000000000000000082169050919050565b6132e7816132b2565b81146132f257600080fd5b50565b600081359050613304816132de565b92915050565b6000602082840312156133205761331f6132a8565b5b600061332e848285016132f5565b91505092915050565b60008115159050919050565b61334c81613337565b82525050565b60006020820190506133676000830184613343565b92915050565b61337681613337565b811461338157600080fd5b50565b6000813590506133938161336d565b92915050565b6000602082840312156133af576133ae6132a8565b5b60006133bd84828501613384565b91505092915050565b600081519050919050565b600082825260208201905092915050565b60005b838110156134005780820151818401526020810190506133e5565b60008484015250505050565b6000601f19601f8301169050919050565b6000613428826133c6565b61343281856133d1565b93506134428185602086016133e2565b61344b8161340c565b840191505092915050565b60006020820190508181036000830152613470818461341d565b905092915050565b6000819050919050565b61348b81613478565b811461349657600080fd5b50565b6000813590506134a881613482565b92915050565b6000602082840312156134c4576134c36132a8565b5b60006134d284828501613499565b91505092915050565b600073ffffffffffffffffffffffffffffffffffffffff82169050919050565b6000613506826134db565b9050919050565b613516816134fb565b82525050565b6000602082019050613531600083018461350d565b92915050565b613540816134fb565b811461354b57600080fd5b50565b60008135905061355d81613537565b92915050565b6000806040838503121561357a576135796132a8565b5b60006135888582860161354e565b925050602061359985828601613499565b9150509250929050565b600060039050919050565b600081905092915050565b6000819050919050565b6135cc81613337565b82525050565b60006135de83836135c3565b60208301905092915050565b6000602082019050919050565b613600816135a3565b61360a81846135ae565b9250613615826135b9565b8060005b8381101561364657815161362d87826135d2565b9650613638836135ea565b925050600181019050613619565b505050505050565b600060608201905061366360008301846135f7565b92915050565b60006020828403121561367f5761367e6132a8565b5b600061368d8482850161354e565b91505092915050565b61369f81613478565b82525050565b60006020820190506136ba6000830184613696565b92915050565b6000806000606084860312156136d9576136d86132a8565b5b60006136e78682870161354e565b93505060206136f88682870161354e565b925050604061370986828701613499565b9150509250925092565b600080fd5b600080fd5b600080fd5b60008083601f84011261373857613737613713565b5b8235905067ffffffffffffffff81111561375557613754613718565b5b6020830191508360208202830111156137715761377061371d565b5b9250929050565b6000806020838503121561378f5761378e6132a8565b5b600083013567ffffffffffffffff8111156137ad576137ac6132ad565b5b6137b985828601613722565b92509250509250929050565b600081519050919050565b600082825260208201905092915050565b6000819050602082019050919050565b6137fa81613478565b82525050565b600061380c83836137f1565b60208301905092915050565b6000602082019050919050565b6000613830826137c5565b61383a81856137d0565b9350613845836137e1565b8060005b8381101561387657815161385d8882613800565b975061386883613818565b925050600181019050613849565b5085935050505092915050565b6000602082019050818103600083015261389d8184613825565b905092915050565b600080fd5b7f4e487b7100000000000000000000000000000000000000000000000000000000600052604160045260246000fd5b6138e28261340c565b810181811067ffffffffffffffff82111715613901576139006138aa565b5b80604052505050565b600061391461329e565b905061392082826138d9565b919050565b600067ffffffffffffffff8211156139405761393f6138aa565b5b6139498261340c565b9050602081019050919050565b82818337600083830152505050565b600061397861397384613925565b61390a565b905082815260208101848484011115613994576139936138a5565b5b61399f848285613956565b509392505050565b600082601f8301126139bc576139bb613713565b5b81356139cc848260208601613965565b91505092915050565b6000602082840312156139eb576139ea6132a8565b5b600082013567ffffffffffffffff811115613a0957613a086132ad565b5b613a15848285016139a7565b91505092915050565b60008060408385031215613a3557613a346132a8565b5b6000613a438582860161354e565b9250506020613a5485828601613384565b9150509250929050565b600067ffffffffffffffff821115613a7957613a786138aa565b5b613a828261340c565b9050602081019050919050565b6000613aa2613a9d84613a5e565b61390a565b905082815260208101848484011115613abe57613abd6138a5565b5b613ac9848285613956565b509392505050565b600082601f830112613ae657613ae5613713565b5b8135613af6848260208601613a8f565b91505092915050565b60008060008060808587031215613b1957613b186132a8565b5b6000613b278782880161354e565b9450506020613b388782880161354e565b9350506040613b4987828801613499565b925050606085013567ffffffffffffffff811115613b6a57613b696132ad565b5b613b7687828801613ad1565b91505092959194509250565b60008060408385031215613b9957613b986132a8565b5b6000613ba78582860161354e565b9250506020613bb88582860161354e565b9150509250929050565b7f4e487b7100000000000000000000000000000000000000000000000000000000600052602260045260246000fd5b60006002820490506001821680613c0957607f821691505b602082108103613c1c57613c1b613bc2565b5b50919050565b6000606082019050613c37600083018661350d565b613c446020830185613696565b613c51604083018461350d565b949350505050565b6000604082019050613c6e600083018561350d565b613c7b6020830184613696565b9392505050565b7f4e487b7100000000000000000000000000000000000000000000000000000000600052603260045260246000fd5b7f4e487b7100000000000000000000000000000000000000000000000000000000600052601160045260246000fd5b6000613ceb82613478565b9150613cf683613478565b9250828202613d0481613478565b91508282048414831517613d1b57613d1a613cb1565b5b5092915050565b7f4e487b7100000000000000000000000000000000000000000000000000000000600052601260045260246000fd5b6000613d5c82613478565b9150613d6783613478565b925082613d7757613d76613d22565b5b828204905092915050565b600081905092915050565b50565b6000613d9d600083613d82565b9150613da882613d8d565b600082019050919050565b6000613dbe82613d90565b9150819050919050565b60008190508160005260206000209050919050565b60006020601f8301049050919050565b600082821b905092915050565b600060088302613e2a7fffffffffffffffffffffffffffffffffffffffffffffffffffffffffffffffff82613ded565b613e348683613ded565b95508019841693508086168417925050509392505050565b6000819050919050565b6000613e71613e6c613e6784613478565b613e4c565b613478565b9050919050565b6000819050919050565b613e8b83613e56565b613e9f613e9782613e78565b848454613dfa565b825550505050565b600090565b613eb4613ea7565b613ebf818484613e82565b505050565b5b81811015613ee357613ed8600082613eac565b600181019050613ec5565b5050565b601f821115613f2857613ef981613dc8565b613f0284613ddd565b81016020851015613f11578190505b613f25613f1d85613ddd565b830182613ec4565b50505b505050565b600082821c905092915050565b6000613f4b60001984600802613f2d565b1980831691505092915050565b6000613f648383613f3a565b9150826002028217905092915050565b613f7d826133c6565b67ffffffffffffffff811115613f9657613f956138aa565b5b613fa08254613bf1565b613fab828285613ee7565b600060209050601f831160018114613fde5760008415613fcc578287015190505b613fd68582613f58565b86555061403e565b601f198416613fec86613dc8565b60005b8281101561401457848901518255600182019150602085019450602081019050613fef565b86831015614031578489015161402d601f891682613f3a565b8355505b6001600288020188555050505b505050505050565b600061405182613478565b915061405c83613478565b925082820190508082111561407457614073613cb1565b5b92915050565b7f4d696e74696e672069732063757272656e746c79207061757365640000000000600082015250565b60006140b0601b836133d1565b91506140bb8261407a565b602082019050919050565b600060208201905081810360008301526140df816140a3565b9050919050565b7f4d696e7420616d6f756e74206d757374206265206d6f7265207468616e207a6560008201527f726f000000000000000000000000000000000000000000000000000000000000602082015250565b60006141426022836133d1565b915061414d826140e6565b604082019050919050565b6000602082019050818103600083015261417181614135565b9050919050565b7f4d617820737570706c7920726561636865640000000000000000000000000000600082015250565b60006141ae6012836133d1565b91506141b982614178565b602082019050919050565b600060208201905081810360008301526141dd816141a1565b9050919050565b7f496e73756666696369656e742066756e64730000000000000000000000000000600082015250565b600061421a6012836133d1565b9150614225826141e4565b602082019050919050565b600060208201905081810360008301526142498161420d565b9050919050565b7f4d696e74696e67206e6f74207374617274656400000000000000000000000000600082015250565b60006142866013836133d1565b915061429182614250565b602082019050919050565b600060208201905081810360008301526142b581614279565b9050919050565b7f596f7520617265206e6f742077686974656c6973746564000000000000000000600082015250565b60006142f26017836133d1565b91506142fd826142bc565b602082019050919050565b60006020820190508181036000830152614321816142e5565b9050919050565b7f574c204d696e74696e67206c696d697420657863656564656400000000000000600082015250565b600061435e6019836133d1565b915061436982614328565b602082019050919050565b6000602082019050818103600083015261438d81614351565b9050919050565b7f596f7520617265206e6f7420696e2046434653206c6973740000000000000000600082015250565b60006143ca6018836133d1565b91506143d582614394565b602082019050919050565b600060208201905081810360008301526143f9816143bd565b9050919050565b7f46434653204d696e74696e67206c696d69742065786365656465640000000000600082015250565b6000614436601b836133d1565b915061444182614400565b602082019050919050565b6000602082019050818103600083015261446581614429565b9050919050565b7f507562204d696e74696e67206c696d6974206578636565646564000000000000600082015250565b60006144a2601a836133d1565b91506144ad8261446c565b602082019050919050565b600060208201905081810360008301526144d181614495565b9050919050565b60006144e382613478565b91507fffffffffffffffffffffffffffffffffffffffffffffffffffffffffffffffff820361451557614514613cb1565b5b600182019050919050565b600081905092915050565b6000614536826133c6565b6145408185614520565b93506145508185602086016133e2565b80840191505092915050565b6000614568828561452b565b9150614574828461452b565b91508190509392505050565b7f5265656e7472616e637947756172643a207265656e7472616e742063616c6c00600082015250565b60006145b6601f836133d1565b91506145c182614580565b602082019050919050565b600060208201905081810360008301526145e5816145a9565b9050919050565b600081519050919050565b600082825260208201905092915050565b6000614613826145ec565b61461d81856145f7565b935061462d8185602086016133e2565b6146368161340c565b840191505092915050565b6000608082019050614656600083018761350d565b614663602083018661350d565b6146706040830185613696565b81810360608301526146828184614608565b905095945050505050565b60008151905061469c816132de565b92915050565b6000602082840312156146b8576146b76132a8565b5b60006146c68482850161468d565b91505092915050565b60006146da82613478565b91506146e583613478565b92508282039050818111156146fd576146fc613cb1565b5b92915050565b7f4e487b7100000000000000000000000000000000000000000000000000000000600052603160045260246000fdfea26469706673582212200d224a17c80cb86f58da39151831d56f66d3dc034cc56d42a34fb5acf614440e64736f6c63430008180033",
  "linkReferences": {},
  "deployedLinkReferences": {}
}